:020000040800F2
:100000007005002005010008791100087111000831
:10001000751100084D0F0008271D000800000000A2
:100020000000000000000000000000004513000870
:10003000510F000800000000ED1100083114000805
:100040001F0100081F0100081F0100081F01000810
:100050001F0100081F0100081F0100081F01000800
:100060001F0100081F0100081F0100081F010008F0
:100070001F0100081F0100081F0100081F010008E0
:100080001F0100081F0100081F0100081F010008D0
:100090001F0100081F0100081F0100081F010008C0
:1000A0001F0100081F0100081F0100081F010008B0
:1000B0001F0100081F010008A91500081F01000802
:1000C0001F0100081F0100081F0100081F01000890
:1000D0001F010008F91A00081F0100081F0100088D
:1000E0001F0100081F0100081F010008DFF810D0E1
:1000F00000F00CFD0048004711310008AFF300800C
:10010000700500200648804706480047FEE7FEE7E6
:10011000FEE7FEE7FEE7FEE7FEE7FEE7FEE7FEE7B7
:1001200035140008ED000008F0B480EA0102D40F95
:100130004200B2EB410F02D20246084611464A0085
:1001400042D0C30DDDB2C1F3C752AD1A202D35DA4E
:10015000C1F3160141F4000204B15242C5F1200678
:1001600002FA06F12A411044B3EBD05F23D0C4B1A8
:10017000012DA0EBC35009DCF0BC4FF0004202EAB5
:10018000C352DBB200F5000000F0D9BB400000F123
:10019000807000EBC350A0F1807040EAD17049003C
:1001A00009E0490841EAC071A0EBC35000F5000026
:1001B000400800EBC350F0BC00F0B8BB6142012224
:1001C00002EB4101001BF6E7F0BC704781F00041F3
:1001D000AAE780F00040A7E780EA010210B502F02C
:1001E0000043400022D04A001FD0010E01EB1261F3
:1001F000C0F35600C2F3560240F4000042F400027D
:10020000A0FB022000047F39140400D0401C50EAF7
:10021000124001D44000491EC2B20C0604EBD010BB
:10022000401C4008802A02D003E0002010BD20F0CE
:100230000100002900DA0020184310BD30B480EA24
:10024000010202F0004530F0004221F0004013D0DE
:1002500090B1C30DD40DC2F31601C0F31600E41A19
:1002600041F4000140F400027D34914201D3641C4A
:1002700000E04900002C02DA30BC002070474FF447
:1002800000000023914201D3891A034340084FEA3A
:100290004101F7D151B1914202D14FF0004105E047
:1002A00002D24FF0010101E06FF0010103EBC450F5
:1002B000284430BC00F03ABB2DE9FE4F804681EA6D
:1002C0000300C00F0C46009021F0004123F00045D0
:1002D000B8EB0200A94105D24046214690461C4693
:1002E0000B46024623F00040104347D0270DC7F3CA
:1002F0000A00C3F30A510290401A019040286BDAB9
:10030000C3F3130040F4801B0098924620B10023F1
:10031000D2EB030A63EB0B0B01985946C0F1400284
:10032000504600F084FA06460D4650465946019A5A
:1003300000F09CFA10EB08006141002487EA11529A
:1003400084EAE7731A4340D0009A62B3019A012A03
:100350004FEA075215DC001B61EB02014FF000422F
:1003600002EA0752CDE90042001C41F580113246F5
:100370002B4600F021FB03B0BDE8F08F404621463C
:10038000F9E7001B61EB0201001C41F58013001826
:100390005B412018A2F5001747EB030140EAD57036
:1003A000B6196D4111E06D084FEA360645EAC07591
:1003B0004FEA0752001B61EB0201001C41F580115E
:1003C00049084FEA30000019514132462B4603B02C
:1003D000BDE8F04F00F0E1BA009801224000002390
:1003E000D0EB020263EBE073009821464FEAE07421
:1003F000B8EB000061EB0401E9E783F000435BE741
:1004000081F0004158E72DE9FE4F81EA030404F032
:10041000004421F0004100944FF0000B23F0004312
:1004200050EA01045ED052EA03045BD0C3F30A54DD
:10043000C1F30A552C44A4F2F3340194A0FB0254F6
:10044000C1F3130141F48011C3F3130343F4801388
:1004500001FB024400FB034E840A970A44EA8154DC
:1004600047EA8357A4FB076802958D0A05FB0785B9
:100470004FEA932C04FB0C542705029D4FEA0658C3
:1004800047EA1637B5EB08056EEB070C870E920EA0
:1004900047EA811742EA8312A7FB0201B6EB0B0180
:1004A00064EB00042B0D43EA0C335E1844EB1C5044
:1004B000DA465146E7FB0201C5F313044FEA0B335A
:1004C00043EA14534FEA0432019C43EA0603A4F1C1
:1004D0000C040294009CCDE900B400F06DFA03B066
:1004E000BDE8F08F00200146F9E72DE9F04D81EAE3
:1004F000030404F0004B21F0004514464FF0000ABD
:1005000023F0004150EA050220D054EA01021DD038
:10051000C5F30A570246C5F31303C1F31300C1F331
:100520000A5640F4801543F48013A7EB0608101B0D
:10053000D64608F2FD3873EB050002D308F1010836
:1005400001E092185B41B8F1000F03DA0020014688
:10055000BDE8F08D00204FF48011064684460EE081
:10056000171B73EB050705D3121B63EB050306434B
:100570004CEA010C49084FEA300092185B4150EAFE
:100580000107EDD152EA030012D082EA040083EAA7
:100590000501084305D0101BAB4106D20122002300
:1005A00006E000224FF0004302E06FF0010253101A
:1005B0001AEB06004CEB085110EB0A0041EB0B0163
:1005C000BDE8F04D00F0E9B9C10F80EAE0700844E1
:1005D000CA079623002100F0B2B9962300221146E3
:1005E00000F0ADB90EB5C10F80EAE0700844CA074B
:1005F000002140F233438DE80E000A460B4600F01E
:10060000DBF903B000BD0EB540F233410291002189
:10061000CDE900110A460B4600F0CEF903B000BD4B
:1006200020F00040C10DC0F3160040F400007F2907
:1006300001DA00207047962903DCC1F19601C84019
:10064000704796398840704770B5C1F30A5201F07F
:1006500000450024C1F3130140F2FF3341F480113F
:100660009A4201DA002070BD40F233439A42A2F26E
:10067000334203DC524200F0E9F800E090402C43A2
:10068000F1D0404270BDC1F30A5210B5C1F313015D
:1006900040F2FF3341F480119A4201DA002010BD8C
:1006A00040F233439A42A2F2334203DC524200F05A
:1006B000CDF810BD904010BD00F0004230F0004079
:1006C0000AD0C10D01F56071C0F3160042EA015174
:1006D000C2084007114370470020014670470000E0
:1006E00030B5041E71F1000404DB4FF000444042B9
:1006F00064EB0101141E73F1000405DB1C464FF08E
:100700000043524263EB04038B4208BF824230BD78
:1007100030B5041E71F1000404DB4FF00044404288
:1007200064EB0101141E73F1000405DB1C464FF05D
:100730000043524263EB0403994208BF904230BD2C
:1007400001F0004330B421F0004150EA010206D02C
:100750000A0DA2F56072C1F31301002A02DC30BC5D
:1007600000207047440F44EAC104C100E01830BCC7
:1007700000EBC25000F0DAB8002801DBC0F1004005
:10078000002901DBC1F1004181427047002801DBF3
:10079000C0F10040002901DBC1F1004188427047EF
:1007A00030B50B46014600202022012409E021FA41
:1007B00002F59D4205D303FA02F5491B04FA02F53E
:1007C0002844151EA2F10102F1DC30BD2DE9F05FD5
:1007D0000546002092469B468846064681464024B0
:1007E0001BE0284641464746224600F02FF8534674
:1007F0005A46C01A914110D311461846224600F0BD
:1008000016F82D1A67EB01084F46224601200021F9
:1008100000F00DF817EB00094E41201EA4F1010471
:10082000DFDC484631462A464346BDE8F09F202A91
:1008300004DB203A00FA02F1002070479140C2F137
:10084000200320FA03F3194390407047202A04DB69
:10085000203A21FA02F00021704721FA02F3D04039
:10086000C2F120029140084319467047202A06DB56
:10087000CB17203A41FA02F043EAE07306E041FA6E
:1008800002F3D040C2F1200291400843194670475C
:100890000FB4002300B589B00CA900910B996FF03B
:1008A0000042CB601E4B06931E4B07930423CDE9F9
:1008B00001321D4A089202466B46002000F0D2F930
:1008C00009B05DF814FB70B586B006464FF0FF30F6
:1008D0000091CDE90101002015460C4604903246F6
:1008E000694604A8FFF7D4FF02460498211825B1F1
:1008F00008B1084600E020462860049800280DD082
:10090000002A02DD0098884208D0081B0094CDE937
:1009100001043246694604A8FFF7BAFF06B070BD6D
:100920009D0E0008BB0E0008310B00080029A8BF6F
:100930007047401C490008BF20F00100704710B408
:10094000B0FA80FC00FA0CF050EA010404BF10BCBD
:10095000704749B1CCF1200421FA04F411FA0CF1EA
:1009600018BF012121430843A3EB0C01CB1D4FEA23
:1009700000614FEA102042BF002010BC704700EB1E
:10098000C35010440029A4BF10BC7047401C49004C
:1009900008BF20F0010010BC704710B5141E73F1A1
:1009A000000408DA401C41F1000192185B411A432F
:1009B00001D120F0010010BD2DE9F04D92469B467B
:1009C00011B1B1FA81F202E0B0FA80F22032904621
:1009D000FFF72DFF04460F4640EA0A0041EA0B01EB
:1009E00053465A46084313D0114653EA010019D022
:1009F000C8F140025046FFF729FF05460E46504613
:100A000059464246FFF713FF084305D0012004E092
:100A100020463946BDE8F08D0020054346EAE076E1
:100A20002C4337430A986305E40AA0EB0800002230
:100A3000FD0A44EA47540A3002D500200146E9E79E
:100A4000010510196941DDE9084500196941BDE852
:100A5000F04DA2E72DE9FE4FC3F30A5701F0004520
:100A60000024C1F30A56C3F31303C1F3130143F483
:100A7000801312EB020AA64641F48011009543EB65
:100A8000030CA7F1010B16E0B0EB0A0061EB0C01BF
:100A9000071E71F1000707DA4FF00008D0EB0800DD
:100AA00085F0004568EB0101171A73EB0107EBD3E2
:100AB000761E001849415E45F6DA50EA010209D077
:100AC000CDE900E5002213460296FFF775FF03B05B
:100AD000BDE8F08F20460099F9E7C1F30A52C1F34F
:100AE000130140F2FF3341F480119A4202DA0020F0
:100AF0000146704740F233439A42A2F2334202DC8D
:100B00005242FFF7A3BEFFF792BE0000064C074D0E
:100B100006E0E06840F0010394E8070098471034CD
:100B2000AC42F6D3FFF7E6FAE83B0008083C0008C1
:100B3000C0B24FF4F05100F0E9B900002DE9FF4FC9
:100B4000087883B09946FF2805D0491C2D2804D089
:100B50000024002008E000200BE00124F9E700EB6E
:100B6000800003EB4000491C0B78FF2BF7D104B148
:100B7000404200230293147819461D462D2C01D0C3
:100B80002B2C04D1521C2D2C13D000240294AA46E5
:100B90001478FF2C0FD00A25A3FB057801FB0581F3
:100BA0004FF0000C03FB0C11521CE3194AEB01013E
:100BB000EEE70124EAE7814453EA010002D019F587
:100BC000C87F06DA03980021C0E9001107B0BDE82C
:100BD000F08F0025AE4E2F46DFF8B882184600F0A1
:100BE000A9F9CDE90001B9F1000002DAC9F1000468
:100BF00000E004460023A74A1AEB030B42EB045A19
:100C000012E0E00707D02A46334638464146FFF750
:100C1000FAFB074688462A46334610461946FFF730
:100C2000F2FB05460E466410002CEAD1DDE9000116
:100C3000B9F1000F5A46534606DAFFF756FC3A461A
:100C40004346FFF752FC05E0FFF7DDFB3A4643461B
:100C5000FFF7D9FB029A0AB181F00041039AC2E979
:100C60000001B3E72DE9FF4F1F468DB0D7E90146DC
:100C70004FF0FF382E2045464FF000090B90B96920
:100C80006D1C0E988847396A824688470028F6D13D
:100C9000BAF1FF3F0AD024F4D064002E11DDBAF17E
:100CA0002B0F08D0BAF12D0F0BD102E0404611B046
:100CB0008DE744F48064B9696D1C0E9888478246BC
:100CC000761E6946600501D52D2000E02B208DF8A9
:100CD000000001F1010B0DF1200809E0B9696D1C5C
:100CE0000E98884782460F9844F40074761E05607B
:100CF000002E02DDBAF1300FF0D00B998A453ED1BB
:100D000044F0800406E00F99681CA9F1010944F43D
:100D100000740860B9696D1C761E0E98884782467B
:100D20003028F0D02BE00B998A4505D1200603D45A
:100D300044F08004761E18E0504601F06DF908B3C7
:100D40000DF11301761E44F400748B4508D2AAF10C
:100D500030000BF8010B200607D5A9F1010003E0D4
:100D6000200602D409F101008146A00502D50F99A1
:100D7000681C0860B9696D1C0E9888478246002E71
:100D8000D1DC53E0002E51DDBAF1650F02D0BAF18B
:100D9000450F4BD1A00549D5B9696D1C24F44074A9
:100DA000761E0E9888478246002E0CDD2B2804D034
:100DB000BAF12D0F07D144F48074B9696D1C0E98F7
:100DC00088478246761EE00501D52D2100E02B21C3
:100DD00008F8011BCDF82C8021E00DF12901761EC9
:100DE00044F4007488450CD2AAF1300010F0FF00E2
:100DF00088F8000002D10B99884509D908F101084B
:100E000006E0E00501D5244801E042F20F7081467A
:100E1000B9696D1C0E98884782460F980560002EB0
:100E200004DD504601F0F8F80028D6D1F9690E9893
:100E30008847FF208BF8000088F80000002006900B
:100E400007904B466A4608A906A8FFF777FEA0055B
:100E500002D46FF001002AE714F0240F0AD0E00753
:100E600014D1DDE906123868031D3B600068C0E953
:100E700000120BE0DDE90601FFF762FC0146E00726
:100E800004D13868021D3A600068016028460EE708
:100E9000000014400000F03FF1D8FFFF426842B16B
:100EA000016811F8013B23B1521EC0E90012184637
:100EB00070470121C160881E704742685AB1C368FB
:100EC000016843B983688B4205D0491E521CC0E9B2
:100ED0000012002070474FF0FF30704770B521F0CE
:100EE000004303430CD0C1F30A550024D5EB04059D
:100EF00064EB0403D617AD1AB34102DB00200146B0
:100F000070BD201841EB025170BD00007F2801D94F
:100F1000002208E0064A02EB5002C007127800D116
:100F2000120902F00F0201209040084070470000B3
:100F3000A83B00080EB540F2334202920022CDE9F0
:100F400000221346FFF738FD03B000BD00BFFEE7E7
:100F50007047000008B501211D2000F069F901214A
:100F6000144800F0B9F84FF40050ADF8000010201C
:100F70008DF8030001208DF8020069460E4800F04C
:100F80001FF84FF400510C4800F0F0F84FF40070D7
:100F9000ADF8000010208DF8030001208DF802004C
:100FA0006946064800F00CF84FF40071034800F061
:100FB000DBF808BD0002300000100140000C0140C9
:100FC0002DE9F041024600250026002000230024E0
:100FD000002791F803C00CF00F0591F803C00CF046
:100FE000100CBCF1000F03D091F802C04CEA0505CB
:100FF00091F800C0BCF1000F31D0146800202BE044
:101000004FF0010C0CFA00F3B1F800C00CEA030633
:101010009E4220D183004FF00F0C0CFA03F7BC4323
:1010200005FA03FC4CEA040491F803C0BCF1280F54
:1010300006D14FF0010C0CFA00FCC2F814C00AE013
:1010400091F803C0BCF1480F05D14FF0010C0CFA28
:1010500000FCC2F810C0401C0828D1D31460B1F8BD
:1010600000C0BCF1FF0F34DD546800202EE000F119
:10107000080C4FF0010808FA0CF3B1F800C00CEAB4
:1010800003069E4221D183004FF00F0C0CFA03F7A8
:10109000BC4305FA03FC4CEA040491F803C0BCF11C
:1010A000280F05D100F1080C08FA0CF8C2F81480DA
:1010B00091F803C0BCF1480F07D100F1080C4FF0C4
:1010C000010808FA0CF8C2F81080401C0828CED39A
:1010D0005460BDE8F0810000F0B50A46002300240A
:1010E0000021002500F00046B6F1004F02D11D4E50
:1010F000F16901E01B4E7168C0F3034583B200F44F
:101100004016B6F5401F08D121F07061154E766883
:1011100026F07066134F7E6012E000F48016B6F57C
:10112000801F06D1032606FA05F4A14341F0706141
:1011300006E0460D360103FA06F6B14341F0706150
:1011400022B1460D360103FA06F6314300F000469F
:10115000B6F1004F02D1034EF16101E0014E716022
:10116000F0BD00000000014041617047016170471F
:1011700000BFFEE700BFFEE77047000070B500212A
:1011800000230F22C47804B3154C246804F4E064EF
:10119000C4F5E064210AC1F10403CA40447804FAAA
:1011A00003F184781440214309010E4C0678A155BF
:1011B000047804F01F050124AC4005786D11AD00E2
:1011C00005F1E025C5F8004109E0047804F01F05A9
:1011D0000124AC40044D0678761145F8264070BDD8
:1011E0000CED00E000E400E080E100E0704700006A
:1011F00029B1064AD2690243044BDA6104E0034A8A
:10120000D2698243014BDA6170470000001002404E
:1012100029B1064A12690243044B1A6104E0034AE9
:1012200012698243014B1A617047000000100240AE
:1012300029B1064A92690243044B9A6104E0034AC9
:1012400092698243014B9A6170470000001002408E
:1012500029B1064AD2680243044BDA6004E0034A2B
:10126000D2688243014BDA607047000000100240F0
:1012700030B500210022002400232D4D6D6805F0BB
:101280000C0121B1042905D0082923D105E0294DFD
:10129000056022E0274D05601FE0254D6D6805F4CF
:1012A0007012234D6D6805F48034022505EB9242DF
:1012B0001CB9214D554305600BE01D4D6D6805F4CB
:1012C00000351DB11C4D5543056002E0194D5543D5
:1012D000056002E0174D056000BF00BF144D6D684A
:1012E00005F0F0010909154D6B5C0568DD404560AE
:1012F0000F4D6D6805F4E061090A104D6B5C45689F
:10130000DD4085600A4D6D6805F46051C90A0B4DDA
:101310006B5C4568DD40C560054D6D6805F4404176
:10132000890B074D6B5CC568B5FBF3F5056130BDF6
:101330000010024000127A0000093D000000002069
:1013400010000020704710B500F002F810BD00003A
:101350000CB50020019000903348006840F48030C4
:101360003149086000BF3048006800F40030009048
:101370000198401C0190009818B90198B0F5A06F31
:10138000F1D12948006800F4003010B1012000902C
:1013900001E0002000900098012843D12348006814
:1013A00040F01000214908600846006820F0030062
:1013B00008600846006840F0020008601A4840686B
:1013C000194948600846406848600846406840F44B
:1013D000806048600846406820F47C1048600846F9
:1013E000406840F4E81048600846006840F08070AB
:1013F000086000BF0C48006800F000700028F9D0B9
:101400000948406820F003000749486008464068E2
:1014100040F00200486000BF0348406800F00C0044
:101420000828F9D10CBD0000001002400020024045
:101430007047000010B51348006840F001001149E2
:10144000086008464068104908400E494860084650
:1014500000680E4908400B4908600846006820F4FF
:10146000802008600846406820F4FE0048604FF481
:101470001F008860FFF767FF4FF0006004490860B5
:1014800010BD0000001002400000FFF8FFFFF6FE54
:1014900008ED00E000B589B001210420FFF7C8FE87
:1014A00001210846FFF7A4FE0720ADF82000182010
:1014B0008DF8230003208DF8220008A92448FFF7A7
:1014C0007FFD4FF0804000F0A1F80020ADF814003F
:1014D00040F29F50ADF818002020ADF81600002013
:1014E000ADF81A0005A94FF0804000F0B3FA602073
:1014F000ADF804000120ADF806000020ADF80A00A8
:10150000ADF80C0001A94FF0804000F08DF901A961
:101510004FF0804000F0DEF901A94FF0804000F06C
:1015200039FA0821C80600F0CBF90821C80600F0F6
:1015300023FA0821C80600F07DFA0121880700F08F
:1015400049F80121880700F054F809B000BD0000F7
:10155000000801401FB501210420FFF749FE1E20AD
:101560008DF8000001208DF803006846FFF706FEA5
:1015700040F2E730ADF808004720ADF80400002045
:10158000ADF80600ADF80A0001A9064800F062FABD
:1015900001221146034800F03EF90121014800F004
:1015A00028F81FBD0008004010B50121074800F0D1
:1015B00021F9012804D106480068401C044908604C
:1015C0000121024800F012F810BD000000080040A0
:1015D0006800002021B1028842F08002028004E00D
:1015E00002884FF67F731A4002807047CA43028216
:1015F000704721B1028842F00102028004E00288B3
:101600004FF6FE731A4002807047000010B5044682
:101610006848844208D10121C014FFF719FE002157
:10162000E014FFF715FEC4E0B4F1804F08D10121AA
:101630000846FFF7EDFD00210120FFF7E9FDB8E0C6
:101640005D48844208D101210220FFF7E1FD00211D
:101650000220FFF7DDFDACE05848844208D10121AB
:101660000420FFF7D5FD00210420FFF7D1FDA0E005
:101670005348844208D101210820FFF7C9FD002109
:101680000820FFF7C5FD94E04E48844208D10121AF
:101690001020FFF7BDFD00211020FFF7B9FD88E005
:1016A0004948844208D101212020FFF7B1FD0021E3
:1016B0002020FFF7ADFD7CE04448844208D10121A1
:1016C0004014FFF7C5FD00216014FFF7C1FD70E075
:1016D0003F48844209D10121C804FFF7B9FD002128
:1016E0004FF40020FFF7B4FD63E03A48844209D18B
:1016F00001210805FFF7ACFD00214FF48010FFF732
:10170000A7FD56E03448844209D101214805FFF77E
:101710009FFD00214FF40010FFF79AFD49E02F488C
:10172000844208D101214020FFF772FD00214020B2
:10173000FFF76EFD3DE02A48844208D10121802058
:10174000FFF766FD00218020FFF762FD31E02548AC
:10175000844208D101218015FFF75AFD0021A01510
:10176000FFF756FD25E02048844209D101210804F5
:10177000FFF76EFD00214FF48030FFF769FD18E0A0
:101780001A48844209D101214804FFF761FD002174
:101790004FF40030FFF75CFD0BE01548844208D1A0
:1017A00001218804FFF754FD00214FF48020FFF74A
:1017B0004FFD10BD002C0140000400400008004017
:1017C000000C0040001000400014004000340140B4
:1017D000004C0140005001400054014000180040FE
:1017E000001C004000200040004001400044014037
:1017F0000048014030B50246002000230024158A2D
:1018000005EA0103958905EA010413B10CB1012031
:1018100000E0002030BD1AB183890B43838102E0D0
:1018200083898B438381704770B500240022002395
:10183000058C4FF6FE7635400584028C8388048B38
:101840004FF68F752C40B51E2C400D882C43751E0D
:101850002A400D892A434D882A43144DA8420BD0B3
:10186000134DA84208D0134DA84205D0124DA842EE
:1018700002D0124DA84213D14FF6F7752A404D8978
:101880002A434FF6FB752A408D882A434FF6FF65A1
:101890002B404FF6FF552B408D892B43CD892B4391
:1018A00083800483CD888586028470BD002C01402E
:1018B0000034014000400140004401400048014024
:1018C0000A460021018B4FF6F7731940114301833B
:1018D0007047000070B5002400220023058C4FF6ED
:1018E000EF7635400584028C8388048B48F6FF75BB
:1018F0002C404FF6FF452C400D884FF6FF7606EA48
:1019000005252C434FF6DF752A400D8906EA05159B
:101910002A434D8806EA05152A43154DA84202D0F0
:10192000144DA8421DD14FF67F752A404D894FF6C0
:10193000FF7606EA05152A434FF6BF752A408D88C3
:1019400006EA05152A434FF6FF352B404FF2FF7587
:101950002B408D8906EA85052B43CD8906EA85054E
:101960002B4383800483CD880587028470BD0000EB
:10197000002C0140003401400A460021018B4FF247
:10198000FF7319404FF6FF7303EA022319430183E3
:101990007047000070B5002400220023058C4FF62C
:1019A000FF6635400584028C8388848B4FF68F75E3
:1019B0002C404FF6FC752C400D882C434FF6FF55FC
:1019C0002A400D894FF6FF7606EA05252A434D8801
:1019D00006EA05252A43154DA84202D0144DA84217
:1019E0001DD14FF2FF752A404D894FF6FF7606EA6A
:1019F00005252A434FF6FF352A408D8806EA05253E
:101A00002A434EF6FF752B404DF6FF752B408D890E
:101A100006EA05152B43CD8906EA05152B4383807D
:101A20008483CD888587028470BD0000002C01402E
:101A3000003401400A460021818B4FF6F7731940AC
:101A40001143818370478186704701877047818782
:101A500070470000002202881D4B98420ED01D4B9B
:101A600098420BD0B0F1804F08D01B4B984205D064
:101A70001A4B984202D01A4B984204D14FF68F73FA
:101A80001A404B881A43174B984207D0164B98427E
:101A900004D04FF6FF431A40CB881A4302808B884C
:101AA00083850B8803850A4B98420BD0094B9842DB
:101AB00008D00E4B984205D00D4B984202D00D4BEA
:101AC000984201D10B7A038601238382704700007C
:101AD000002C014000340140000400400008004098
:101AE000000C004000100040001400400040014085
:101AF000004401400048014010B540F22551204803
:101B000000F050F800283AD01D4800F007F9C4B2A0
:101B10001C48008800F40040F8B91A48008800F416
:101B2000804090B10A2C03D000201649088026E09E
:101B30001448008840F400401249088000200988B9
:101B4000C1F30D01104A505419E00D2C06D10D4877
:101B5000008840F480400B49088010E00948008864
:101B6000C0F30D0008490C5406480088401C054984
:101B7000088008460088FF2801DD0020088010BD8D
:101B800000380140180000207000002021B1828937
:101B900042F40052828104E082894DF6FF731A40BC
:101BA0008281704770B50246002400230025002082
:101BB00040F66A16B14200D100BFC1F3421501F0F0
:101BC0001F03012606FA03F3012D02D19689334043
:101BD00006E0022D02D1168A334001E0968A334096
:101BE0000C12012606FA04F41688344013B10CB125
:101BF000012000E0002070BDF0B50346002400265F
:101C00000025002040F66A17B94200D100BF1846EF
:101C1000C1F3421401F01F06012707FA06F5012C53
:101C200001D10C3004E0022C01D1103000E014305E
:101C30001AB107682F43076002E00768AF430760E7
:101C4000F0BD00002DE9F04786B005460E460024A1
:101C5000A24600BFA1460027B08900B100BF2F46B1
:101C60002C8A4CF6FF700440F08804432C82AC8927
:101C70004EF6F3100440B088318908437189084357
:101C80000443AC81AC8A4FF6FF400440B089044362
:101C9000AC8201A8FFF7ECFA1F48874202D1DDF8B9
:101CA00010A001E0DDF80CA0A88900F4004040B1CC
:101CB0000AEBCA0000EB0A1031684900B0FBF1F8EA
:101CC00007E00AEBCA0000EB0A1031688900B0FB9C
:101CD000F1F86420B8FBF0F004012009642101FB55
:101CE0001089A88900F4004040B1322000EBC900FF
:101CF000B0FBF1F000F00700044308E0322000EBF5
:101D000009106421B0FBF1F000F00F0004432C81B6
:101D100006B0BDE8F0870000003801400146888821
:101D2000C0F30800704700BFFEE700000FB4054B8A
:101D300010B503A9044A029800F0A0F910BC5DF8A0
:101D400014FB0000F530000814000020490050EAA0
:101D5000C12018BF04204A0D18BF40F0010040F216
:101D6000FF72B2EB515F08BF40F00200012808BFCC
:101D7000052070472DE9F0414F1E00EBC7010446D6
:101D8000D1E9000115461E4637F006020DD02A465D
:101D90003346FEF738FB7F1E04EBC703D3E900236D
:101DA000FEF78AFA37F00602F1D1022F25D0042F70
:101DB00013D0062F18BFBDE8F0812A463346FEF740
:101DC00022FBD4E90A23FEF777FA2A463346FEF7C8
:101DD0001AFBD4E90823FEF76FFA2A463346FEF7CA
:101DE00012FBD4E90623FEF767FA2A463346FEF7CC
:101DF0000AFBD4E90423FEF75FFA2A463346FEF7CE
:101E000002FBD4E90223FEF757FA2A463346FEF7CF
:101E1000FAFAD4E90023BDE8F041FEF74DBA0122F9
:101E2000FFF75CB8FEF748BA002213461046114689
:101E3000FEF75BBB024A00201107FFF74FB8000016
:101E400001FDFFFF01480068704700006C000020A2
:101E500002E008C8121F08C1002AFAD17047704773
:101E6000002001E001C1121F002AFBD170470000D1
:101E700001490860704700006C00002070B50446FE
:101E80000D462846FEF7A0FB06462146FEF7A4F9BC
:101E900070BD00002DE9FF5F82B00021DDE9043054
:101EA000020DDDF840B0034318D044F61050A2F202
:101EB000FF3242431514119801281FD0A5EB0B00E7
:101EC000401C5FEA000A4FF000064E4FDFF83891E1
:101ED000B046504615D5CAF1000413E0119801240C
:101EE0004AA3012801D16FEA0B010298119AC0E9B7
:101EF0000031C0E9024206B0BDE8F09FCBF100001E
:101F0000DFE704460021404A491842EB0450CDE97E
:101F1000001012E0E00707D032463B4640464946F3
:101F2000FEF771FA8046894632463B46104619460E
:101F3000FEF769FA06460F466410002CEAD1DDE987
:101F40000401DDE90023BAF1000F06DAFEF75BFABF
:101F500042464B46FEF757FA05E0FEF7C6FA424600
:101F60004B46FEF7C2FA04460E460022284BFEF707
:101F7000CFFB03D84FF0FF30014607E00022254B8E
:101F800020463146FEF798F9FEF7A7FD102409E038
:101F9000002C0ADB0A220023FEF718FC039B3032D8
:101FA0001A55641E50EA0102F2D1641C039AC4F16E
:101FB00011031444119A012A03D0012208430DD1C0
:101FC0000AE0084304D000204FF0110B119072E793
:101FD000A3EB0B056D1E0DE05B4504DD4FF0000229
:101FE00005F1010504E003DA4FF00002A5F1010557
:101FF000002AECD002981199C0E90231C0E90045ED
:1020000079E70000000014400000F03F30000000BD
:102010000000F0430000E03F30380A2801D20120E0
:1020200070470020704700002DE9F0470646304613
:10203000FEF742FB07460F4A0F4B01F011F804462A
:10204000FEF77EFB814600214846FEF79FFB03D842
:102050004846FEF731FB07E04846FEF72DFB0746F2
:10206000044A054BFEF728F90446FEF769FBBDE874
:10207000F0870000EA2E4454FB2119402DE9FF4F60
:1020800095B09A46884606460025EEE1252877D188
:1020900000242746F94A0121039400E0044316F87E
:1020A000013F203B01FA03F01042F7D130782A2893
:1020B00011D06FF02F033078A0F13002092A16D822
:1020C000039A44F0020402EB820203EB4202104442
:1020D000761C0390EFE758F8042B0392002A03DAEA
:1020E000504244F40054039044F00204761C3078CB
:1020F0002E2816D116F8010F44F004042A280DD01A
:102100006FF02F023078A0F13003092B09D807EBCC
:10211000870302EB4303C718761CF3E758F8047BE8
:10212000761C30786C280FD006DC4C2817D0682835
:102130000DD06A2814D104E0742810D07A280FD169
:102140000DE044F400140AE044F4801401E044F487
:1021500040147278824202D104F58014761C761CF9
:10216000307866280BD013DC582877D009DC00289B
:1021700075D04528F6D04628F4D047281AD193E1E7
:1021800018E0632835D0642879D0652812D18BE116
:10219000702873D008DC6728F1D069286FD06E28CA
:1021A0000DD06F2806D1ACE073282CD0752874D0E0
:1021B000782853D05246179990476D1C54E1C4F3C8
:1021C0000250022809D003280DD0D8F800100428A6
:1021D0000DD00D6008F1040846E1D8F80010EA17A8
:1021E000C1E90052F6E7D8F800100D80F2E70D7053
:1021F000F0E718F8041B8DF8001000208DF801009E
:10220000EB46012003E058F804BB4FF0FF306107B4
:102210004FF0000102D40DE009F101018946B942F5
:102220000FDA8145F8DB1BF809100029F4D108E02A
:1022300009F1010189468142FADB1BF809100029E6
:10224000F6D103985346A0EB090721463846179A62
:1022500000F080FA284400EB090507E044E008E1BB
:102260000DE01BF8010B524617999047B9F101098F
:10227000F7D2534621463846179AF2E039E00A2150
:10228000C4F302524FF0000B0091022A06D058F816
:10229000040BC117032A09D00AE023E008F1070064
:1022A00020F00702F2E80201904605E000B2C117F3
:1022B000042A01D140B2C117002906DA0A460021DA
:1022C000404261EB02012D2202E0220504D52B22BF
:1022D0008DF80420012203E0E20701D02022F7E775
:1022E000914657E00A2100E010214FF0000B0091C9
:1022F0000BE010214FF0000B44F00404082700917C
:1023000003E008204FF0000B0090C4F30252022AB1
:1023100005D058F8040B0021032A08D008E008F182
:10232000070020F00702F2E80201904603E080B2C5
:10233000042A00D1C0B24FF0000922072AD5327812
:10234000702A07D0DDF800C08CF0100C5CEA0B0C92
:1023500005D00EE040228DF80420012208E050EA6A
:10236000010306D030238DF804308DF805200222B9
:102370009146009B83F0080353EA0B030AD150EA0D
:10238000010201D1620705D530228DF804204FF0FB
:1023900001097F1E3278582A04D039A20C920CAA67
:1023A00002920BE03BA2F9E75B46009AFEF70EFAB9
:1023B0000C9B9B5C029A521E0292137050EA01021F
:1023C000F2D1029804A9081A00F1200B600702D587
:1023D00024F4803400E001275F4502DDA7EB0B0009
:1023E00000E0002000EB0B01009003984944401AE4
:1023F0000390E00306D453462146179A039800F051
:10240000A9F90544002706E001A85246C05D1799C6
:1024100090476D1C7F1C4F45F6DBE0030CD55346FF
:102420002146179A039800F095F9054404E03020FE
:102430005246179990476D1C0099481E009000293C
:10244000F5DC08E00298029952460078491C029196
:10245000179990476D1CBBF10001ABF1010BF1DC4A
:102460005BE100F065F90544761C307800287FF4C4
:102470000DAE19B02846BDE8F08F00000928010014
:1024800030313233343536373839616263646566EA
:1024900000000000303132333435363738394142AC
:1024A0004344454600000000600700D4062708F1B9
:1024B000070020F00700F0E80223804603F0004CFC
:1024C0005FEA0C0001D097A009E0200501D596A095
:1024D00005E0E00701D095A001E0AFF24C001390B9
:1024E000307823F0004365280CD006DC452809D05D
:1024F00046281DD047287FD13BE0662818D06728A2
:102500007AD136E00021112F01DB112000E0781C88
:10251000CDE9000104A90CA8FFF7BCFCDDE90D0121
:102520000C9A4FF0000B07F10109109200914EE058
:102530004FF000400097CDE9011004A90CA8FFF767
:10254000A9FCDDE90D020C9B0F994FF0000B9146A1
:102550001093009211B9791C00EB0109B7EB090047
:1025600003D4C0F1FF3B07F10109A9EB070001907B
:1025700042E0012F00DA01270021112F01DD112097
:1025800000E03846CDE9000104A90CA8FFF782FC61
:10259000DDE90D010C9A00914FF0000BB946109245
:1025A00021070FD4009A4A4503DA914601E0A9F1C8
:1025B0000109B9F1010F05DD109AA9F10101515C82
:1025C0003029F4D0B84202DA10F1040F03DA012105
:1025D000CDE9011010E0002803DC8344A9EB0001E1
:1025E00002E0411C494500DD8946A0EB0B00401C80
:1025F00001904FF000400290200705D40198484513
:1026000002DB4FF0FF30019000208DF84B00029864
:102610000DF14B07B0F1004F25D002200C902B207C
:102620000D90029800280CDA404202902D200D9067
:1026300007E00A210298FEF7B3F83031029007F85C
:10264000011D0C99481E0C900029F2DC029800280C
:10265000EFD1791E0D980870307800F0200040F01E
:10266000450007F8020D11A8C01BC01D0290139869
:10267000007800B1012000EB0901019801EBE07145
:10268000029801440398401A401E0390E00306D4C8
:1026900053462146179A039800F05CF805441398B6
:1026A000007818B15246179990476D1CE00323D566
:1026B00053462146179A039800F04CF805441BE056
:1026C000BBF1000F07DB0098584504DD10981799FF
:1026D00010F80B0001E017993020524690470198FE
:1026E0000BF1010B401E05F10105019004D12E20D4
:1026F0005246179990476D1CB9F10001A9F10109E3
:10270000DEDC05E017F8010B5246179990476D1C67
:102710000299481E02900029F4DC53462146179A7C
:1027200003989EE62D0000002B0000002000000012
:102730002DE9F041044600251E461746880404D4BE
:1027400005E039462020B0476D1C641EF9D52846A7
:10275000BDE8F0812DE9F041044600251E46904673
:10276000C80301D5302700E02027880404D505E000
:1027700041463846B0476D1C641EF9D52846BDE871
:10278000F08100002DE9FF5F83465846FDF794FF76
:102790000446954A954BFDF7A3FF44D25846FDF7F2
:1027A0008BFF934A934BCDE90201FDF72CFE804647
:1027B00000221346FDF7ACFF12D85846FDF77CFF08
:1027C00080468B4A8B4BFDF71EFE00228A4BCDE9DB
:1027D0000001FDF771FDCDE90201FDF735FF11E0C4
:1027E0005846FDF769FF824A824BCDE90001FDF7AB
:1027F0000AFE0022804BCDE90201FDF7FEFD804676
:10280000FDF722FF7D4951F820A05046FDF7EAFE72
:1028100006467B4A7B4BFDF7F6FD0446FDF790FF2D
:1028200004B0BDE8F09F5846FDF746FF0446764ADF
:10283000764BFDF755FF44D25846FDF73DFF6C4AF5
:102840006C4BCDE90201FDF7DEFD80460022134608
:10285000FDF75EFF12D85846FDF72EFF644A654B20
:10286000CDE90001FDF7CFFD0022634BCDE9020168
:10287000FDF722FD8046FDF7E7FE11E05846FDF723
:102880001BFF5B4A5B4BCDE90001FDF7BCFD00225D
:10289000594BCDE90201FDF7B0FD8046FDF7D4FEAE
:1028A000C0F5C770554951F820A05046FDF79AFE73
:1028B0000646534A534BFDF7A6FD0446FDF740FF7D
:1028C000AEE75846FDF7F8FE0446514A514BFDF776
:1028D00007FF44D25846FDF7EFFE454A454BCDE988
:1028E0000201FDF790FD804600221346FDF710FF20
:1028F00012D85846FDF7E0FE3D4A3E4BCDE90001B7
:10290000FDF781FD804600223B4BFDF7D5FCCDE96C
:102910000201FDF799FE11E05846FDF7CDFE344A5D
:10292000344BCDE90001FDF76EFD80460022324BAD
:10293000FDF763FDCDE90201FDF786FEA0F5C77046
:102940002E4951F820A05046FDF74CFE06462C4A71
:10295000314BFDF758FD0446FDF7F2FE60E758469F
:10296000FDF7AAFE8046224A224BFDF74CFD0022CD
:102970001346CDE90201FDF7CBFE12D85846FDF70C
:102980009BFE1B4A1B4BCDE90001FDF73CFD804639
:102990000022194BFDF790FCCDE90201FDF754FE32
:1029A00011E05846FDF788FE8046114A114BFDF7AD
:1029B0002AFD0022104BCDE90001FDF71EFDCDE9F7
:1029C0000201FDF741FEC0F547700C4951F820A007
:1029D0005046FDF707FE0646094A0F4BFDF713FD6B
:1029E0000446FDF7ADFE1BE7F4D64354FB21F93F47
:1029F0009CA223B9FCAB5F400000E03FE437000835
:102A00002D431CEBE2361A3FEA2E4454FB210940C9
:102A1000320D337F7CD91240E2361ABF70B50446BE
:102A200025462E460448A0EB660635462946204634
:102A3000FDF7D2FB70BD0000865A375F2DE9FC5FC1
:102A400006464FF0E020846950480068844215D261
:102A50004E490968081BFDF7C0FD4D490090FDF780
:102A6000EDFB0190FDF728FE82464A4A4A4BFDF7EE
:102A7000CAFC0746FDF764FE054617E06FF07F418C
:102A8000091B424A12688818FDF7A7FD40490090CB
:102A9000FDF7D4FB0190FDF70FFE07463D4A3E4B84
:102AA000FDF7B1FC8246FDF74BFE05463748046052
:102AB00000212846FDF760FE08D02846FDF7FCFD02
:102AC00007460022354BFDF723FE00D2344D294640
:102AD00034480068FDF780FB0190FDF7EDFD0746E7
:102AE0008846314801683046FDF770FB0190FDF7DC
:102AF000E3FD21F0004182463A464346FDF708FED9
:102B00002FD2294801683046FDF760FB0021019073
:102B1000FDF732FE02D24FF0FF300CE02248016890
:102B20003046FDF753FB00210190FDF72FFE01D247
:102B3000012000E000208346FDF746FD824619484B
:102B400001685046FDF748FB80462946FDF744FBE7
:102B50000746154801683846FDF7E6FA124908604D
:102B600001E0114806601148D0F800901048016853
:102B70000D480068FFF782F907463A4600214846AB
:102B800000F042FB4846BDE8FC9F00005C000020CE
:102B9000000010418DEDB5A0F7C6B03E0000E03F4B
:102BA0006F12833A600000201C00002054000020B7
:102BB000580000202DE9F84F04460D4621F0004052
:102BC00000917349814211DC7249884201DC06D1CF
:102BD0002CB120462946BDE8F84FFFF720B96E48D2
:102BE000002DCCBF6D496E49BDE8F88F6D4981421B
:102BF00011DD6D498142D8BF4FF0FF366DDD2046B3
:102C00002946FFF7A3F8042808BFFFF713F9204669
:102C10002946BDE8F88F6549654F25F0004581429A
:102C200033DD6449814219DD002632464FF080438E
:102C300020462946FDF740FB80468A460122204671
:102C40002946FEF74BF900223B46FDF7D6FB4246EC
:102C50005346FDF74AFC04460D463EE0012600229D
:102C6000BA463B4620462946FDF726FB80460F46DE
:102C70000022534620462946FDF7BFFB42463B460D
:102C8000FDF733FC04460D4627E04B4981421BDD2E
:102C9000DFF828A102260022534620462946FDF7E8
:102CA000B2FB00223B46FDF707FB80460F460022A1
:102CB000534620462946FDF7A0FB42463B46FDF71A
:102CC00014FC04460D4608E0032622462B4600204D
:102CD0003B49FDF70AFC04460D4622462B461046AA
:102CE0001946FDF790FB8B46824602460B46FDF7E0
:102CF0008AFB07460246334888460B46062178443D
:102D0000FFF738F852465B46FDF77DFB82462E48BA
:102D10008B463A46434605217844FFF72BF83A465E
:102D20004346FDF770FB02460B46002E50465946BF
:102D30000CDAFDF7C1FA22462B46FDF764FB01B021
:102D400022462B46BDE8F04FFDF75ABBFDF7B4FA1B
:102D500022462B46FDF757FB1C4A7A4402EBC6037A
:102D6000D3E90023FDF749FB22462B46FDF745FB3F
:102D7000174A7A4402EBC603D3E90023FDF740FB70
:102D8000009A002AB8BF81F00041BDE8F88F00002A
:102D9000000010440000F07F182D4454FB21F93F3F
:102DA000FB21F9BF0000DC3F0000203E0000F33FA4
:102DB0000000F03F0000E63F008003400000F83FC5
:102DC0000000F0BF6E0E00002C0E0000CA0D0000C7
:102DD000920D00002DE9F04D9446CCF1000423F053
:102DE00000464CEA0404594F46EAD4749A46884691
:102DF00021F00042BC4206D8454240EA050442EABE
:102E0000D474BC4204D9BDE8F04D6246FFF70AB85D
:102E1000AAF14055A5F17F6555EA0C040BD00224B8
:102E200004EAAA744A4DDFF82CE144EAD87452EA65
:102E3000000B04D00CE0BDE8F04DFFF7BBBE002C4A
:102E400014BF012CBDE8F08D022C30D0032C32D001
:102E500056EA0C0B0AD0BE4220D1BA4209D126F064
:102E6000804622F080423346114617E000291ADBE3
:102E700025E0DFF8E4B0FB44002C04BFDBE90001EF
:102E8000BDE8F08D012C02BFDBE9000181F00041BB
:102E9000BDE8F08D022C0AD0032C0CD0BA4212D11E
:102EA000B8F1000F0BDA2A482C49BDE8F08D28460E
:102EB0002B49BDE8F08D28467146BDE8F08D2448C9
:102EC0002849BDE8F08D921B12153C2AC4BF204F43
:102ED000244E10DCBAF1000FBEBF12F13C0F0027E8
:102EE0003E4608DB6246FDF700FB21F00041FFF79C
:102EF00061FE07460E4694B1012C08BF86F00046DD
:102F00000DD0194A194B022C3846314615D0FDF721
:102F100074FA2A46BDE8F04D114BFDF76EBA002257
:102F2000134638463146FDF7DBFB04BF0220FEF7AF
:102F30009FFF38463146BDE8F08DFDF75EFA2A4620
:102F4000BDE8F04D064BFDF75BBA00000000F07FD6
:102F5000182D4454FB2109C0260D0000FB21F9BFA8
:102F6000FB210940FB21F93F075C143326A6A13C55
:102F700030B583B00446FEF765FF05460020CDE975
:102F80000000024621466846FDF79DFC2846FEF7F4
:102F90006FFFDDE9000103B030BD000070B51448DB
:102FA000008800F4004010B312480078482802D08E
:102FB000542818D103E010A0FEF7B8FE13E00D4826
:102FC000401CFFF7D5FF0446FDF7BAFB0E49086029
:102FD00008460068FDF770FB044622460B460BA02E
:102FE000FEF7A4FE00BF00BF00200149088070BDAD
:102FF000180000207000002048656C6C6F20576F2F
:10300000726C64210D0A00006400002052583D25B6
:103010002E34660D0A000000014642F228324A436F
:103020004FF0E0235A6100229A611A46126942F079
:1030300001021A6100BF4FF0E022106900F00102A6
:103040001AB100F48032002AF5D04FF0E022126964
:1030500022F001024FF0E0231A6100229A617047CA
:1030600070B514461D460E46002814BF01210021EC
:10307000314321F00041C1F17F6101F1E041C90F0D
:1030800016D1002C14BF01210021294321F0004159
:10309000C1F17F6101F1E041C90F09D11449B1EBE0
:1030A000460F08BF00281CD0690008BF002C18D0AC
:1030B0003146FDF7CFFC024640F2FF7030EA115076
:1030C0000DD0F017B0EBE17F09D0084665F31E0084
:1030D00084460B4620466146FDF792F902461046AB
:1030E00070BD0120FEF7C4FEBDE87040FEF79CBE37
:1030F0000000E0FF00BF054A128802F04002002AEB
:10310000F9D0C2B2014B1B1D1A8070470038014034
:10311000FDF720FF4FF4E13000F098FAFEF7BAF91E
:10312000FEF718FA4FF47A70FFF776FF1448154946
:1031300008604FF07E501449086014481449086034
:103140000320144908700720134908604FF40071E8
:103150001248FEF70BF812A0FEF7E8FD00F06AFA3D
:103160000CE013480068C82802D30020104908600A
:103170001048006800F020F8FFF710FFF1E70000AA
:103180000000404150000020540000200000A041F9
:10319000600000204500002058000020000C014085
:1031A0004D6F746F722072656164792E0D0A000094
:1031B000680000206400002010B504460E48007826
:1031C000032802D0042814D109E00C4804600068E8
:1031D00000F08CFA0A4948600020086009E00948BC
:1031E00004600068FFF72AFC054948600020086079
:1031F00000BF00BF10BD0000450000202C000020D3
:1032000034000020300000202DE9F74F96B08246B0
:103210008B4600215846FDF7AFFA38D0514650464C
:10322000FCF7DAFF594611905846FCF7D5FF10908D
:103230001199FCF779FF1290FFF7F0FB1390EF481C
:1032400001681398FCF7FAFF80465846FDF734FAF8
:10325000CDE90A015046FDF72FFACDE90801DDE975
:103260000A23FFF7B7FDCDE90E011898FDF724FA00
:10327000CDE90C01DDE90E23FDF71EF8CDE91001C3
:10328000FDF75EFA1390FEF7CFFE189016E0DB48CC
:1032900001685046FCF7D2FF80461898FDF70CFAFB
:1032A000D74AD84BCDE90E01FDF706F8CDE910015C
:1032B000FDF746FA1390FEF7B7FE18904046FDF76B
:1032C000FBF9D14AD14BCDE91201FDF721FA01D228
:1032D000DFF83C834046FDF7EFF9CB4ACD4BCDE913
:1032E0001201FDF7FDF901D2DFF82C831898FDF7E4
:1032F000E3F9CA4ACA4BCDE90E01FDF7F6F8002200
:10330000C84BCDE91001FCF7D7FFCDE91201FDF75D
:10331000BAF907464046FDF7CFF9CDE910011898F4
:10332000FDF7CAF9CDE906013846FDF76CF9BB4A4D
:10333000BB4BCDE90201FDF766F8CDE90401DDE9FB
:103340000623FDF75AF8CDE90801FDF7F9F90A90CF
:10335000FFF718FA0B90FDF7AFF9B34AB34BCDE97D
:103360000C01FDF750F8CDE90E01DDE91023FDF762
:103370004AF8CDE91201FDF7E3F981464046FDF731
:103380009BF9CDE910013846FDF73DF90022A54B28
:10339000CDE90001FDF731F8A04AA14BCDE90201CA
:1033A000FDF731F8CDE906011898FDF785F9CDE96B
:1033B0000401DDE90623FDF720F8CDE90801FDF75A
:1033C000BFF90A90FFF7DEF90B90FDF775F9964A01
:1033D000964BCDE90C01FDF716F8CDE90E01DDE9BC
:1033E0001023FDF710F8CDE91201FDF7A9F91490AB
:1033F00049464FF07E50FCF7E9FE13901499FCF714
:10340000E5FE1590072F7DD2DFE807F0C6042444BF
:103410006486A6004FF080411598FCF70FFF1390CB
:1034200048461499FCF780FE12901399FCF77CFE35
:1034300004464FF080411598FCF700FF1390149953
:10344000FCF772FE05464FF080411598FCF7F6FE3A
:103450000646A5E04FF080411598FCF7EFFE49467F
:103460001390FCF761FE04464FF080411598FCF77D
:10347000E5FE139048461499FCF756FE12901399F6
:10348000FCF752FE05464FF080411598FCF7D6FE3A
:10349000064685E04FF080411598FCF7CFFE0446C4
:1034A0004FF080411598FCF7C9FE139048461499D7
:1034B000FCF73AFE12901399FCF736FE05464FF0E2
:1034C00080411598FCF7BAFE13901499FCF72CFE76
:1034D000064665E04FF080411598FCF7AFFE0446C4
:1034E0004FF080411598FCF7A9FE49461390FCF770
:1034F0001BFE05464FF080411598FCF79FFE139088
:10350000484600E048E01499FCF70EFE129013992B
:10351000FCF70AFE064643E04FF080411598FCF7A1
:103520008DFE13901499FCF7FFFD04464FF0804187
:103530001598FCF783FE05464FF080411598FCF77F
:103540007DFE139048461499FCF7EEFD12901399F6
:10355000FCF7EAFD064623E04FF080411598FCF7A2
:103560006DFE139048461499FCF7DEFD12901399F6
:10357000FCF7DAFD04464FF080411598FCF75EFE3B
:1035800005464FF080411598FCF758FE49461390C8
:10359000FCF7CAFD064603E000240025002600BF14
:1035A00000BF23492046FCF717FE1290FDF738F8BC
:1035B00080B2014613904FF08040FEF744FA1C4958
:1035C0002846FCF709FE1290FDF72AF880B2014662
:1035D00013904FF08040FEF738FA15493046FCF75B
:1035E000FBFD1290FDF71CF880B2014613904FF0DE
:1035F0008040FEF72CFA19B0BDE8F08F5000002093
:10360000F4D64354FB21F93F105839B4C876E23F51
:1036100046B6133FC876E2BF46B613BF40AF2D385B
:1036200052C1F03F0000F03F6B6058E87AB6FB3FB4
:103630000000B44404484FF0E02148610020886154
:103640000120086170470000FEFFFF0010B586B042
:103650000446012144F20400FDF7EAFD4FF4007036
:10366000ADF8140003208DF8160018208DF817000F
:1036700005A91C48FDF7A4FC4FF48060ADF81400C8
:1036800004208DF8170005A91648FDF799FC2520A0
:103690008DF8000003208DF801008DF80200012054
:1036A0008DF803006846FDF769FD01940020ADF830
:1036B0000800ADF80A00ADF80C00ADF810000C20C1
:1036C000ADF80E0001A90848FEF7BCFA012240F24D
:1036D00025510548FEF790FA01210348FEF756FAF6
:1036E00006B010BD00080140003801402DE9F14F3F
:1036F00082B04FF0E020846931480068844215D2DE
:103700002F490968081BFCF768FF2E490190FCF758
:1037100095FD8346FCF7D0FF81462B4A2B4BFCF7E7
:1037200072FE0646FDF70CF8054617E06FF07F4184
:10373000091B234A12688818FCF74FFF21490190A2
:10374000FCF77CFD8346FCF7B7FF06461E4A1F4B7D
:10375000FCF759FE8146FCF7F3FF05461848046064
:1037600000212846FDF708F808D02846FCF7A4FFFA
:1037700006460022164BFCF7CBFF00D2154D29461A
:103780000298FCF729FD0746134801683846FCF704
:10379000CBFC0646FEF748FC0F4908600F48D0F8FE
:1037A00000800F4801680C480068FEF767FB06467A
:1037B000324600214046FFF727FD4046BDE8FE8F18
:1037C0005C000020000010418DEDB5A0F7C6B03EB2
:1037D0000000E03F6F12833A1C00002054000020DC
:1037E00058000020000000004F0000009E00000074
:1037F000ED0000003C0100008B010000D901000039
:103800002802000077020000C60200001503000035
:1038100063030000B2030000000400004F04000036
:103820009D040000EC0400003A050000880500003B
:10383000D60500002406000072060000C006000045
:103840000E0700005B070000A9070000F607000054
:103850004308000090080000DD0800002A0900006D
:1038600077090000C30900000F0A00005C0A00008D
:10387000A80A0000F40A00003F0B00008B0B0000B8
:10388000D60B0000210C00006C0C0000B70C0000EF
:10389000010D00004C0D0000960D0000E00D000031
:1038A000290E0000730E0000BC0E0000050F000082
:1038B0004E0F0000960F0000DF0F000027100000E1
:1038C0006E100000B6100000FD1000004411000052
:1038D0008B110000D1110000171200005D120000D2
:1038E000A2120000E81200002D1300007113000066
:1038F000B6130000F91300003D140000811400000D
:10390000C414000006150000491500008B150000C6
:10391000CC1500000E1600004F1600008F16000098
:10392000CF1600000F1700004F1700008E17000081
:10393000CD1700000B180000491800008718000080
:10394000C4180000011900003D1900007919000099
:10395000B5190000F01900002B1A0000661A0000CB
:103960009F1A0000D91A0000121B00004B1B000018
:10397000831B0000BB1B0000F21B0000291C000081
:10398000601C0000961C0000CB1C0000001D000005
:10399000351D0000691D00009D1D0000D01D0000A8
:1039A000031E0000351E0000671E0000981E000068
:1039B000C91E0000FA1E0000291F0000591F000048
:1039C000881F0000B61F0000E41F00001120000047
:1039D0003E2000006A20000096200000C120000068
:1039E000EC200000162100004021000069210000A9
:1039F00092210000BA210000E1210000082200000D
:103A00002F220000552200007A2200009F22000091
:103A1000C3220000E72200000A2300002D2300003B
:103A20004F2300007023000091230000B223000008
:103A3000D1230000F12300000F2400002D240000FA
:103A40004B2400006824000084240000A02400000F
:103A5000BB240000D5240000EF240000092500004D
:103A6000222500003A2500005225000069250000AB
:103A70007F25000095250000AA250000BF25000035
:103A8000D3250000E6250000F92500000B260000E4
:103A90001D2600002E2600003E2600004E260000B7
:103AA0005D2600006C2600007A26000087260000B4
:103AB00094260000A0260000AB260000B6260000D9
:103AC000C0260000CA260000D3260000DB26000026
:103AD000E3260000EA260000F1260000F726000099
:103AE000FC26000001270000052700000827000031
:103AF0000B2700000D2700000F27000010270000F3
:103B000010270000000000004FBB610567ACDD3FDF
:103B1000182D4454FB21E93F9BF681D20B73EF3FF4
:103B2000182D4454FB21F93FE2652F227F2B7A3C6C
:103B3000075C143326A6813CBDCBF07A8807703C25
:103B4000075C143326A6913CC4EB98999999C9BF98
:103B5000711623FEC671BCBF6D9A74AFF2B0B3BFCD
:103B60009AFDDE522DDEADBF2F6C6A2C44B4A2BF8D
:103B70000D5555555555D53FFF8300922449C23FF9
:103B80006E204CC5CD45B73F513DD0A0660DB13F2D
:103B9000EB0D76244B7BA93F11DA22E33AAD903F3F
:103BA0000000000000000000DDDDDDDDDCBBBBDD72
:103BB000DDDDDDDDDDDDDDDD9888888888888888CD
:103BC00077777777778888888555555666666666ED
:103BD00066666666666888888333333222222222CC
:103BE000222222222228888D083C00080000002082
:103BF00070000000501E0008783C00087000002093
:103C000000050000601E000800000000010203041F
:103C10000102030406070809020406080000000068
:103C20000000000000000000000000000000000094
:103C30000000000000000000000000000000000084
:103C40000000000000000000000000000000000074
:103C50000000000000000000000000000000000064
:103C60000000000000000000000000000000000054
:083C700000000000000000004C
:04000005080000ED02
:00000001FF
