S31508000000A80C0020B1020008AD620008FB5A0008DF
S31508000010D561000835100008657F0008000000005B
S31508000020000000000000000000000000496D000804
S31508000030BD100008000000007D6A00084B6D00082E
S31508000040CB020008CB020008CB020008CB0200084E
S31508000050CB020008CB020008CB020008CB0200083E
S31508000060CB020008CB020008CB020008CB0200082E
S31508000070CB020008CB020008CB020008CB0200081E
S31508000080CB020008CB020008CB020008CB0200080E
S31508000090CB020008CB020008CB020008CB020008FE
S315080000A0CB020008CB020008CB020008CB020008EE
S315080000B0CB020008CB020008CB020008CB020008DE
S315080000C0CB020008CB020008CB020008CB020008CE
S315080000D0CB020008CB020008CB020008CB020008BE
S315080000E0CB020008CB02000800000000CB02000883
S315080000F0CB020008CB020008CB020008CB0200089E
S31508000100CB020008CB020008CB020008CB0200088D
S31508000110CB020008CB020008CB020008CB0200087D
S31508000120CB020008CB020008CB020008CB0200086D
S31508000130CB020008CB020008CB020008CB0200085D
S3150800014000000000000000000000000000000000A1
S31508000150CB020008CB020008CB020008CB0200083D
S31508000160CB020008CB020008CB020008CB0200082D
S31508000170CB020008CB020008CB02000800000000F2
S31508000180CB020008CB020008CB020008CB0200080D
S31508000190CB020008CB020008CB020008CB020008FD
S315080001A0CB020008CB020008CB020008CB020008ED
S315080001B0CB020008CB020008CB020008CB020008DD
S315080001C0CB020008CB020008CB020008CB020008CD
S315080001D0CB020008CB020008CB020008CB020008BD
S315080001E0CB020008CB020008CB020008CB020008AD
S315080001F0CB020008CB020008CB020008CB0200089D
S31508000200CB020008CB020008CB020008CB0200088C
S31508000210CB020008CB020008CB020008CB0200087C
S31508000220CB020008CB020008CB0200080000000041
S31508000230CB020008CB02000800000000CB02000831
S31508000240CB020008CB020008CB020008CB0200084C
S31508000250CB020008CB020008CB020008CB0200083C
S31508000260CB020008CB020008CB020008CB0200082C
S31508000270CB020008CB020008CB02000800000000F1
S31508000280CB020008CB020008CB02000800000000E1
S3150800029000000000CB020008DFF810D000F0EEFAEC
S315080002A000480047559B0008AFF30080A80C0020C3
S315080002B00648804706480047FEE7FEE7FEE7FEE7F2
S315080002C0FEE7FEE7FEE7FEE7FEE7FEE74D6E0008FF
S315080002D0990200082DE9F05F0546002092469B46E4
S315080002E088460646814640241BE02846414647463E
S315080002F0224600F069F853465A46C01A914110D36F
S3150800030011461846224600F050F82D1A67EB0108E8
S315080003104F4622460120002100F047F817EB000956
S315080003204E41201EA4F10104DFDC484631462A4628
S315080003304346BDE8F09F40EA01039B0703D009E066
S3150800034008C9121F08C0042AFAD203E011F8013BB3
S3150800035000F8013B521EF9D27047D2B201E000F80C
S31508000360012B491EFBD270470022F6E710B513464B
S315080003700A4604461946FFF7F0FF204610BD30B579
S315080003800B46014600202022012409E021FA02F545
S315080003909D4205D303FA02F5491B04FA02F52844DF
S315080003A0151EA2F10102F1DC30BD202A04DB203A39
S315080003B000FA02F1002070479140C2F1200320FAAA
S315080003C003F3194390407047202A04DB203A21FAA8
S315080003D002F00021704721FA02F3D040C2F1200250
S315080003E091400843194670470FB4002300B589B0F9
S315080003F00CA900910B996FF00042CB601E4B069337
S315080004001E4B07930423CDE901321D4A0892024682
S315080004106B46002000F0F0FA09B05DF814FB70B5E1
S3150800042086B006464FF0FF300091CDE90101002065
S3150800043015460C4604903246694604A8FFF7D4FFD1
S3150800044002460498211825B108B1084600E020465E
S315080004502860049800280DD0002A02DD00988842FA
S3150800046008D0081B0094CDE901043246694604A861
S31508000470FFF7BAFF06B070BD310C00084F0C000834
S31508000480C50800082DE9FE4F804681EA0300C00F23
S315080004900C46009021F0004123F00045B8EB02001D
S315080004A0A94105D24046214690461C460B460246BF
S315080004B023F00040104347D0270DC7F30A00C3F3C3
S315080004C00A510290401A019040286BDAC3F31300D0
S315080004D040F4801B0098924620B10023D2EB030A11
S315080004E063EB0B0B01985946C0F140025046FFF7E3
S315080004F05CFF06460D4650465946019A00F0D0F96B
S3150800050010EB08006141002487EA115284EAE77378
S315080005101A4340D0009A62B3019A012A4FEA075259
S3150800052015DC001B61EB02014FF0004202EA07529C
S31508000530CDE90042001C41F5801132462B4600F0F9
S31508000540A6FB03B0BDE8F08F40462146F9E7001B3D
S3150800055061EB0201001C41F5801300185B4120186D
S31508000560A2F5001747EB030140EAD570B6196D41AD
S3150800057011E06D084FEA360645EAC0754FEA07529C
S31508000580001B61EB0201001C41F5801149084FEA86
S3150800059030000019514132462B4603B0BDE8F04FF2
S315080005A000F066BB0098012240000023D0EB02024F
S315080005B063EBE073009821464FEAE074B8EB00005D
S315080005C061EB0401E9E783F000435BE781F0004152
S315080005D058E72DE9FE4F81EA030404F0004421F0B0
S315080005E0004100944FF0000B23F0004350EA010449
S315080005F05ED052EA03045BD0C3F30A54C1F30A552A
S315080006002C44A4F2F3340194A0FB0254C1F3130161
S3150800061041F48011C3F3130343F4801301FB02442E
S3150800062000FB034E840A970A44EA815447EA835733
S31508000630A4FB076802958D0A05FB07854FEA932CEC
S3150800064004FB0C542705029D4FEA065847EA16375D
S31508000650B5EB08056EEB070C870E920E47EA811775
S3150800066042EA8312A7FB0201B6EB0B0164EB000416
S315080006702B0D43EA0C335E1844EB1C50DA46514600
S31508000680E7FB0201C5F313044FEA0B3343EA14539D
S315080006904FEA0432019C43EA0603A4F10C040294CF
S315080006A0009CCDE900B400F0F2FA03B0BDE8F08F83
S315080006B000200146F9E72DE9F04D81EA030404F02C
S315080006C0004B21F0004514464FF0000A23F0004184
S315080006D050EA050220D054EA01021DD0C5F30A5794
S315080006E00246C5F31303C1F31300C1F30A5640F4D7
S315080006F0801543F48013A7EB0608101BD64608F2AC
S31508000700FD3873EB050002D308F1010801E09218E1
S315080007105B41B8F1000F03DA00200146BDE8F08D11
S3150800072000204FF48011064684460EE0171B73EB33
S31508000730050705D3121B63EB050306434CEA010CB8
S3150800074049084FEA300092185B4150EA0107EDD19B
S3150800075052EA030012D082EA040083EA050108433C
S3150800076005D0101BAB4106D20122002306E0002269
S315080007704FF0004302E06FF0010253101AEB060037
S315080007804CEB085110EB0A0041EB0B01BDE8F04DAC
S3150800079000F06EBA2DE9FE4FC3F30A5701F0004583
S315080007A00024C1F30A56C3F31303C1F3130143F438
S315080007B0801312EB020AA64641F48011009543EB1A
S315080007C0030CA7F1010B16E0B0EB0A0061EB0C0174
S315080007D0071E71F1000707DA4FF00008D0EB080092
S315080007E085F0004568EB0101171A73EB0107EBD397
S315080007F0761E001849415E45F6DA50EA010209D02C
S31508000800CDE900E500221346029600F040FA03B04F
S31508000810BDE8F08F20460099F9E7C1F30A52C1F303
S31508000820130140F2FF3341F480119A4202DA0020A4
S315080008300146704740F233439A42A2F2334202DC41
S315080008405242FFF7C1BDFFF7B0BD000030B5041E28
S3150800085071F1000404DB4FF00044404264EB0101EF
S31508000860141E73F1000405DB1C464FF00043524288
S3150800087063EB0403994208BF904230BD064C074D0E
S3150800088006E0E06840F0010394E807009847103452
S31508000890AC42F6D3FFF704FDE0A6000800A700085F
S315080008A0202A06DBCB17203A41FA02F043EAE07326
S315080008B006E041FA02F3D040C2F120029140084313
S315080008C019467047C0B24FF4F05100F02FBA000035
S315080008D02DE9FF4F087883B09946FF2805D0491CB3
S315080008E02D2804D00024002008E000200BE0012475
S315080008F0F9E700EB800003EB4000491C0B78FF2B5F
S31508000900F7D104B1404200230293147819461D46D4
S315080009102D2C01D02B2C04D1521C2D2C13D00024A5
S315080009200294AA461478FF2C0FD00A25A3FB057853
S3150800093001FB05814FF0000C03FB0C11521CE31957
S315080009404AEB0101EEE70124EAE7814453EA010094
S3150800095002D019F5C87F06DA03980021C0E900110C
S3150800096007B0BDE8F08F0025AE4E2F46DFF8B882F7
S31508000970184600F0EFF9CDE90001B9F1000002DAF6
S31508000980C9F1000400E004460023A74A1AEB030B4A
S3150800099042EB045A12E0E00707D02A4633463846A7
S315080009A04146FFF716FE074688462A46334610464E
S315080009B01946FFF70EFE05460E466410002CEAD1CE
S315080009C0DDE90001B9F1000F5A46534606DAFFF78A
S315080009D072FE3A464346FFF76EFE05E0FFF7F9FD5D
S315080009E03A464346FFF7F5FD029A0AB181F00041FF
S315080009F0039AC2E90001B3E72DE9FF4F1F468DB000
S31508000A00D7E901464FF0FF382E2045464FF000093A
S31508000A100B90B9696D1C0E988847396A82468847D3
S31508000A200028F6D1BAF1FF3F0AD024F4D064002E8C
S31508000A3011DDBAF12B0F08D0BAF12D0F0BD102E058
S31508000A40404611B08DE744F48064B9696D1C0E9870
S31508000A5088478246761E6946600501D52D2000E046
S31508000A602B208DF8000001F1010B0DF1200809E09B
S31508000A70B9696D1C0E98884782460F9844F400742D
S31508000A80761E0560002E02DDBAF1300FF0D00B9904
S31508000A908A453ED144F0800406E00F99681CA9F106
S31508000AA0010944F400740860B9696D1C761E0E9835
S31508000AB0884782463028F0D02BE00B998A4505D125
S31508000AC0200603D444F08004761E18E0504607F04A
S31508000AD07BFE08B30DF11301761E44F400748B45B2
S31508000AE008D2AAF130000BF8010B200607D5A9F1A8
S31508000AF0010003E0200602D409F101008146A005A1
S31508000B0002D50F99681C0860B9696D1C0E9888474C
S31508000B108246002ED1DC53E0002E51DDBAF1650F76
S31508000B2002D0BAF1450F4BD1A00549D5B9696D1C5C
S31508000B3024F44074761E0E9888478246002E0CDDF3
S31508000B402B2804D0BAF12D0F07D144F48074B96963
S31508000B506D1C0E9888478246761EE00501D52D2124
S31508000B6000E02B2108F8011BCDF82C8021E00DF1BF
S31508000B702901761E44F4007488450CD2AAF1300087
S31508000B8010F0FF0088F8000002D10B99884509D9B2
S31508000B9008F1010806E0E00501D5244801E042F223
S31508000BA00F708146B9696D1C0E98884782460F9862
S31508000BB00560002E04DD504607F006FE0028D6D153
S31508000BC0F9690E988847FF208BF8000088F800001E
S31508000BD00020069007904B466A4608A906A8FFF724
S31508000BE077FEA00502D46FF001002AE714F0240F5F
S31508000BF00AD0E00714D1DDE906123868031D3B6008
S31508000C000068C0E900120BE0DDE9060100F0AEF865
S31508000C100146E00704D13868021D3A6000680160A1
S31508000C2028460EE7000014400000F03FF1D8FFFF09
S31508000C30426842B1016811F8013B23B1521EC0E96E
S31508000C400012184670470121C160881E7047426825
S31508000C505AB1C368016843B983688B4205D0491EF7
S31508000C60521CC0E90012002070474FF0FF30704751
S31508000C7010B5141E73F1000408DA401C41F1000196
S31508000C8092185B411A4301D120F0010010BD2DE9ED
S31508000C90F04D92469B4611B1B1FA81F202E0B0FAE4
S31508000CA080F220329046FFF780FB04460F4640EA62
S31508000CB00A0041EA0B0153465A46084313D0114627
S31508000CC053EA010019D0C8F140025046FFF77CFBF1
S31508000CD005460E46504659464246FFF766FB084308
S31508000CE005D0012004E020463946BDE8F08D0020F5
S31508000CF0054346EAE0762C4337430A986305E40A37
S31508000D00A0EB08000022FD0A44EA47540A3002D53F
S31508000D1000200146E9E7010510196941DDE90845A2
S31508000D2000196941BDE8F04DA2E700007F2801D906
S31508000D30002208E0064A02EB5002C007127800D1EA
S31508000D40120902F00F020120904008407047000087
S31508000D50A0A600080EB540F2334202920022CDE961
S31508000D6000221346FFF793FF03B000BD01F00043CE
S31508000D7030B421F0004150EA010206D00A0DA2F56E
S31508000D806072C1F31301002A02DC30BC00207047F0
S31508000D90440F44EAC104C100E01830BC00EBC2505D
S31508000DA0AFF300800029A8BF7047401C490008BF60
S31508000DB020F00100704710B4B0FA80FC00FA0CF07D
S31508000DC050EA010404BF10BC704749B1CCF12004B5
S31508000DD021FA04F411FA0CF118BF01212143084342
S31508000DE0A3EB0C01CB1D4FEA00614FEA102042BF6E
S31508000DF0002010BC704700EBC35010440029A4BF64
S31508000E0010BC7047401C490008BF20F0010010BC08
S31508000E107047000070B504464E492068884203D0E2
S31508000E204D492068884208D14C48006800F4403093
S31508000E3008B1012009E0002007E04948006800F4ED
S31508000E40403008B1012000E00020B8B103F054FAA0
S31508000E5005466068B0F5803F06D0B0F5003F04D07F
S31508000E60B0F5403F08D105E000BF6068000CB5FB4F
S31508000E70F0F502E0AD0800E000BF2AE04FF40020DC
S31508000E8002F040F905466068C0F31101F9B980140B
S31508000E900C281CD2DFE800F01B060708090A0B110C
S31508000EA01315171900BF00BF00BF00BF00BF606859
S31508000EB0800C4000B5FBF0F50AE02D0908E06D0945
S31508000EC006E0AD0904E0ED0902E02D0A00E000BFE6
S31508000ED000BF01F093FB41F20301884210D8214874
S31508000EE0854206D92068806840F480702168886049
S31508000EF02FE02068806820F480702168886028E0E8
S31508000F006D081948854206D82068806820F4407024
S31508000F10216888601DE01548854208D820688068E1
S31508000F2020F4407040F480702168886011E0104811
S31508000F30854208D82068806820F4407040F4007024
S31508000F402168886005E02068806840F44070216860
S31508000F50886070BD0020024000210240082302403C
S31508000F6008630258002D3101105E5F0020BCBE00E8
S31508000F7040787D0170B50446206804F0FCFD002821
S31508000F804CD1206880682649084048B1606D40F019
S31508000F9010006065A06D40F00100A065012070BDDD
S31508000FA0206804F0D1FD01F02FFB05461D4A216893
S31508000FB0914203D01C4A2168914201D11B4900E0A5
S31508000FC01B49084604F0CDFD0646174920688842A5
S31508000FD001D1144800E020682168884200D0E6B9AB
S31508000FE015E0206804F0C7FD10B9206804F0ACFDD0
S31508000FF001F00AFB401B022809D9606D40F0100079
S315080010006065A06D40F00100A0650120C7E7206873
S31508001010006800F001000028E3D000BF0020BEE70A
S315080010203F000080002002400021024000230240C9
S315080010300063025800BFFEE710B59FED1C0A1C4866
S3150800104080ED000A9FED190A1A4880ED000A00246F
S3150800105015E007F06BFF1648D0ED000A30EE200ABF
S3150800106080ED000A07F062FF1248D0ED000A30EE64
S31508001070200A80ED000A012001F04AF8641CB4F544
S315080010807A7FE6DB0A4890ED000ADFED0B0A80EE70
S31508001090201A80ED001A074890ED000ADFED060ACF
S315080010A080EE201A80ED001A10BD00000000000036
S315080010B0700000207400002000007A44704710B5C4
S315080010C0002210E002EB4204036903EBC40100238B
S315080010D00B604B608B60CB600B614B6100F12C039E
S315080010E043F82210521C042AECD30024C463046477
S315080010F04464C46484640324036803F58053C3F812
S315080011003041036803F580530469C3F81C41036939
S315080011104833046804F58054C4F8283110BD10B566
S3150800112000220EE002EB4204C36803EBC40100236D
S315080011300B604B608B60CB6000F1180343F82210FC
S31508001140521C042AEED3002484620324036803F5A0
S315080011508053C3F82C41036803F58053C468C3F869
S315080011601441036803F58053C468C3F8204110BDD1
S3150800117010B5A2B0044601208DF833000020129065
S315080011808DF841008DF8430001208DF828008DF870
S3150800119056008DF8320000208DF84C0001208DF89D
S315080011A0840040030F9000208DF85C0018908DF89D
S315080011B085008DF886004FF4C360169000208DF8E0
S315080011C030000B9001208DF8350000208DF8360090
S315080011D08DF840001D901B9014908DF864008DF8D2
S315080011E07A0001208DF842002020209001208DF8F9
S315080011F0440000208DF855004FF0405009904FF4F8
S3150800120080400E9000208DF8310002201F900020AB
S315080012108DF878008DF879008DF8540001208DF846
S31508001220340000201A9001208DF8700009A9204684
S3150800123000F0BCF801208DF8040002900020009010
S315080012408DF81C008DF80D008DF80C004FF4001079
S31508001250069000208DF814004FF40010049000202A
S315080012608DF81D004FF4067008906946204600F078
S315080012703FF822B010BD000070B506463068D0F8B9
S31508001280004224F4706403F037F805461348854293
S3150800129005D31348854202D244F400741AE0104874
S315080012A0854205D30F48854202D244F4407411E0C2
S315080012B00C48854203D30C48854200D20AE00A4806
S315080012C0854205D30948854202D244F4807401E078
S315080012D044F480643068C0F8004270BD002D3101C6
S315080012E0C00E16020087930300E1F50580D1F008C9
S315080012F010B5036803F580531B6847F60204A34339
S315080013000C682343046804F5805423600C798B68C1
S3150800131043EA04330C7B43EAC432036803F580537B
S315080013205B684DF20104A3431343046804F5805433
S3150800133063604C7B0B6A43EA0442036803F58053F7
S31508001340D3F80031164C23401343046804F580543F
S31508001350C4F800310C7D0B6943EA04134C7F43EA59
S315080013600432036803F58053D3F804310D4C234047
S315080013701343046804F58054C4F804310C7F8B6960
S3150800138043EAC472036803F58053D3F80831064C60
S3150800139023401343046804F58054C4F8083110BD8B
S315080013A000C0FEFFEFEFC0FFFFFFC07F10B50C685F
S315080013B08B6823430C7943EAC4630C7B43EAC45322
S315080013C04C7B43EA84538C7B43EA4453CC7B43EA05
S315080013D004530C7C0CB9012400E0002443EAC443FE
S315080013E04C7C0CB9012400E0002443EA44438C7C7D
S315080013F043EA04434C6923438C6923430C7F43EA3D
S3150800140004334C7F43EAC4238C7F0CB9012400E0E3
S31508001410002443EA8423CC7F43EA442391F82040FE
S315080014200CB9012400E0002443EA042351F8244FB0
S3150800143023430C7943EA04138C6843EA04020368DD
S315080014401B683D4C23401343046823600B7E5B06F0
S315080014500C7D43EA04630C7B43EA84434C7B43EAF2
S3150800146044438C7B24390CB9012400E0002443EA68
S3150800147004434C6B43EA040203685B682F4C234021
S3150800148013430468636091F840404B6C43EA0422B6
S315080014900368DB6840F20F14A34313430468E36050
S315080014A091F854400B6D43EA440391F84C400CB94B
S315080014B0012400E0002443EAC41331F8484F43EA04
S315080014C0044203681B6F4FF60D74234013430468E8
S315080014D023678B7B4C7B43EA44020368D3F890303E
S315080014E023F0030313430468C4F890300368D3F861
S315080014F0003D23F072030C6923430468C4F8003DD9
S315080015000C7E4B6948390CB9012400E0002443EAF3
S31508001510841391F8614043EA041391F8624043EA60
S31508001520C4020368D3F8303D23F07B0313430468F1
S31508001530C4F8303D10BD0000838004000080F8C068
S31508001540704700002DE9F04399B004460E464FF067
S315080015500008306800B100BF00BF94F850000128A9
S3150800156003D1022019B0BDE8F083012084F85000A9
S3150800157000BF47492068884202D14648009001E0EA
S3150800158000200090009850B9606D40F0200060651A
S3150800159000BF002084F8500000BF0120E2E7009851
S315080015A004F0FDFA0746206804F0F9FA002861D12C
S315080015B0002F5FD136492068884203D03549206814
S315080015C0884201D1344800E034480546306858B3AB
S315080015D0A86820F4404071680843A8602C49206830
S315080015E0884203D02B492068884201D12A4800E066
S315080015F02A482949884209D1254804F0C1FA814672
S31508001600244804F0BDFA49EA000002E0244804F040
S31508001610B7FA70BBB16830680843A96840F61F720C
S3150800162091430843A8602BE0A86820F44040A860CE
S3150800163017492068884203D016492068884201D194
S31508001640154800E015481449884209D1104804F0A5
S3150800165097FA81460F4804F093FA49EA000002E037
S315080016600F4804F08DFA20B9A86840F61F71884320
S31508001670A86005E0606D40F0200060654FF0010845
S3150800168000BF002084F8500000BF40466AE700000B
S315080016900020024000210240002302400063025855
S315080016A0006002582DE9F84F04460D464FF0000A2F
S315080016B00020009094F83800012800D100E000BF0F
S315080016C0F749E868884200D00EE0F6492068884263
S315080016D000D100BFF4492068884200D100BFF34911
S315080016E02068884200D100BF00BF94F85000012846
S315080016F002D10220BDE8F88F012084F8500000BF0F
S31508001700206804F047FA00287ED12068C169286855
S31508001710C0F3130018B92868C0F3846004E0286889
S3150800172090FAA0F0B0FA80F000F01F020120904075
S3150800173001432068C1612168D5E9002001F1300C18
S31508001740C0F3012B0CEB8B03D3F800C000F01F0E7F
S315080017504FF01F0B0BFA0EFB2CEA0B0C00F01F0BBD
S31508001760C2F3846E0EFA0BFE4CEA0E0CC3F800C0E8
S3150800177000BF206804F00EFA8146206804F0F6F9E6
S315080017808046B9F1000F6FD1B8F1000FFBD1AA68F6
S315080017902968206804F01AFAC548006800F0704005
S315080017A0B0F1805F07D168692168C968C1F3820111
S315080017B04900884014E02068C06800F0100038B975
S315080017C068692168C968C1F382014900884007E051
S315080017D068692168C96801F01001890849008840CC
S315080017E007462869042840D020682A68296900F134
S315080017F0600C0CEB8103D3F800C00CF0004C02F02F
S31508001800F84B4BEA070B00E0C9E14CEA0B0CC3F8AE
S3150800181000C000BF20686A7E2969012A01D1D20763
S3150800182000E00022134600F1600C0CEB8102D2F8AE
S3150800183000C02CF0004C4CEA030CC2F800C000BFF4
S3150800184020682B7E2969012B01D1DB0200E00023E9
S315080018501A46036923F4F04301F01F0C02FA0CFC44
S3150800186043EA0C03036100BF37E02068006E00F00E
S31508001870F8402978B0EB816F05D12068006E20F01A
S315080018800040216808662068406E00F0F840297814
S31508001890B0EB816F05D12068406E20F000402168CA
S315080018A048662068806E00F0F8402978B0EB816FB2
S315080018B005D12068806E20F000402168886620687F
S315080018C0C06E00F0F8402978B0EB816F05D120682A
S315080018D0C06E20F000402168C866206804F04BF905
S315080018E0002870D12068EA682968D0F8C0C0C1F31A
S315080018F013032CEA030C02F0180B6E4B23FA0BF3B6
S315080019000B404CEA030CC0F8C0C000BF6449E86845
S3150800191088427DD12B68C3F313031BB92B68C3F325
S31508001920846304E02B6893FAA3F3B3FA83F35B1C8E
S3150800193003F01F03092B3ED82B68C3F313031BB907
S315080019402B68C3F3846304E02B6893FAA3F3B3FA12
S3150800195083F35B1C03F01F034FF0010C0CFA03FC26
S315080019602B68C3F313031BB92B68C3F3846304E022
S315080019702B6893FAA3F3B3FA83F35B1C03F01F03F4
S315080019804CEA836C2B68C3F313031BB92B68C3F3A8
S31508001990846304E02B6893FAA3F3B3FA83F35B1C1E
S315080019A003F01F0303EB43034FF0000B4BEA03530B
S315080019B04CEA030341E02B68C3F3130323B92B68EE
S315080019C0C3F3846305E0A8E02B6893FAA3F3B3FA9C
S315080019D083F35B1C03F01F034FF0010C0CFA03FCA6
S315080019E02B68C3F313031BB92B68C3F3846304E0A2
S315080019F02B6893FAA3F3B3FA83F35B1C03F01F0374
S31508001A004CEA836C2B68C3F313032BB92B6800E0ED
S31508001A1018E0C3F3846304E02B6893FAA3F3B3FADC
S31508001A2083F35B1C03F01F030A3B03EB43034FF0EE
S31508001A30007B4BEA03534CEA03031946AA6820685D
S31508001A4004F0C4F8286800F00040002865D0154A5C
S31508001A502168914203D0144A2168914201D116495E
S31508001A6000E016490846816801F0E07600BF0D4996
S31508001A702068884203D00C492068884201D10E4864
S31508001A8000E00E480C4988421AD1064804F073F85B
S31508001A908346054804F06FF84BEA000013E000009F
S31508001AA00000FF4700200240002102400060025863
S31508001AB00010005CFFFF0F0000230240006302587D
S31508001AC03D4804F058F8E8BB3C492868884225D1C7
S31508001AD006F4000010BB38492068884265D1384BA7
S31508001AE022689A4203D0374B22689A4201D1364A75
S31508001AF000E0364A104646F4000104F07BF8344804
S31508001B0000683449B0FBF1F04000009002E000980C
S31508001B10401E009000980028F9D146E02E49286812
S31508001B20884219D106F08070B0B9234920688842E6
S31508001B303BD1234B22689A4203D0224B22689A4211
S31508001B4003D100E024E0204A00E0204A104646F08F
S31508001B50807104F04FF828E020492868884224D18B
S31508001B6006F4800008BB1449206888421DD1144B2E
S31508001B7022689A4203D0134B22689A4201D1124A2C
S31508001B8000E0124A104646F4800104F033F80CE0EF
S31508001B90606D40F0200060654FF0010A05E0606D59
S31508001BA040F0200060654FF0010A00BF002084F86D
S31508001BB0500000BF50469DE500600258000084CBE7
S31508001BC00020024000210240002302400063025820
S31508001BD0F4000020400D0300000052C70000B8CFF3
S31508001BE00146486D704701460868006C704700005A
S31508001BF02DE9F84F04464FF000090020009014B96B
S31508001C000120BDE8F88FE06818B1207F012800D1CF
S31508001C1000BF606D30B9204600F030F90020A0659D
S31508001C2084F8500020688168C1F3407131B120689A
S31508001C308168874A1140816000BF00BF206803F0B1
S31508001C40A4FFA0B920688168824A114041F08051FA
S31508001C50816000BF804800688049B0FBF1F00090C1
S31508001C6002E00098401E009000980028F9D12068EC
S31508001C7003F08BFF48B9606D40F010006065A06DF9
S31508001C8040F00100A0654FF00109206803F082FFCB
S31508001C900646606D00F0100000287DD1002EFCD1AC
S31508001CA0606D20F4807040F002006065206803F0E3
S31508001CB062FF78BB6A492068884203D06949206870
S31508001CC0884201D1684800E068486749884209D1D6
S31508001CD0634803F050FF8246624803F04CFF4AEA25
S31508001CE0000002E0624803F046FF98B95C4B2268A0
S31508001CF09A4203D05B4B22689A4201D15A4A00E0C5
S31508001D005A4A10466168826822F47C120A43826045
S31508001D1000BF00BF00F072FC41F2030188420ED9F1
S31508001D20A06810280BD1607D216B41EA4030A1687C
S31508001D30084340F00C01207F41EA004508E0607D39
S31508001D40216B41EA4030A1680843217F40EA0145FA
S31508001D50207F012803D1208C401E45EA4045606A51
S31508001D6028B1A08C00F47870A16A0843054320685E
S31508001D70C0684049084028432168C860206803F0C5
S31508001D8009FF8046206803F0F1FE0746B8F1000F08
S31508001D903BD1D7BB207D00E051E0E16A41EA8035BE
S31508001DA02068C06844F20301884328432168C86054
S31508001DB094F83800012817D1606A08B1A06A00B9FA
S31508001DC000BFA08F401E012141EA0041206C084354
S31508001DD0616C0843A16C084321680969264A1140C9
S31508001DE008432168086105E02068006920F00100C1
S31508001DF0216808612068006920F07040616B08431B
S31508001E00216808612046FFF705F8E068012809D12E
S31508001E102068006B20F00F00A169491E084321685D
S31508001E20086305E02068006B20F00F00216808634E
S31508001E30606D20F0020040F00100606505E0606D0D
S31508001E4040F0100060654FF001094846D9E60000E9
S31508001E50C0FFFF5FC0FFFF7FF4000020400D0300B6
S31508001E60002002400021024000230240006302587D
S31508001E700060025803C0F0FF1EF800FC704700001F
S31508001E802DE9F04704460F46504A2168914203D08F
S31508001E904F4A2168914201D14E4900E04E49084611
S31508001EA003F05FFE05462069082801D1082628E0C8
S31508001EB01DB1052D01D0092D0DD12068C06800F08F
S31508001EC0010030B1606D40F0200060650120BDE87A
S31508001ED0F087042615E03D4A2168914203D03C4A22
S31508001EE02168914201D13B4900E03B49084603F08D
S31508001EF033FE28B1606D40F0200060650120E6E7FA
S31508001F00042600F081FB804613E0781C88B100F0B7
S31508001F107BFBA0EB0800B84200D857B9606D40F0CB
S31508001F200400606500BF002084F8500000BF03204D
S31508001F30CDE72068006830400028E6D0606D40F4A0
S31508001F4000706065206803F02FFE98B1607D88B93F
S31508001F502068006800F0080008280BD1606D20F49E
S31508001F6080706065606D00F4805018B9606D40F04F
S31508001F700100606516492068884201D1134800E0CF
S31508001F8020682168884204D01DB1052D01D0092D8D
S31508001F9003D12068D0F80C9009E00D4920688842E2
S31508001FA001D10A4800E020688246DAF80C90082E2B
S31508001FB003D108202168086005E009F4804010B9BB
S31508001FC00C2021680860002081E7000000200240FC
S31508001FD00021024000230240006302582DE9F04127
S31508001FE00446474A2168914203D0464A21689142ED
S31508001FF001D1454900E04549084603F0B2FD0546CA
S31508002000206803F0C7FD002877D100BF94F8500078
S31508002010012802D10220BDE8F081012084F8500091
S3150800202000BF2046FEF7A6FF0646002E60D1606D6B
S3150800203040F60161884340F4807060653149206844
S31508002040884201D12E4800E020682168884200D0E5
S315080020501DB9606D20F480106065606D00F48050D5
S31508002060B0F5805F04D1A06D20F00600A06501E000
S315080020700020A0651C202168086000BF002084F8A5
S31508002080500000BF1F492068884201D11C4800E063
S3150800209020682168884204D01DB1052D01D0092D7C
S315080020A00ED12068C06800F0007028B1606D20F479
S315080020B0005040F480506065206803F07FFD1DE005
S315080020C0606D40F4801060650E492068884201D131
S315080020D00B4800E020680746F86800F0007068B111
S315080020E0606D20F4005040F48050606506E004E01E
S315080020F000BF002084F8500000E0022630468AE738
S3150800210000200240002102400023024000630258DA
S3150800211070B5044600F078FA06462546681C10B1E4
S3150800212004480078054400BF00F06EFA801BA842F8
S31508002130FAD370BD0800002038B504460CB9012052
S3150800214038BD606D10B9204600F09EF82320606502
S3150800215000BF4B48006840F002004949086008463D
S31508002160006800F00200009000BF00BF207A18B98E
S31508002170002002F013FE03E04FF4000002F00EFE0A
S31508002180206800F58050006840F00101206800F5DD
S315080021908050016000F038FA05460BE000F034FA8A
S315080021A0401BB0F5FA7F05D90420E065E02060659C
S315080021B00120C5E7206800F58050006800F001009E
S315080021C00028EBD12046FFF757F802F095F82D497D
S315080021D0B0FBF1F0401E2168C1F8DC002046FEF78E
S315080021E0C7FF206800F58050D0F8000120F4E01001
S315080021F040F40021206800F58050C0F80011207DC9
S3150800220000F0030028B10120E065E02060650120A8
S3150800221096E7206800F58050D0F8080147F6FE7169
S315080022208843616940EA4101206800F58050C0F89A
S3150800223008112046FEF773FF2046FEF740FF606848
S3150800224000796168497940EA01202168C1F80003EC
S315080022506068C07800066168897840EA014061686C
S31508002260497840EA01206168097808432168C1F87D
S3150800227004030020E06510206065A06500205FE784
S31508002280F444025840420F0010B586B004461421A3
S3150800229001A8FEF769F84E49206888427ED100BF3A
S315080022A04C48006840F400404A49086008460068FF
S315080022B000F40040009000BF00BF00BF0846006859
S315080022C040F4803008600846006800F480300090CA
S315080022D000BF00BF00BF0846006840F40030086031
S315080022E00846006800F40030009000BF00BF00BF39
S315080022F038480830006840F004003649083108605C
S315080023000846006800F00400009000BF00BF00BF48
S315080023100846006840F0010008600846006800F0BA
S315080023200100009000BF00BF00BF0846006840F0EB
S31508002330020008600846006800F00200009000BF2E
S3150800234000BF00BF0846006840F040000860084625
S31508002350006800F04000009000BF00BF32200190E6
S31508002360022002900020039004900B20059001A9FA
S31508002370194800F039F886200190022002900020C2
S31508002380039004900B20059001A9144800F02CF83E
S315080023904FF4005001900220029000E016E0002061
S315080023A0039004900B20059001A90D4800F01CF835
S315080023B04FF42050019002200290002003900490D0
S315080023C00B20059001A9074800F00EF806B010BDCD
S315080023D000800240D84402580008025800000258FB
S315080023E00004025800180258F8B502460023734D37
S315080023F0DEE001279F400E6806EA0704002C71D02C
S315080024004E68012E08D04E68022E05D04E68112E51
S3150800241002D04E68122E13D190685F000326BE4084
S31508002420B0435F00CE68BE403043906050680126D6
S315080024309E40B0430E79C6F300169E403043506066
S31508002440D0685F000326BE40B0435F008E68BE407A
S315080024503043D0604E68022E02D04E68122E13D139
S31508002460DF0802F1200656F827005E07F70E0F264A
S31508002470BE40B0435F07FF0E0E69BE403043DF081B
S3150800248002F1200646F8270010685F000326BE40C2
S31508002490B0430E7906F003065F00BE403043106075
S315080024A04E6806F08056B6F1805F1BD100BF444ED9
S315080024B0366846F00206424F3E603E46366806F0EB
S315080024C00206009600BF00BF3E4E9F0856F827003A
S315080024D09E07370F0F26BE40B0433B4EB24202D18D
S315080024E000262EE063E0394EB24201D1012628E0EB
S315080024F0374EB24201D1022623E0364EB24201D10E
S3150800250003261EE0344EB24201D1042619E0334EAA
S31508002510B24201D1052614E0314EB24201D1062657
S315080025200FE0304EB24201D107260AE02E4EB242E3
S3150800253001D1082605E02D4EB24201D1092600E058
S315080025400A269F073F0FBE4030431E4E9F0846F897
S3150800255027002868A0434E6806F48036B6F5803F03
S3150800256000D1204328606868A0434E6806F4003608
S31508002570B6F5003F00D1204368604FF0B04630689A
S31508002580A0434E6806F48016B6F5801F00D1204396
S315080025904FF0B04630607068A0434E6806F40016E7
S315080025A0B6F5001F00D120434FF0B04670605B1CA3
S315080025B00E68DE40002E7FF41CAFF8BD8000005880
S315080025C0F44402580804005800000258000402584F
S315080025D000080258000C025800100258001402584D
S315080025E000180258001C02580020025800240258FD
S315080025F00AB1816101E00B048361704701480068F4
S31508002600000C70470010005C014800687047000025
S315080026100000002003480068034909780844014976
S3150800262008607047000000200800002010B503204D
S3150800263000F0A8F801F0AAFE10490968C1F30321C1
S315080026400F4A515C01F01F0120FA01F40B4800689B
S3150800265000F00F001146085C00F01F0024FA00F095
S315080026600849086008480460002000F00FF808B11F
S31508002670012010BD00F036F80020FAE71844025889
S31508002680ECA50008F8000020F400002070B5044608
S315080026901148007808B9012070BD0F4800784FF43A
S315080026A07A71B1FBF0F00D490968B1FBF0F52846DF
S315080026B002F07EFB08B10120EEE7102C07D20022BB
S315080026C02146501E00F020F80548046001E001206C
S315080026D0E2E70020E0E7000008000020F400002000
S315080026E00400002008B500BF0648006840F0020054
S315080026F0044908600846006800F00200009000BF20
S3150800270000BF08BDF44402582DE9F05F80460D4627
S31508002710164605F051FC074639462A46334601F067
S315080027200700C0F1070ABAF1040F02D94FF0040AEC
S3150800273001E0C0F1070AD14600F1040ABAF1070F11
S3150800274002D24FF0000A01E0A0F1030AD4464FF086
S31508002750010A0AFA09FAAAF1010A0AEA020A0AFAAF
S315080027600CFA4FF0010B0BFA0CFBABF1010B0BEA61
S31508002770030B4AEA0B042146404605F025FCBDE852
S31508002780F09F000000BF00F00702064B19684FF6DD
S31508002790FF031940044B0B4343EA0221014B19601E
S315080027A000BF70470CED00E00000FA0501460A6814
S315080027B00120C1F8FC03002081F8F403906940F079
S315080027C000609061506D024B1843506500207047B9
S315080027D00300001070B58AB0044614B901200AB087
S315080027E070BD266894F8BD0328B9002084F8BC0398
S315080027F0204600F0A9F8032084F8BD03F06B00F426
S31508002800807008B900212161206805F051FB282253
S3150800281004F110016846FDF78EFD94E80F0005F0F7
S31508002820E3F920B1022084F8BD030120D7E700218F
S31508002830206805F073FB002531E00121C5EBC502D0
S3150800284004F13C0000EB82004170C5EBC50104F1C0
S315080028503C0000F82150C5EBC50100EB8100C5809E
S315080028600021C5EBC50204F13C0000EB8200C170F3
S31508002870C5EBC50204F13C0000EB82008160C5EBA4
S31508002880C50204F13C0000EB8200C160C5EBC5023D
S3150800289004F13C0000EB82004161681CC5B2606827
S315080028A0A842CAD800252AE00021C5EBC50204F5CE
S315080028B0FE7000EB82004170C5EBC50104F5FE70A1
S315080028C000F821500021C5EBC50200EB8200C1705B
S315080028D0C5EBC50204F5FE7000EB82008160C5EB0E
S315080028E0C50204F5FE7000EB8200C160C5EBC502A7
S315080028F004F5FE7000EB82004161681CC5B2606891
S31508002900A842D1D8282204F110016846FDF713FD24
S3150800291094E80F0005F0E0F920B1022084F8BD0321
S3150800292001205CE7002084F83800012084F8BD0304
S31508002930606A012802D12046FFF738FF206805F0B3
S31508002940BBF900204BE7000010B586B004461421F9
S3150800295001A8FDF709FD1E492068884235D100BF48
S315080029601C48006840F001001A49086008460068DB
S3150800297000F00100009000BF00BF4FF4E85001903E
S31508002980022002900020039004900A20059001A9D5
S315080029901148FFF729FD4FF40070019000200290BE
S315080029A0039001A90C48FFF71FFD00BF0948083826
S315080029B0006840F000600749083908600846006862
S315080029C000F00060009000BF00BF06B010BD000018
S315080029D000000840E04402580000025870B504465A
S315080029E015480068C0F3800048B91348006800F02D
S315080029F00700A04201D0012070BD0020FCE70E4868
S31508002A00006820F0070020430B490860FFF7FCFD2B
S31508002A10054607E0FFF7F8FD401BB0F57A7F01D9B8
S31508002A200120E9E7044808380068C0F34030002868
S31508002A30F0D00020E0E700000C4802580348006880
S31508002A4040F0807001490860704700000C48025841
S31508002A5010B501F051FC05490968C1F30211044A91
S31508002A60515C01F01F01C84010BD00002044025807
S31508002A70ECA5000870B50146844D2D6805F00303E2
S31508002A80824D2D68C5F30510804D2D1D2D6805F066
S31508002A9001047E4D0C352D68C5F3CC0515FB04F5F0
S31508002AA001EE105AB8EE411AF0EE410A00286FD02E
S31508002AB023B1012B4ED0022B6BD16BE0734D283D11
S31508002AC02D68C5F340153DB3704D283D2D68C5F3F7
S31508002AD0C1066F4D25FA06F201EE102AF8EE411AE4
S31508002AE001EE100AB8EE411A81EE812A9FED691AA5
S31508002AF0C0EE811A654D08352D68C5F3080501EE47
S31508002B00105AB8EE411A31EE811AF7EE001A31EE74
S31508002B10211A22EE010A1CE001EE100AB8EE411A4B
S31508002B20DFED5D1A81EE812A9FED5A1AC0EE811AF1
S31508002B30564D08352D68C5F3080501EE105AB8EE4E
S31508002B40411A31EE811AF7EE001A31EE211A22EEF9
S31508002B50010A5BE001EE100AB8EE411ADFED4F1AE2
S31508002B6081EE812A9FED4B1AC0EE811A474D083532
S31508002B702D68C5F3080501EE105AB8EE411A31EE74
S31508002B80811AF7EE001A31EE211A22EE010A3DE00B
S31508002B9077E01DE001EE100AB8EE411A9FED402AD3
S31508002BA0C2EE011A9FED3B1A80EE812A374D083591
S31508002BB02D68C5F3080501EE105AB8EE411A32EE33
S31508002BC0011AB7EE002A31EE021A21EE810A1DE03B
S31508002BD001EE100AB8EE411ADFED301A81EE812AAD
S31508002BE09FED2C1AC0EE811A284D08352D68C5F3BD
S31508002BF0080501EE105AB8EE411A31EE811AF7EEC1
S31508002C00001A31EE211A22EE010A00BF00BF1F4D3D
S31508002C1008352D68C5F3462501EE105AB8EE411A57
S31508002C20F7EE001A31EE211AC0EE011ABCEEE11ACF
S31508002C3081ED001A154D08352D68C5F3064501EED8
S31508002C40105AB8EE411AF7EE001A31EE211AC0EE04
S31508002C50011ABCEEE11A81ED011A0C4D08352D68F2
S31508002C60C5F3066501EE105AB8EE411AF7EE001ADA
S31508002C7031EE211AC0EE011ABCEEE11A81ED021AF4
S31508002C8003E000250D604D608D6070BD2844025834
S31508002C900090D003000000460024744C0024744AB7
S31508002CA00024F44A70B50146844D2D6805F00303E7
S31508002CB0824D2D68C5F30530804D2D1D2D68C5F351
S31508002CC000147E4D14352D68C5F3CC0515FB04F5A7
S31508002CD001EE105AB8EE411AF0EE410A00286FD0FC
S31508002CE023B1012B4ED0022B6BD16BE0734D283DDF
S31508002CF02D68C5F340153DB3704D283D2D68C5F3C5
S31508002D00C1066F4D25FA06F201EE102AF8EE411AB1
S31508002D1001EE100AB8EE411A81EE812A9FED691A72
S31508002D20C0EE811A654D10352D68C5F3080501EE0C
S31508002D30105AB8EE411A31EE811AF7EE001A31EE42
S31508002D40211A22EE010A1CE001EE100AB8EE411A19
S31508002D50DFED5D1A81EE812A9FED5A1AC0EE811ABF
S31508002D60564D10352D68C5F3080501EE105AB8EE14
S31508002D70411A31EE811AF7EE001A31EE211A22EEC7
S31508002D80010A5BE001EE100AB8EE411ADFED4F1AB0
S31508002D9081EE812A9FED4B1AC0EE811A474D1035F8
S31508002DA02D68C5F3080501EE105AB8EE411A31EE42
S31508002DB0811AF7EE001A31EE211A22EE010A3DE0D9
S31508002DC077E01DE001EE100AB8EE411A9FED402AA1
S31508002DD0C2EE011A9FED3B1A80EE812A374D103557
S31508002DE02D68C5F3080501EE105AB8EE411A32EE01
S31508002DF0011AB7EE002A31EE021A21EE810A1DE009
S31508002E0001EE100AB8EE411ADFED301A81EE812A7A
S31508002E109FED2C1AC0EE811A284D10352D68C5F382
S31508002E20080501EE105AB8EE411A31EE811AF7EE8E
S31508002E30001A31EE211A22EE010A00BF00BF1F4D0B
S31508002E4010352D68C5F3462501EE105AB8EE411A1D
S31508002E50F7EE001A31EE211AC0EE011ABCEEE11A9D
S31508002E6081ED001A154D10352D68C5F3064501EE9E
S31508002E70105AB8EE411AF7EE001A31EE211AC0EED2
S31508002E80011ABCEEE11A81ED011A0C4D10352D68B8
S31508002E90C5F3066501EE105AB8EE411AF7EE001AA8
S31508002EA031EE211AC0EE011ABCEEE11A81ED021AC2
S31508002EB003E000250D604D608D6070BD2844025802
S31508002EC00090D003000000460024744C0024744A85
S31508002ED00024F44A70B50146844D2D6805F00303B5
S31508002EE0824D2D68C5F30550804D2D1D2D68C5F3FF
S31508002EF000247E4D1C352D68C5F3CC0515FB04F55D
S31508002F0001EE105AB8EE411AF0EE410A00286FD0C9
S31508002F1023B1012B4ED0022B6BD16BE0734D283DAC
S31508002F202D68C5F340153DB3704D283D2D68C5F392
S31508002F30C1066F4D25FA06F201EE102AF8EE411A7F
S31508002F4001EE100AB8EE411A81EE812A9FED691A40
S31508002F50C0EE811A654D18352D68C5F3080501EED2
S31508002F60105AB8EE411A31EE811AF7EE001A31EE10
S31508002F70211A22EE010A1CE001EE100AB8EE411AE7
S31508002F80DFED5D1A81EE812A9FED5A1AC0EE811A8D
S31508002F90564D18352D68C5F3080501EE105AB8EEDA
S31508002FA0411A31EE811AF7EE001A31EE211A22EE95
S31508002FB0010A5BE001EE100AB8EE411ADFED4F1A7E
S31508002FC081EE812A9FED4B1AC0EE811A474D1835BE
S31508002FD02D68C5F3080501EE105AB8EE411A31EE10
S31508002FE0811AF7EE001A31EE211A22EE010A3DE0A7
S31508002FF077E01DE001EE100AB8EE411A9FED402A6F
S31508003000C2EE011A9FED3B1A80EE812A374D18351C
S315080030102D68C5F3080501EE105AB8EE411A32EECE
S31508003020011AB7EE002A31EE021A21EE810A1DE0D6
S3150800303001EE100AB8EE411ADFED301A81EE812A48
S315080030409FED2C1AC0EE811A284D18352D68C5F348
S31508003050080501EE105AB8EE411A31EE811AF7EE5C
S31508003060001A31EE211A22EE010A00BF00BF1F4DD9
S3150800307018352D68C5F3462501EE105AB8EE411AE3
S31508003080F7EE001A31EE211AC0EE011ABCEEE11A6B
S3150800309081ED001A154D18352D68C5F3064501EE64
S315080030A0105AB8EE411AF7EE001A31EE211AC0EEA0
S315080030B0011ABCEEE11A81ED011A0C4D18352D687E
S315080030C0C5F3066501EE105AB8EE411AF7EE001A76
S315080030D031EE211AC0EE011ABCEEE11A81ED021A90
S315080030E003E000250D604D608D6070BD28440258D0
S315080030F00090D003000000460024744C0024744A53
S315080031000024F44A2DE9F0418AB00646B6F5807FD8
S3150800311032D1DC48006800F00707052F29D2DFE81E
S3150800312007F003080D26120007A8FFF7A3FC089C62
S3150800313021E004A8FFF7B6FD049C1CE001A8FFF7F0
S31508003140C9FE019C17E0CF48001F006800F04055F3
S315080031500DB9CD4C0AE0B5F1805F01D1CB4C05E045
S31508003160B5F1005F01D1CA4C00E0002403E0C94C68
S3150800317001E0002400BF80E1B6F5007F38D1C148E0
S31508003180006800F4E077802F14D003DC47B1402FA5
S315080031902BD10AE0C02F26D0B7F5807F25D10EE0C7
S315080031A007A8FFF767FC089C21E004A8FFF77AFD4B
S315080031B0049C1CE001A8FFF78DFE019C17E0B148AE
S315080031C0001F006800F040550DB9AF4C0AE0B5F194
S315080031D0805F01D1AD4C05E0B5F1005F01D1AC4C83
S315080031E000E0002403E0AB4C01E0002400BF44E10A
S315080031F0B6F5806F3CD1A3480830006800F4600734
S31508003200B7F5800F16D004DC57B1B7F5001F2CD1DF
S315080032100BE0B7F5C00F26D0B7F5000F25D10EE0A5
S3150800322007A8FFF727FC089C21E004A8FFF73AFD4A
S31508003230049C1CE001A8FFF74DFE019C17E091488D
S31508003240001F006800F040550DB98F4C0AE0B5F133
S31508003250805F01D18D4C05E0B5F1005F01D18C4C42
S3150800326000E0002403E08B4C01E0002400BF04E1E9
S31508003270B6F5006F3CD183480830006800F0E06777
S31508003280B7F1007F16D004DC57B1B7F1807F2CD197
S315080032900BE0B7F1407F26D0B7F1806F25D10EE05D
S315080032A007A8FFF7E7FB089C21E004A8FFF7FAFC4C
S315080032B0049C1CE001A8FFF70DFE019C17E071486D
S315080032C0001F006800F040550DB96F4C0AE0B5F1D3
S315080032D0805F01D16D4C05E0B5F1005F01D16C4C02
S315080032E000E0002403E06B4C01E0002400BFC4E0CA
S315080032F0B6F5805F3DD16348006800F4E048B8F54C
S31508003300005F18D006DCB8F1000F0AD0B8F5805F68
S315080033102CD10BE0B8F5405F26D0B8F5804F25D103
S315080033200EE007A8FFF7A6FB089C21E004A8FFF714
S31508003330B9FC049C1CE001A8FFF7CCFD019C17E032
S315080033405048001F006800F040550DB94E4C0AE081
S31508003350B5F1805F01D14D4C05E0B5F1005F01D1B3
S315080033604B4C00E0002403E04A4C01E0002400BF77
S3150800337083E0B6F5002F2FD142480830006800F4E4
S315080033804038B8F1000F06D0B8F5803F08D0B8F538
S31508003390003F1ED109E004A8FFF784FC049C1AE04C
S315080033A001A8FFF797FD039C15E03648001F006843
S315080033B000F040550DB9344C0AE0B5F1805F01D1F3
S315080033C0324C05E0B5F1005F01D1314C00E0002434
S315080033D001E0002400BF50E0B6F5803F18D1294827
S315080033E0001F006800F48038B8F1000F03D0B8F564
S315080033F0803F0AD104E007A8FFF73CFB089C06E0DB
S3150800340004A8FFF74FFC069C01E0002400BF34E047
S31508003410B6F5804F30D11B480830006800F0E04808
S31508003420B8F1405F1FD009DCB8F1000F0DD0B8F134
S31508003430805F0ED0B8F1005F1BD10FE0B8F1804F66
S3150800344013D0B8F1A04F14D111E0FFF701FB0446E1
S3150800345011E004A8FFF726FC059C0CE001A8FFF77D
S3150800346039FD029C07E0084C05E0084C03E0084CCF
S3150800347001E0002400BF00E0002420460AB0BDE8B1
S31508003480F0810000504402580090D00300093D0026
S3150800349000127A000080BB002DE9F04104460025A1
S315080034A0A846206800F00060B0F1006F30D1606E69
S315080034B048B1B0F5801F0DD0B0F5001F10D0B0F59B
S315080034C0401F15D113E0F948006840F40030F74969
S315080034D008600FE00221201D03F0D2FA054609E034
S315080034E0022104F1240003F07DFB054602E001E019
S315080034F0012500BF00BF55B9EC482430006820F408
S315080035004010616E0843E9492431086000E0A84686
S31508003510208800F48070B0F5807F2DD1606D052875
S315080035201AD2DFE800F0030A10171800DF4800680F
S3150800353040F40030DD49086010E00021201D03F04A
S315080035409FFA05460AE0002104F1240003F04AFB2D
S31508003550054603E002E001E0012500BF00BF55B9BA
S31508003560D2482430006820F00700616D0843CF492F
S315080035702431086000E0A846208800F40070B0F501
S31508003580007F33D1A06D802817D003DC40B14028D6
S315080035901CD10CE0C02817D0B0F5807F16D114E0F6
S315080035A0C248006840F40030C049086010E00021B5
S315080035B0201D03F065FA05460AE0002104F12400FF
S315080035C003F010FB054603E002E001E0012500BF19
S315080035D000BF55B9B5482430006820F4E070A16DE5
S315080035E00843B2492431086000E0A846208800F460
S315080035F08060B0F5806F38D1D4F8A400B0F5800F9C
S3150800360019D004DC50B1B0F5001F1DD10DE0B0F59E
S31508003610C00F17D0B0F5000F16D114E0A348006804
S3150800362040F40030A149086010E00021201D03F095
S3150800363027FA05460AE0002104F1240003F0D2FA2D
S31508003640054603E002E001E0012500BF00BF5DB9C1
S3150800365096482C30006820F46000D4F8A41008437B
S3150800366092492C31086000E0A846208800F40060E2
S31508003670B0F5006F38D1D4F8A800B0F1007F19D0A2
S3150800368004DC50B1B0F1807F1DD10DE0B0F1407F70
S3150800369017D0B0F1806F16D114E08448006840F462
S315080036A000308249086010E00021201D03F0E8F987
S315080036B005460AE0002104F1240003F093FA0546C2
S315080036C003E002E001E0012500BF00BF5DB97748CD
S315080036D02C30006820F0E060D4F8A810084373493D
S315080036E02C31086000E0A846206800F00070B0F1B0
S315080036F0007F27D1A06CA0B1102804D0202809D0BB
S3150800370030280FD10CE06948006840F4003067495A
S31508003710086009E00221201D03F0B2F9054603E01E
S3150800372002E001E0012500BF00BF55B95F4820301F
S31508003730006820F03000A16C08435C49203108601D
S3150800374000E0A846208800F48050B0F5805F36D1A6
S31508003750E06DB0F5005F19D004DC50B1B0F5805FBC
S315080037601DD10DE0B0F5405F17D0B0F5804F16D1EA
S3150800377014E04E48006840F400304C49086010E0F8
S315080037800021201D03F07CF905460AE0002104F11A
S31508003790240003F027FA054603E002E001E00125CC
S315080037A000BF00BF55B941482430006820F4E04006
S315080037B0E16D08433D492431086000E0A8462088A9
S315080037C000F40050B0F5005F34D1206EB0F5403FEC
S315080037D01DD007DC68B1B0F5803F0BD0B0F5003FCF
S315080037E018D10DE0B0F5802F12D0B0F5A02F11D169
S315080037F00FE011E00121201D03F042F905460BE018
S31508003800012104F1240003F0EDF9054604E003E084
S3150800381002E001E0012500BF00BF55B92348243066
S31508003820006820F4E020216E08432049243108600E
S3150800383000E0A846208800F48040B0F5804F38D1D3
S31508003840D4F8AC00B0F1405F1DD007DC68B1B0F128
S31508003850805F0BD0B0F1005F18D10DE0B0F1804F5A
S3150800386012D0B0F1A04F11D10FE011E00121201DB7
S3150800387003F006F905460BE0012104F1240003F0E4
S31508003880B1F9054604E003E002E001E0012500BFC6
S3150800389000BF6DB905482C30006820F0E040D4F828
S315080038A0AC10084301492C31086002E02C44025848
S315080038B0A846208800F40040B0F5004F26D1E06EF7
S315080038C098B1B0F1805F03D0B0F1005F0ED106E089
S315080038D0F948006840F40030F749086008E001211B
S315080038E0201D03F0CDF8054602E001E0012500BFE2
S315080038F000BF55B9F0482430006820F04050E16E0A
S315080039000843ED492431086000E0A846206800F025
S315080039108070B0F1807F27D1606CA0B1012804D0F7
S31508003920022809D003280FD10CE0E348006840F4C8
S315080039300030E149086009E00221201D03F0A0F8E3
S31508003940054603E002E001E0012500BF00BF55B9C6
S31508003950D9482030006820F00300616C0843D64936
S315080039602031086000E0A846206800F48000B0F521
S31508003970800F7DD1D148006840F48070CF49086037
S31508003980FEF742FE064606E0FEF73EFE801B64286A
S3150800399001D9032505E0C948006800F480700028AD
S315080039A0F2D000BF85BBC4484430006800F44070BC
S315080039B0B4F8B01001F44071884213D0BE484430C0
S315080039C0006820F44077BC484430006840F48030F2
S315080039D0B949443108600846006820F48030086018
S315080039E008460760D4F8B000B0F5807F15D1FEF719
S315080039F00BFE064609E0FEF707FE801B41F28831FA
S31508003A00884202D9032507E038E0AB48443000680D
S31508003A10C0F340000028EED000BF55BB00BFB4F885
S31508003A20B00000F44070B0F5407F0ED1A2481C38B3
S31508003A30006820F47C51A24AD4F8B000104041EA4C
S31508003A4010109D491C39086007E09B481C3800681F
S31508003A5020F47C5098491C3908609748443000681F
S31508003A60B4F8B010C1F30B0108439349443101E09F
S31508003A7005E001E0086002E0A84600E0A8462078D4
S31508003A8000F0010068B3A06F182819D005DC48B10A
S31508003A90082808D0102816D10BE0202811D028288D
S31508003AA011D10FE011E00121201D02F0E9FF0546C2
S31508003AB00BE0012104F1240003F094F8054604E024
S31508003AC003E002E001E0012500BF00BF55B97A48CE
S31508003AD02830006820F03800A16F0843764928315D
S31508003AE0086000E0A846207800F00200022828D1E5
S31508003AF0606F062815D2DFE800F003040A111213D6
S31508003B0011E00121201D02F0BBFF05460BE0012153
S31508003B1004F1240003F066F8054604E003E002E039
S31508003B2001E0012500BF00BF55B963482830006889
S31508003B3020F00700616F08435F492831086000E0FC
S31508003B40A846207800F0040004282AD1D4F890006A
S31508003B50062815D2DFE800F003040A11121311E053
S31508003B600121201D02F08CFF05460BE0012104F11E
S31508003B70240003F037F8054604E003E002E001E01C
S31508003B80012500BF00BF5DB94B482C30006820F006
S31508003B900700D4F89010084347492C31086000E024
S31508003BA0A846207800F02000202836D1D4F88C00CA
S31508003BB0B0F1405F1DD007DC68B1B0F1805F0BD073
S31508003BC0B0F1005F18D10DE0B0F1804F12D0B0F11E
S31508003BD0A04F11D10FE011E00021201D02F050FF87
S31508003BE005460BE0022104F1240002F0FBFF05461E
S31508003BF004E003E002E001E0012500BF00BF5DB973
S31508003C002D482830006820F0E040D4F88C1008438E
S31508003C1029492831086000E0A846207800F04000CD
S31508003C20402836D1D4F89800B0F5406F1DD007DC8F
S31508003C3068B1B0F5806F0BD0B0F5006F18D10DE004
S31508003C40B0F5805F12D0B0F5A05F11D10FE011E09A
S31508003C500021201D02F014FF05460BE0022104F1A5
S31508003C60240002F0BFFF054604E003E002E001E09D
S31508003C70012500BF00BF5DB90F482C30006820F44D
S31508003C80E050D4F8981008430B492C31086000E03E
S31508003C90A846207800F0800080283AD1D4F89C0005
S31508003CA0B0F5C04F23D00DDC98B1B0F5005F11D048
S31508003CB0B0F5804F1ED113E02C4402580048025834
S31508003CC0FFFCFF0FB0F5004F12D0B0F5204F11D111
S31508003CD00FE011E00021201D02F0D2FE05460BE0A0
S31508003CE0022104F1240002F07DFF054604E003E00A
S31508003CF002E001E0012500BF00BF4DB9B5480068E4
S31508003D0020F46040D4F89C100843B249086000E0EB
S31508003D10A846207800F00800082817D1D4F88000B3
S31508003D20B0F5805F07D1022104F1240002F05AFFA2
S31508003D3008B14FF00108A748001F006820F440505A
S31508003D40D4F880100843A349091F0860207800F0BA
S31508003D501000102815D1D4F89400B0F5807F07D14B
S31508003D60022104F1240002F03DFF08B14FF00108DA
S31508003D709848006820F44070D4F894100843954990
S31508003D800860206800F40020B0F5002F26D1D4F88A
S31508003D90A00030B1B0F5803F09D0B0F5003F0ED194
S31508003DA00CE00021201D02F06BFE054609E0022109
S31508003DB004F1240002F016FF054602E001E00125A1
S31508003DC000BF00BF4DB98348006820F44030D4F8DE
S31508003DD0A01008437F49086000E0A846206800F460
S31508003DE08020B0F5802F2DD1D4F88400B0F5801F3F
S31508003DF006D0B0F5001F0CD0B0F5401F11D10FE06A
S31508003E0074482C38006840F4003072492C39086030
S31508003E1009E0012104F1240002F0E4FE054602E06F
S31508003E2001E0012500BF00BF5DB96A48001F0068B0
S31508003E3020F44010D4F8841008436649091F086026
S31508003E4000E0A846206800F48030B0F5803F24D111
S31508003E50E06C18B1B0F5803F0FD108E05D482C380A
S31508003E60006840F400305B492C39086007E00221FD
S31508003E70201D02F005FE054601E0012500BF00BF32
S31508003E8055B954480C38006820F48030E16C084372
S31508003E9050490C39086000E0A846206800F0005038
S31508003EA0B0F1005F07D1022104F1240002F09AFE66
S31508003EB008B14FF00108206800F40030B0F5003F63
S31508003EC027D1E06FA0B1B0F5807F06D0B0F5007FAE
S31508003ED00CD0B0F5407F0CD109E03E482C3800687C
S31508003EE040F400303B492C39086004E003E002E066
S31508003EF001E0012500BF00BF55B93648001F00681C
S31508003F0020F44070E16F08433249091F086000E059
S31508003F10A846206800F48010B0F5801F09D12D4806
S31508003F200838006820F00040216F084329490839FD
S31508003F300860206800F08050B0F1805F0AD12548FB
S31508003F404838006820F48040D4F8B4100843214962
S31508003F5048390860206800F40010B0F5001F09D140
S31508003F601C480838006820F08070A16E084319497B
S31508003F7008390860206800F08040B0F1804F11D100
S31508003F8000BF14484838006820F4004011494839F1
S31508003F90086008460068D4F8B81008430D4948393F
S31508003FA0086000BF206800F00040B0F1004F09D15A
S31508003FB008480C38006820F04050216D0843054930
S31508003FC00C390860B8F1000F02D10020BDE8F08175
S31508003FD00120FBE7584402582DE9F04104460D46F6
S31508003FE014B90120BDE8F081BD48006800F00F0053
S31508003FF0A8420ED2BA48006820F00F002843B849F4
S3150800400008600846006800F00F00A84201D00120A9
S31508004010E8E7207800F0040004280ED1B1492069A9
S31508004020096801F07001884207D9AE48006820F097
S31508004030700021690843AB490860207800F0080041
S31508004040082811D1A749091D6069096801F070019E
S31508004050884209D9A348001D006820F070006169EC
S315080040600843A049091D0860207800F010001028B0
S3150800407011D19C49091DA069096801F4E0618842CB
S3150800408009D99848001D006820F4E060A169084332
S315080040909449091D0860207800F02000202811D1D5
S315080040A090490831E069096801F07001884209D928
S315080040B08C480830006820F07000E1690843894997
S315080040C008310860207800F0020002280ED18549E0
S315080040D0E068096801F00F01884207D9814800683D
S315080040E020F00F00E16808437E490860207800F058
S315080040F00100002850D07B48006820F47060A16851
S315080041000843784908606068022807D17548183856
S315080041100068C0F34040F8B9012063E760680328E7
S3150800412007D1704818380068C0F34060A0B901206C
S3150800413058E76068012807D16A4818380068C0F34C
S31508004140002048B901204DE7664818380068C0F3D2
S31508004150800008B9012045E762480838006820F061
S315080041600700616808435F4908390860FEF74CFA9A
S31508004170064608E0FEF748FA801B41F28831884275
S3150800418001D903202EE757480838006800F03800A0
S315080041906168B0EBC10FEDD1207800F0020002286B
S315080041A00ED15049E068096801F00F01884207D22C
S315080041B04C48006820F00F00E16808434949086048
S315080041C04748006800F00F00A8420ED94448006826
S315080041D020F00F002843424908600846006800F0AE
S315080041E00F00A84201D00120FCE6207800F0040068
S315080041F004280ED13B492069096801F070018842FC
S3150800420007D23848006820F070002169084335490C
S315080042100860207800F00800082811D13149091DE6
S315080042206069096801F07001884209D22D48001DAD
S31508004230006820F07000616908432A49091D086072
S31508004240207800F01000102811D12649091DA06910
S31508004250096801F4E061884209D22248001D006815
S3150800426020F4E060A16908431E49091D086020780A
S3150800427000F02000202811D11A490831E0690968A0
S3150800428001F07001884209D216480830006820F00B
S315080042907000E169084313490831086000F076F8B0
S315080042A010490968C1F303210F4A515C01F01F0147
S315080042B020FA01F70B48006800F00F001146085C69
S315080042C000F01F0027FA00F0084908600848076050
S315080042D008480068FEF7DAF98046404682E600009C
S315080042E00020005218440258ECA50008F8000020E7
S315080042F0F40000200400002010B500F047F80D492E
S315080043000968C1F303210C4A515C01F01F0120FA28
S3150800431001F40848006800F00F001146085C00F038
S315080043201F0024FA00F0054908600548046008469D
S31508004330006810BD18440258ECA50008F8000020D3
S31508004340F400002000B5FFF7D7FF05490968C1F357
S315080043500211044A515C01F01F01C84000BD00006B
S315080043601C440258ECA5000800B5FFF7C5FF05492F
S315080043700968C1F30221044A515C01F01F01C840D3
S3150800438000BD00001C440258ECA50008F0B5824E9A
S31508004390366806F0380636B1082E15D0102E15D018
S315080043A0182E7DD114E07C4E103E3668C6F34016B2
S315080043B046B1794E103E3668C6F3C107774E26FADF
S315080043C007F000E07548E5E07548E3E07548E1E088
S315080043D0714E1836366806F003046F4E183636687E
S315080043E0C6F305116C4E1C36366806F001056A4E92
S315080043F024363668C6F3CC0616FB05F601EE106AB7
S31508004400B8EE410A002971D024B1012C50D0022CF3
S315080044106DD16DE0604E103E3668C6F340163EB369
S315080044205D4E103E3668C6F3C1075C4E26FA07F3A2
S3150800443001EE103AF8EE411A01EE101AB8EE411ADA
S3150800444081EE812A9FED581AC0EE011A524E203687
S315080044503668C6F3080601EE106AB8EE411A31EE60
S31508004460811AF7EE001A31EE211A62EE010A1EE0F1
S3150800447001EE101AB8EE411ADFED4C1A81EE812AC8
S315080044809FED491AC0EE011A434E20363668C6F328
S31508004490080601EE106AB8EE411A31EE811A00E0FC
S315080044A076E0F7EE001A31EE211A62EE010A5BE0B9
S315080044B001EE101AB8EE411A9FED3D2AC2EE011A16
S315080044C09FED391A80EE012A334E20363668C6F338
S315080044D0080601EE106AB8EE411A32EE011AB7EE76
S315080044E0002A31EE021A61EE810A3DE04EE01DE037
S315080044F001EE101AB8EE411ADFED2E1A81EE812A66
S315080045009FED291AC0EE011A234E20363668C6F3E7
S31508004510080601EE106AB8EE411A31EE811AF7EE76
S31508004520001A31EE211A62EE010A1DE001EE101A98
S31508004530B8EE411A9FED1E2AC2EE011A9FED1A1A0D
S3150800454080EE012A144E20363668C6F3080601EEB8
S31508004550106AB8EE411A32EE011AB7EE002A31EEA9
S31508004560021A61EE810A00BF00BF0B4E203636687C
S31508004570C6F34626721C01EE102AB8EE411AC0EEA2
S31508004580811ABCEEE11A11EE100A00E0002001E0E3
S31508004590034800BF00BFF0BD104402580090D00386
S315080045A000093D0000127A00000000460024744C01
S315080045B00024744A0024F44A2DE9F047044614B945
S315080045C00120BDE8F087207800F00100002870D0AF
S315080045D0FE48006800F03808FC481830D0F800900B
S315080045E0B8F1100F06D0B8F1180F0FD109F0030073
S315080045F002280BD1F54810380068C0F3404000285F
S315080046006AD06068002867D10120DAE700BF6068D1
S31508004610B0F5803F08D1ED481038006840F4803086
S31508004620EA49103908602EE0606868B9E74810382A
S31508004630006820F48030E5491039086008460068AB
S3150800464020F4802008601EE06068B0F5A02F0DD128
S31508004650DE481038006840F48020DC4910390860CC
S315080046600846006840F4803008600CE0D7481038E7
S31508004670006820F48030D54910390860084600687B
S3150800468020F48020086000BF606898B1FDF7BCFF81
S31508004690054606E0FDF7B8FF401B642801D903204C
S315080046A08FE7CA4810380068C0F340400028F1D0A8
S315080046B012E012E0FDF7A8FF054606E0FDF7A4FFA5
S315080046C0401B642801D903207BE7C04810380068DE
S315080046D0C0F340400028F1D100BF207800F0020066
S315080046E002287BD1B948006800F03808B748183066
S315080046F0D0F80090B8F1000F05D0B8F1180F3AD1EC
S3150800470009F00300B0BBB14810380068C0F3800058
S3150800471018B1E06808B9012053E700BFFDF76EFF3E
S3150800472041F20301884219D8206940280AD1A748CE
S315080047300C38006820F47C3040F40030A3490C396A
S31508004740086016E0A1480C38006820F47C3021691E
S3150800475040EA01309D490C3908600AE09B480C384C
S31508004760006820F0FE40217C40EA016097490C3938
S31508004770086067E0FFE7E06888B394481038006887
S3150800478020F01900E1680843904910390860FDF7E0
S315080047903BFF054606E0FDF737FF401B022801D917
S315080047A003200EE7894810380068C0F38000002807
S315080047B0F1D000BFFDF722FF41F2030188421BD862
S315080047C0206940280CD181480C38006820F47C30D8
S315080047D040F400307D490C39086018E033E017E0F2
S315080047E07A480C38006820F47C30216940EA0130A8
S315080047F076490C3908600AE074480C38006820F0DD
S31508004800FE40217C40EA016070490C39086019E0D5
S315080048106E481038006820F001006C4910390860AD
S31508004820FDF7F2FE054606E0FDF7EEFE401B022800
S3150800483001D90320C5E6654810380068C0F3800032
S315080048400028F1D100BF207800F0100010287CD194
S315080048505E48006800F038085C481830D0F80090C8
S31508004860B8F1080F06D0B8F1180F3DD109F00300CA
S31508004870012839D1554810380068C0F3002020B106
S31508004880E069802801D001209BE600BFFDF7B6FE4F
S3150800489041F2030188421AD8206A20280AD14B48D7
S315080048A00C38006820F0F84040F0804047490C3941
S315080048B0086018E045480C38006820F0F84094F87D
S315080048C0201040EA816041490C3908600BE03F48F6
S315080048D0001F006820F07C5094F8201040EA016020
S315080048E03A49091F086066E0E06978B33748103826
S315080048F0006840F08000354910390860FDF784FEED
S31508004900054606E0FDF780FE401B022801D9032074
S3150800491057E62E4810380068C0F300200028F1D06A
S3150800492000BFFDF76BFE41F2030188421CD8206ADE
S3150800493020280CD125480C38006820F0F84040F0B3
S31508004940804022490C3908601AE035E019E01F4812
S315080049500C38006820F0F84094F8201040EA81608E
S315080049601A490C3908600BE01848001F006820F047
S315080049707C5094F8201040EA01601449091F086029
S3150800498019E012481038006820F080000F491039E5
S315080049900860FDF739FE054606E0FDF735FE401BC3
S315080049A0022801D903200CE6084810380068C0F32D
S315080049B000200028F1D100BF207800F00800082860
S315080049C034D16069D8B10148643001E01044025816
S315080049D0006840F00100EF490860FDF715FE05463E
S315080049E006E0FDF711FE401B022801D90320E8E581
S315080049F0E8480068C0F340000028F2D016E0E54811
S31508004A00006820F00100E3490860FDF7FDFD054652
S31508004A1006E0FDF7F9FD401B022801D90320D0E581
S31508004A20DC480068C0F340000028F2D1207800F086
S31508004A302000202836D1A069D0B1D648743800683D
S31508004A4040F48050D34974390860FDF7DDFD05460A
S31508004A5006E0FDF7D9FD401B022801D90320B0E581
S31508004A60CC4874380068C0F340300028F1D019E00B
S31508004A70C8487438006820F48050C64974390860FC
S31508004A80FDF7C2FD054606E0FDF7BEFD401B022800
S31508004A9001D9032095E5BF4874380068C0F3403053
S31508004AA00028F1D1207800F0040004287DD1BA4806
S31508004AB0006840F48070B8490860FDF7A5FD054612
S31508004AC006E0FDF7A1FD401B642801D9032078E51F
S31508004AD0B148006800F480700028F2D000BFA068D2
S31508004AE0012808D1AB48001F006840F00100A94919
S31508004AF0091F08602DE0A06868B9A648001F00686D
S31508004B0020F00100A349091F08600846006820F044
S31508004B10040008601DE0A06805280DD19D48001F07
S31508004B20006840F004009B49091F086008460068B1
S31508004B3040F0010008600CE09648001F006820F06D
S31508004B4001009449091F08600846006820F004001F
S31508004B50086000BFA068A0B1FDF756FD054608E04D
S31508004B60FDF752FD401B41F28831884201D90320E6
S31508004B7027E58848001F0068C0F340000028EFD0EA
S31508004B8013E0FDF741FD054608E0FDF73DFD401B36
S31508004B9041F28831884201D9032012E57D48001F79
S31508004BA00068C0F340000028EFD1606A00287DD075
S31508004BB078486438006800F03800182877D0606AAA
S31508004BC0022875D173487438006820F080707149DE
S31508004BD074390860FDF718FD054606E0FDF714FD73
S31508004BE0401B022801D90320EBE46A4874380068A0
S31508004BF0C0F340600028F1D100BFD4E90A1041EAA9
S31508004C00001064494C39096840F2F332914308436D
S31508004C1060494C390860208E401EC0F30800616B5D
S31508004C20491E4FF47E4202EA41210843218F491E5C
S31508004C30D20102EA014108433C21095D491E1202DC
S31508004C4002EA0161084353494439086000BF081F56
S31508004C50006820F00100091F08604E4840380068C7
S31508004C604FF6F8718843A16C40EAC10049494039BA
S31508004C70086048484838006820F00C00216C084352
S31508004C804449483908600846006820F00200616C0B
S31508004C9008434049483908600846006840F48030AF
S31508004CA008600846006840F4003002E06FE041E022
S31508004CB025E008600846006840F480200860084639
S31508004CC0006840F00100086032487438006840F017
S31508004CD08070304974390860FDF796FC054606E091
S31508004CE0FDF792FC401B022801D9032069E42948F4
S31508004CF074380068C0F340600028F1D047E02548C2
S31508004D007438006820F08070224974390860FDF70D
S31508004D107BFC054606E0FDF777FC401B022801D917
S31508004D2003204EE41B4874380068C0F3406000282E
S31508004D30F1D12CE017484C380768164844380668FD
S31508004D40606A012821D007F00301A06A81421CD1BC
S31508004D50C7F30511E06A884217D1C6F30801206B2C
S31508004D60401E814211D1606B401EC6F3462188421F
S31508004D700BD1A06B401EC6F30641884205D1E06BF5
S31508004D80401EC6F30661884201D0012019E40020BE
S31508004D9017E4000074440258004802580349096899
S31508004DA021F460010143014A116070470404005868
S31508004DB070B504462546681EB0F1807F01D30120F0
S31508004DC00FE0681E4FF0E02148610F214FF0FF30D9
S31508004DD003F0FAF800204FF0E02188610720086107
S31508004DE0002070BD10B50346002200BF93F83C00B2
S31508004DF0012801D1022010BD012083F83C0000BF24
S31508004E0022F0FF00CC6840EA040222F440708C6865
S31508004E1040EA040222F480604C6840EA040222F464
S31508004E2000600C6840EA040222F480500C6940EAEB
S31508004E30040222F400504C6940EA040222F480403D
S31508004E408C6A40EA040222F470200C8B40EA044281
S31508004E500F4C1868A04203D00E4C1868A0420ED119
S31508004E6022F470008C8C40EA045222F08070CC69DF
S31508004E7040EA040222F000700C6A40EA040218684C
S31508004E80426400BF002083F83C0000BF00BFB2E7C1
S31508004E90000001400004014030B502460B4600BF41
S31508004EA092F83C00012801D1022030BD012082F889
S31508004EB03C0000BF022082F83D0010684168106877
S31508004EC084681F4D1068A84203D01E4D1068A8427A
S31508004ED003D121F470015868014321F07001186864
S31508004EE0014310684160164D1068A84217D0106833
S31508004EF0B0F1804F13D0144D1068A8420FD0134D4F
S31508004F001068A8420BD0124D1068A84207D00D4D64
S31508004F101068A84203D00F4D1068A84205D124F0A6
S31508004F2080049868044310688460012082F83D0074
S31508004F3000BF002082F83C0000BF00BFB5E70000B4
S31508004F400000014000040140000400400008004041
S31508004F50000C00400018004010B504460CB90120AA
S31508004F6010BD94F83D0028B9002084F83C0020467E
S31508004F7000F02AF8022084F83D00211D206801F07F
S31508004F80B5FF012084F8480000BF84F83E000121DF
S31508004F903F20015540200155412001554220015529
S31508004FA04320015500BF00BF012084F84400452076
S31508004FB00155462001554720015500BF012084F8B8
S31508004FC03D000020CCE7000008B5094A0168914277
S31508004FD00DD100BF0749096841F00101054A116072
S31508004FE01146096801F00101009100BF00BF08BD24
S31508004FF000000140F04402582DE9F04104460D46F0
S3150800500000BF94F83C00012802D10220BDE8F081D7
S31508005010012084F83C0000BF022084F83D00206887
S3150800502086684048064026F47F46206886602868D9
S31508005030702826D00CDC00F00F01002966D100117B
S31508005040072863D2DFE800F0555657584B3741001A
S31508005050B0F1101F52D009DCB0F5805F10D0B0F562
S31508005060005F1BD0B0F5801F50D146E0A0F5801038
S315080050702038002843D0102842D0202846D140E0C6
S3150800508045E0D5E902136A68206801F0A6FF2068A2
S31508005090866846F077062068866038E0D5E9021308
S315080050A06A68206801F099FF2068806840F48040AB
S315080050B0216888602BE0EA686968206802F050F980
S315080050C05021206801F094FF21E0EA6869682068A9
S315080050D002F059F96021206801F08AFF17E0EA68B2
S315080050E06968206802F03CF94021206801F080FFD9
S315080050F00DE000BF00BF00BF00BF00BF00BF00BF7C
S3150800510000BF2968206801F073FF00E000BF00BFF8
S31508005110012084F83D0000BF002084F83C0000BF51
S3150800512000BF73E788FFCEFF2DE9F04104460D4620
S3150800513014B90120BDE8F08194F83D0028B9002093
S3150800514084F83C00204600F055F8022084F83D001B
S31508005150206880682649084021688860211D2068E3
S3150800516001F0C4FE2068D0F80880206886692068A7
S31508005170076A286840EA080840F203308643A969A6
S31508005180A86840EA0120064340F60C4086434FF2E1
S31508005190F0008643E969E86840EA01200643286981
S315080051A00001296A40EA0130064327F0220727F062
S315080051B088076969686840EA011007432068C0F8EB
S315080051C008802068866120680762012084F8480004
S315080051D084F83E0001213F200155012084F844004F
S315080051E045200155012084F83D000020A2E7000073
S315080051F0F8BFFEFF70472DE9F04304460D4694F8C4
S315080052003E603F20075D94F84480452010F80490DE
S315080052106DB9012E02D1B8F1010F02D00120BDE807
S31508005220F083022084F83E0084F8440025E0042D2B
S315080052300CD1012F02D1B9F1010F01D00120EEE7FF
S3150800524002213F2001554520015516E0012E07D1C0
S31508005250012F05D1B8F1010F02D1B9F1010F01D023
S315080052600120DCE7022084F83E0002213F20015598
S31508005270022084F844004520015515B1042D0CD1AF
S3150800528005E001220021206801F096FE10E00122C7
S315080052900421206801F090FE0AE00122002120681E
S315080052A001F08AFE01220421206801F085FE00BF74
S315080052B000BF2068006840F00100216808600020EF
S315080052C0ADE7000010B586B00446142101A8FBF727
S315080052D04BF81149206888421BD100BF0F48006867
S315080052E040F010000D4908600846006800F01000FC
S315080052F0009000BF00BF4FF4285001900220029092
S315080053000020039004900120059001A90448FDF7A8
S315080053106BF806B010BD000000000140E0440258DA
S315080053200010025870B504460E46154600BF94F89C
S315080053303C00012801D1022070BD012084F83C0000
S3150800534000BF0C2D1AD005DC4DB1042D0CD0082D4C
S3150800535023D10EE0102D16D0142D1ED118E031469B
S31508005360206801F051FE19E03146206801F0A2FEDE
S3150800537014E03146206801F0F7FE0FE03146206858
S3150800538001F04AFF0AE03146206801F07DFF05E09A
S315080053903146206801F0AEFF00E000BF00BF00BF45
S315080053A0002084F83C0000BF00BFC5E710B50446DE
S315080053B00CB9012010BD94F83D0028B9002084F8E6
S315080053C03C00204600F029F8022084F83D00211D03
S315080053D0206801F08BFD012084F8480000BF84F89E
S315080053E03E0001213F20015540200155412001552D
S315080053F0422001554320015500BF00BF012084F813
S31508005400440045200155462001554720015500BF57
S31508005410012084F83D000020CCE7704770B50446AB
S315080054200D46164600BF94F83C00012801D102201B
S3150800543070BD012084F83C0000BF0C2E51D005DC5D
S315080054404EB1042E1ED0082E7AD133E0102E60D02D
S31508005450142EF9D175E02946206801F0D5FD20689B
S31508005460806940F00800216888612068806920F01A
S3150800547004002168886120688069296908432168D1
S31508005480886177E02946206801F014FE2068806963
S3150800549040F40060216888612068806920F4806093
S315080054A02168886120688069296940EA01202168A5
S315080054B088615FE02946206801F056FE2068C069C9
S315080054C040F008002168C8612068C06920F004001F
S315080054D02168C8612068C069296908432168C861CC
S315080054E048E02946206801F097FE2068C06940F424
S315080054F000602168C8612068C06920F4806021685E
S31508005500C8612068C069296940EA01202168C86124
