:020000040800F2
:10000000300F0020B10200081F38000845350008F5
:100010001D380008130E0008A74800080000000063
:10002000000000000000000000000000653A000829
:10003000150E00080000000021380008673A00088B
:10004000CB020008CB020008CB020008CB0200085C
:10005000CB020008CB020008CB020008CB0200084C
:10006000CB020008CB020008CB020008CB0200083C
:10007000CB020008CB020008CB020008CB0200082C
:10008000CB020008CB020008CB020008CB0200081C
:10009000CB020008CB020008CB020008CB0200080C
:1000A000CB020008CB020008CB020008CB020008FC
:1000B000CB020008CB020008CB020008CB020008EC
:1000C000CB020008CB020008CB020008CB020008DC
:1000D000CB020008CB020008CB020008CB020008CC
:1000E000CB020008CB02000800000000CB02000891
:1000F000CB020008CB020008CB020008CB020008AC
:10010000CB020008CB020008CB020008CB0200089B
:10011000CB020008CB020008CB020008CB0200088B
:10012000CB020008CB020008CB020008CB0200087B
:10013000CB020008CB020008CB020008CB0200086B
:1001400000000000000000000000000000000000AF
:10015000CB020008CB020008CB020008CB0200084B
:10016000CB020008CB020008CB020008CB0200083B
:10017000CB020008CB020008CB0200080000000000
:10018000CB020008CB020008CB020008CB0200081B
:10019000CB020008CB020008CB020008CB0200080B
:1001A000CB020008CB020008CB020008CB020008FB
:1001B000CB020008CB020008CB020008CB020008EB
:1001C000CB020008CB020008CB020008CB020008DB
:1001D000CB020008CB020008CB020008CB020008CB
:1001E000CB020008CB020008CB020008CB020008BB
:1001F000CB020008CB020008CB020008CB020008AB
:10020000CB020008CB020008CB020008CB0200089A
:10021000CB020008CB020008CB020008CB0200088A
:10022000CB020008CB020008CB020008000000004F
:10023000CB020008CB02000800000000CB0200083F
:10024000CB020008CB020008CB020008CB0200085A
:10025000CB020008CB020008CB020008CB0200084A
:10026000CB020008CB020008CB020008CB0200083A
:10027000CB020008CB020008CB02000800000000FF
:10028000CB020008CB020008CB02000800000000EF
:1002900000000000CB020008DFF810D000F0EEFAFA
:1002A00000480047B15A0008AFF30080300F00202B
:1002B0000648804706480047FEE7FEE7FEE7FEE700
:1002C000FEE7FEE7FEE7FEE7FEE7FEE7213B00086C
:1002D000990200082DE9F05F0546002092469B46F2
:1002E00088460646814640241BE02846414647464C
:1002F000224600F069F853465A46C01A914110D37D
:1003000011461846224600F050F82D1A67EB0108F6
:100310004F4622460120002100F047F817EB000964
:100320004E41201EA4F10104DFDC484631462A4636
:100330004346BDE8F09F40EA01039B0703D009E074
:1003400008C9121F08C0042AFAD203E011F8013BC1
:1003500000F8013B521EF9D27047D2B201E000F81A
:10036000012B491EFBD270470022F6E710B5134659
:100370000A4604461946FFF7F0FF204610BD30B587
:100380000B46014600202022012409E021FA02F553
:100390009D4205D303FA02F5491B04FA02F52844ED
:1003A000151EA2F10102F1DC30BD202A04DB203A47
:1003B00000FA02F1002070479140C2F1200320FAB8
:1003C00003F3194390407047202A04DB203A21FAB6
:1003D00002F00021704721FA02F3D040C2F120025E
:1003E00091400843194670470FB4002300B589B007
:1003F0000CA900910B996FF00042CB601E4B069345
:100400001E4B07930423CDE901321D4A0892024690
:100410006B46002000F0F0FA09B05DF814FB70B5EF
:1004200086B006464FF0FF300091CDE90101002073
:1004300015460C4604903246694604A8FFF7D4FFDF
:1004400002460498211825B108B1084600E020466C
:100450002860049800280DD0002A02DD0098884208
:1004600008D0081B0094CDE901043246694604A86F
:10047000FFF7BAFF06B070BD310C00084F0C000842
:10048000C50800082DE9FE4F804681EA0300C00F31
:100490000C46009021F0004123F00045B8EB02002B
:1004A000A94105D24046214690461C460B460246CD
:1004B00023F00040104347D0270DC7F30A00C3F3D1
:1004C0000A510290401A019040286BDAC3F31300DE
:1004D00040F4801B0098924620B10023D2EB030A1F
:1004E00063EB0B0B01985946C0F140025046FFF7F1
:1004F0005CFF06460D4650465946019A00F0D0F979
:1005000010EB08006141002487EA115284EAE77386
:100510001A4340D0009A62B3019A012A4FEA075267
:1005200015DC001B61EB02014FF0004202EA0752AA
:10053000CDE90042001C41F5801132462B4600F007
:10054000A6FB03B0BDE8F08F40462146F9E7001B4B
:1005500061EB0201001C41F5801300185B4120187B
:10056000A2F5001747EB030140EAD570B6196D41BB
:1005700011E06D084FEA360645EAC0754FEA0752AA
:10058000001B61EB0201001C41F5801149084FEA94
:1005900030000019514132462B4603B0BDE8F04F00
:1005A00000F066BB0098012240000023D0EB02025D
:1005B00063EBE073009821464FEAE074B8EB00006B
:1005C00061EB0401E9E783F000435BE781F0004160
:1005D00058E72DE9FE4F81EA030404F0004421F0BE
:1005E000004100944FF0000B23F0004350EA010457
:1005F0005ED052EA03045BD0C3F30A54C1F30A5538
:100600002C44A4F2F3340194A0FB0254C1F313016F
:1006100041F48011C3F3130343F4801301FB02443C
:1006200000FB034E840A970A44EA815447EA835741
:10063000A4FB076802958D0A05FB07854FEA932CFA
:1006400004FB0C542705029D4FEA065847EA16376B
:10065000B5EB08056EEB070C870E920E47EA811783
:1006600042EA8312A7FB0201B6EB0B0164EB000424
:100670002B0D43EA0C335E1844EB1C50DA4651460E
:10068000E7FB0201C5F313044FEA0B3343EA1453AB
:100690004FEA0432019C43EA0603A4F10C040294DD
:1006A000009CCDE900B400F0F2FA03B0BDE8F08F91
:1006B00000200146F9E72DE9F04D81EA030404F03A
:1006C000004B21F0004514464FF0000A23F0004192
:1006D00050EA050220D054EA01021DD0C5F30A57A2
:1006E0000246C5F31303C1F31300C1F30A5640F4E5
:1006F000801543F48013A7EB0608101BD64608F2BA
:10070000FD3873EB050002D308F1010801E09218EF
:100710005B41B8F1000F03DA00200146BDE8F08D1F
:1007200000204FF48011064684460EE0171B73EB41
:10073000050705D3121B63EB050306434CEA010CC6
:1007400049084FEA300092185B4150EA0107EDD1A9
:1007500052EA030012D082EA040083EA050108434A
:1007600005D0101BAB4106D20122002306E0002277
:100770004FF0004302E06FF0010253101AEB060045
:100780004CEB085110EB0A0041EB0B01BDE8F04DBA
:1007900000F06EBA2DE9FE4FC3F30A5701F0004591
:1007A0000024C1F30A56C3F31303C1F3130143F446
:1007B000801312EB020AA64641F48011009543EB28
:1007C000030CA7F1010B16E0B0EB0A0061EB0C0182
:1007D000071E71F1000707DA4FF00008D0EB0800A0
:1007E00085F0004568EB0101171A73EB0107EBD3A5
:1007F000761E001849415E45F6DA50EA010209D03A
:10080000CDE900E500221346029600F040FA03B05D
:10081000BDE8F08F20460099F9E7C1F30A52C1F311
:10082000130140F2FF3341F480119A4202DA0020B2
:100830000146704740F233439A42A2F2334202DC4F
:100840005242FFF7C1BDFFF7B0BD000030B5041E36
:1008500071F1000404DB4FF00044404264EB0101FD
:10086000141E73F1000405DB1C464FF00043524296
:1008700063EB0403994208BF904230BD064C074D1C
:1008800006E0E06840F0010394E807009847103460
:10089000AC42F6D3FFF704FD88620008A8620008A6
:1008A000202A06DBCB17203A41FA02F043EAE07334
:1008B00006E041FA02F3D040C2F120029140084321
:1008C00019467047C0B24FF4F05100F02FBA000043
:1008D0002DE9FF4F087883B09946FF2805D0491CC1
:1008E0002D2804D00024002008E000200BE0012483
:1008F000F9E700EB800003EB4000491C0B78FF2B6D
:10090000F7D104B1404200230293147819461D46E2
:100910002D2C01D02B2C04D1521C2D2C13D00024B3
:100920000294AA461478FF2C0FD00A25A3FB057861
:1009300001FB05814FF0000C03FB0C11521CE31965
:100940004AEB0101EEE70124EAE7814453EA0100A2
:1009500002D019F5C87F06DA03980021C0E900111A
:1009600007B0BDE8F08F0025AE4E2F46DFF8B88205
:10097000184600F0EFF9CDE90001B9F1000002DA04
:10098000C9F1000400E004460023A74A1AEB030B58
:1009900042EB045A12E0E00707D02A4633463846B5
:1009A0004146FFF716FE074688462A46334610465C
:1009B0001946FFF70EFE05460E466410002CEAD1DC
:1009C000DDE90001B9F1000F5A46534606DAFFF798
:1009D00072FE3A464346FFF76EFE05E0FFF7F9FD6B
:1009E0003A464346FFF7F5FD029A0AB181F000410D
:1009F000039AC2E90001B3E72DE9FF4F1F468DB00E
:100A0000D7E901464FF0FF382E2045464FF0000948
:100A10000B90B9696D1C0E988847396A82468847E1
:100A20000028F6D1BAF1FF3F0AD024F4D064002E9A
:100A300011DDBAF12B0F08D0BAF12D0F0BD102E066
:100A4000404611B08DE744F48064B9696D1C0E987E
:100A500088478246761E6946600501D52D2000E054
:100A60002B208DF8000001F1010B0DF1200809E0A9
:100A7000B9696D1C0E98884782460F9844F400743B
:100A8000761E0560002E02DDBAF1300FF0D00B9912
:100A90008A453ED144F0800406E00F99681CA9F114
:100AA000010944F400740860B9696D1C761E0E9843
:100AB000884782463028F0D02BE00B998A4505D133
:100AC000200603D444F08004761E18E0504604F05B
:100AD000C5FA08B30DF11301761E44F400748B457A
:100AE00008D2AAF130000BF8010B200607D5A9F1B6
:100AF000010003E0200602D409F101008146A005AF
:100B000002D50F99681C0860B9696D1C0E9888475A
:100B10008246002ED1DC53E0002E51DDBAF1650F84
:100B200002D0BAF1450F4BD1A00549D5B9696D1C6A
:100B300024F44074761E0E9888478246002E0CDD01
:100B40002B2804D0BAF12D0F07D144F48074B96971
:100B50006D1C0E9888478246761EE00501D52D2132
:100B600000E02B2108F8011BCDF82C8021E00DF1CD
:100B70002901761E44F4007488450CD2AAF1300095
:100B800010F0FF0088F8000002D10B99884509D9C0
:100B900008F1010806E0E00501D5244801E042F231
:100BA0000F708146B9696D1C0E98884782460F9870
:100BB0000560002E04DD504604F050FA0028D6D11E
:100BC000F9690E988847FF208BF8000088F800002C
:100BD0000020069007904B466A4608A906A8FFF732
:100BE00077FEA00502D46FF001002AE714F0240F6D
:100BF0000AD0E00714D1DDE906123868031D3B6016
:100C00000068C0E900120BE0DDE9060100F0AEF873
:100C10000146E00704D13868021D3A6000680160AF
:100C200028460EE7000014400000F03FF1D8FFFF17
:100C3000426842B1016811F8013B23B1521EC0E97C
:100C40000012184670470121C160881E7047426833
:100C50005AB1C368016843B983688B4205D0491E05
:100C6000521CC0E90012002070474FF0FF3070475F
:100C700010B5141E73F1000408DA401C41F10001A4
:100C800092185B411A4301D120F0010010BD2DE9FB
:100C9000F04D92469B4611B1B1FA81F202E0B0FAF2
:100CA00080F220329046FFF780FB04460F4640EA70
:100CB0000A0041EA0B0153465A46084313D0114635
:100CC00053EA010019D0C8F140025046FFF77CFBFF
:100CD00005460E46504659464246FFF766FB084316
:100CE00005D0012004E020463946BDE8F08D002003
:100CF000054346EAE0762C4337430A986305E40A45
:100D0000A0EB08000022FD0A44EA47540A3002D54D
:100D100000200146E9E7010510196941DDE90845B0
:100D200000196941BDE8F04DA2E700007F2801D914
:100D3000002208E0064A02EB5002C007127800D1F8
:100D4000120902F00F020120904008407047000095
:100D5000486200080EB540F2334202920022CDE90B
:100D600000221346FFF793FF03B000BD01F00043DC
:100D700030B421F0004150EA010206D00A0DA2F57C
:100D80006072C1F31301002A02DC30BC00207047FE
:100D9000440F44EAC104C100E01830BC00EBC2506B
:100DA000AFF300800029A8BF7047401C490008BF6E
:100DB00020F00100704710B4B0FA80FC00FA0CF08B
:100DC00050EA010404BF10BC704749B1CCF12004C3
:100DD00021FA04F411FA0CF118BF01212143084350
:100DE000A3EB0C01CB1D4FEA00614FEA102042BF7C
:100DF000002010BC704700EBC35010440029A4BF72
:100E000010BC7047401C490008BF20F0010010BC16
:100E10007047FEE7704770B5A2B0064600244FF455
:100E2000C36001258DF80F5002238DF81D40690322
:100E30008DF80E5009948DF81F400D9020208DF8EC
:100E400004508DF8325042028DF8605006914FF0F8
:100E500040518DF8384002948DF861408DF81C4067
:100E60008DF828408DF862408DF80C400B948DF879
:100E70001E500F948DF8115012948DF840408DF84B
:100E800031408DF8124014948DF85640179030463A
:100E900016938DF8205005928DF854408DF830400F
:100EA0008DF81050009169468DF80D408DF8554031
:100EB00011948DF84C5000F075F81B9568058DF86D
:100EC00071404FF406718DF8685019948DF8804088
:100ED0008DF870401F908DF878401D9030468DF849
:100EE0008140219119A900F003F822B070BD0000E3
:100EF000F0B5026847F6020E274E4DF2010702F5E3
:100F00008052264DD1F800C01368254C23EA0E0309
:100F100043EA0C0313600B79026891F80CE002F5C8
:100F20008052D1F808C01B0343EACE3343EA0C03D6
:100F3000D2F804C02CEA070C4CEA030CC2F804C037
:100F400002684F7B02F580520B6A43EA0747D2F8EA
:100F5000003133403B43C2F8003102680B7D02F59B
:100F6000805291F81DC00F69D2F804611B0143EA59
:100F70000C332E403B431E43C2F8046100680B7FD4
:100F800000F580508A69D0F8081142EAC372214006
:100F90001143C0F80811F0BD00C0FEFFEFEFC0FF25
:100FA000FFFFC07FF0B50B790C7B0F688A68DB060A
:100FB0004D7B43EAC4533A438E7B1A43CF7B91F86F
:100FC00010C042EA855242EA4652BCF1000F42EAA2
:100FD00007537CD000224C7C002C43EAC24278D0DC
:100FE00000238E7C0D7F42EA43428F7FD1E9053496
:100FF00042EA06424E7F1A43224342EA0532002F5C
:1010000042EAC62466D00022CD7F91F8203044EA1F
:101010008222002B42EA45227ED0002504684B6ADA
:1010200042EA052291F82870464D1A43CE6A236899
:1010300042EA071232432B401343236091F83C20CD
:1010400091F8383091F8305091F83140520642EA28
:10105000036291F8326042EA854242EA4444BEB3F8
:1010600000220368384E4F6B44EA02425C683A4300
:1010700040F20F15344014435C60036891F84060FF
:101080004C6CDA6844EA0624AA432243DA6091F8F9
:1010900054300A6D91F84C4042EA4302ECB300240C
:1010A0000368B1F848504FF60D76E7011C6F47EA28
:1010B00005452A43344014431C67026891F85630B2
:1010C00091F8555052F8904F43EA450303E02BE066
:1010D00032E02BE02CE024F003041C43146002688F
:1010E0008C6DD2F8003D23F072032343C2F8003D1B
:1010F00091F86020CC6D1AB35FF00003026891F89C
:10110000615091F8621044EA8310D2F8303D2C010E
:1011100044EAC101084301E00CE00FE023F07B0149
:101120000143C2F8301DF0BD012254E7012358E706
:10113000012269E7012571E7012292E70124AFE767
:101140000123DBE7838004000080F8C070B504460B
:1011500000F0B8FA0546601C02D004480078044448
:1011600000F0B0FA401BA042FAD370BD0800002086
:10117000F8B5040002D0606D10B104E00120F8BDA4
:10118000204600F0FBF8232060657248016841F0BA
:1011900002010160006800F002000090207A08B1AE
:1011A0004FF4000001F070FE206800F580500168E7
:1011B00041F00101016000F085FAE02605464FF498
:1011C000FA7706E000F07EFA401BB84201D904200D
:1011D00049E0206800F580500068C007F2D120681F
:1011E000D0F8000220F4706501F0E8FA5A495B4A31
:1011F0000144914202D245F4007516E0584A59491B
:1012000002448A4202D245F440750EE05649574ADC
:101210000144914209D35649564A0844904202D2A9
:1012200045F4807501E045F480652068C0F80052FF
:1012300001F0C4FA504A2168B0FBF2F0401EC1F838
:10124000DC002046FFF7E7FD206800F58050D0F86D
:10125000001121F4E01141F40021C0F8001161698E
:10126000880703D00120E065666587E7206847F6B8
:10127000FE7300F58050D0F808219A4342EA4101FC
:10128000C0F8081100210A46E06802EB420504EBB1
:10129000820300EBC500016041608160C160521CA7
:1012A000042A9861F0D3A1620323206800F58050DE
:1012B000C0F82C312068E26800F58050C0F8142195
:1012C0002068E26800F58050C0F820215FF000023D
:1012D000206902EB420604EB820500EBC6000160C8
:1012E00041608160C160521C0161042A4161E86271
:1012F000EED3E16321646164E164A164206800F5D8
:101300008050C0F830312068226900F58050C0F864
:101310001C212268206902F580524830C2F8280159
:101320001022D4E900308088C3F80003D4E90030EB
:101330008578C77890F801C006782D0446EA0760E2
:1013400045EA0C252843C3F80403E1656265A265FC
:101350000020F8BDF444025800D3CEFEC0E1E40002
:1013600040F1E9FD40787D0100796CFC005A620291
:10137000001F0AFA80F0FA0240420F0070B586B0F2
:10138000044614216846FEF7EFFF3649206888427C
:1013900066D13548016841F400410160016801F4FB
:1013A00000410591016841F480310160016801F458
:1013B00080310591016841F400310160006800F45A
:1013C0000030059028480830016841F004010160B0
:1013D000016801F004010591016841F0010101601B
:1013E000016801F001010591016841F0020101600D
:1013F000016801F002010591016841F040010160BE
:10140000006800240B26694600F040000590322059
:10141000009002251548CDE90154CDE9034600F0BE
:101420002DF886200090CDE9015411486946CDE998
:10143000034600F023F828030090CDE901540D483D
:101440006946CDE9034600F019F84FF420500090AA
:10145000CDE9015408486946CDE9034600F00EF88D
:1014600006B070BD00800240D844025800080258FF
:101470000000025800040258001802582DE9FC4FE1
:1014800001257E4C00234FF0030A4FF0B04E4FF081
:101490000F0BEBE005FA03F637403A0077D04F68C0
:1014A000012F05D0022F03D0112F01D0122F1AD1F6
:1014B00087684FEA4308D1F80CC00AFA08F927EA0E
:1014C00009070CFA08FC4CEA070CC0F808C047688A
:1014D00091F804C0B743CCF3001C0CFA03FC4CEAAF
:1014E000070CC0F804C0C6684FEA430CD1F8088066
:1014F000E1460AFA0CF7BE43019708FA09F848EAF0
:101500000608C0F80C804E68022E01D0122E12D1AF
:10151000DE084FEA437C00EB860600960F69366AC8
:101520004FEADC6C0BFA0CF807FA0CF726EA08060F
:101530003743009E37620E790768DDF804C006F075
:10154000030606FA09F627EA0C073E4306604E68D2
:10155000F6001CD54A4E376847F0020737603668F8
:101560009F0706F00206009623F0030606F1B04638
:10157000B1463F0FD6F80864DFF808810BFA07FC84
:10158000404526EA0C0603D14FF0000C41E06CE028
:10159000DFF8F4C0604502D14FF0010C39E0DFF80C
:1015A000ECC0604502D14FF0020C32E0DFF8E0C041
:1015B000604502D14FF0030C2BE0DFF8D8C0604546
:1015C00002D14FF0040C24E0DFF8CCC0604502D11A
:1015D0004FF0050C1DE0DFF8C4C0604502D14FF0AC
:1015E000060C16E0DFF8B8C0604502D14FF0070CDA
:1015F0000FE0DFF8B0C0604502D14FF0080C08E002
:10160000DFF8A4C0604502D14FF0090C01E04FF0B3
:101610000A0C0CFA07FC4CEA060CC9F808C4266848
:101620004F6826EA0206FF0300D516432660666867
:101630004F6826EA0206BF0300D516436660D1F85C
:1016400004C07646DEF800705FEACC2C27EA020779
:1016500000D517433760D1F804C077685FEA8C2C57
:1016600027EA020700D5174377605B1C0A68174614
:10167000DA407FF40FAFBDE8FC8F00008000005817
:10168000F4440258000002580004025800080258AE
:10169000000C02580010025800140258001802589A
:1016A000001C025800200258002402580AB181612F
:1016B00070470904FBE7000001480068000C704710
:1016C0000010005C0148806870470000080000209E
:1016D0000248816802781144816070470800002048
:1016E000032010B500F078F801F0AEF80F4A104969
:1016F00014681368C4F3032203F00F038A5CC95C07
:1017000002F01F0201F01F01D0400A4A20FA01F145
:10171000116009490860002000F010F808B10120AC
:1017200010BD00F02BF8002010BD00001844025836
:10173000745E0008180000201400002070B50D4DE4
:1017400004462878A0B14FF47A71B1FBF0F00A4951
:101750000968B1FBF0F001F0A1FB48B9102C07D2E9
:1017600000222146501E00F017F800206C6070BD6A
:10177000012070BD0800002014000020054808B5B5
:10178000016841F002010160006800F00200009071
:1017900008BD0000F44402580E4BF0B41B680D461F
:1017A000C3F30223C3F10706042E00D90426191D32
:1017B000072901D2002300E0DB1E012404FA06F110
:1017C0009C40491E2940641E994014402143F0BCAE
:1017D00003F092B80CED00E0064900F0070210B5E6
:1017E0004FF6FF040868044B204040EA02201843EB
:1017F000086010BD0CED00E00000FA05016801234F
:10180000C0F8FC33002280F8F4238869044A40F0D1
:1018100000608861486D10434865002070470000F3
:10182000030000102DE9F04104008AB005D094F8BF
:10183000BD030025266820B108E001200AB0BDE8FC
:10184000F081204684F8BC5300F066F8032084F849
:10185000BD03F06BC00500D42561206802F0E4FFF1
:1018600004F11001684628228846FEF764FD94E8DA
:101870000F0002F0B9FE0227D8BB2068002102F059
:10188000FBFF0020012610E0C0EBC001421C04EB6E
:10189000810181F83D6081F83F504D648D640D6594
:1018A00081F83C00A1F84200D0B261688142EBD8D7
:1018B000002011E0C0EBC001421C04EB810181F863
:1018C000FD5181F8FF51C1F80452C1F80852C1F826
:1018D000105281F8FC01D0B261688142EAD8282216
:1018E00041466846FEF727FD94E80F0002F0E0FE4F
:1018F00010B184F8BD73A0E7606A84F8385084F8AA
:10190000BD63012802D12046FFF778FF206802F06E
:10191000C3FE002092E7000030B587B004461421D2
:101920006846FEF721FD18492068884229D11748EA
:10193000016841F001010160006800240221144D9A
:1019400000F0010005904FF4E8500A228DE81300E2
:10195000CDE9034269462846FFF790FD4FF4007039
:101960006946CDE9000428460294FFF787FD074841
:101970000838016841F000610160006800F0006013
:10198000059007B030BD000000000840E044025858
:1019900000000258134970B50A68D243520705D5B2
:1019A000096801F00701814213D118E00A6822F0AA
:1019B000070202430A60FFF785FE0A4D4FF47A766C
:1019C0000446083D07E000BFFFF77CFE001BB04265
:1019D00001D9012070BD2868C0438004F4D40020E0
:1019E00070BD00000C4802580248016841F0807147
:1019F000016070470C48025810B500F0DFFE054941
:101A00000968054AC1F30211515C01F01F01C84089
:101A100010BD000020440258745E0008494930B5EA
:101A2000484C0B1D0A68143409681D68246802F0CC
:101A30000303C5F30012C1F30531C4F3CC0400293C
:101A400014FB02F200EE102AF8EE400A75D03F4A6D
:101A50009FED3D1AB7EE000A6BB1DFED3D1A012B89
:101A600001D0022B64D002EE101A1168F8EE422A5F
:101A700081EEA22A21E0334C283C23689B0612D534
:101A8000344B246801EE901A1168C4F3C104F8EED7
:101A9000612AE34001EE903AC1F30801F8EE611AC1
:101AA00081EEA22A0BE001EE901ADFED2B2A00BF97
:101AB000F8EE611A116882EEA12AC1F3080101EE65
:101AC000901A1168F8EE611A40EE811A71EE800AE0
:101AD00062EE200AC1F3462101EE101AB8EE411A57
:101AE00031EE001AC0EE811ABCEEE11A80ED001A48
:101AF0001168C1F3064101EE101AB8EE411A31EE39
:101B0000001AC0EE811ABCEEE11A80ED011A1168CC
:101B1000C1F3066101EE101AB8EE411A31EE000A67
:101B200080EE801ABCEEC10A80ED020A30BD04E0EE
:101B300001EE901ADFED092ABAE700210160416049
:101B40008160F3E728440258000000393844025805
:101B50000024744A0090D0030024744C0024F44AFA
:101B6000494930B5484C0B1D0A681C3409681D688A
:101B7000246802F00303C5F30022C1F30551C4F346
:101B8000CC04002914FB02F200EE102AF8EE400A01
:101B900075D03F4A9FED3D1AB7EE000A6BB1DFEDFD
:101BA0003D1A012B01D0022B64D002EE101A1168ED
:101BB000F8EE422A81EEA22A21E0334C283C236829
:101BC0009B0612D5344B246801EE901A1168C4F3B9
:101BD000C104F8EE612AE34001EE903AC1F3080136
:101BE000F8EE611A81EEA22A0BE001EE901ADFED09
:101BF0002B2A00BFF8EE611A116882EEA12AC1F308
:101C0000080101EE901A1168F8EE611A40EE811A8F
:101C100071EE800A62EE200AC1F3462101EE101A2D
:101C2000B8EE411A31EE001AC0EE811ABCEEE11A8C
:101C300080ED001A1168C1F3064101EE101AB8EEEA
:101C4000411A31EE001AC0EE811ABCEEE11A80EDA5
:101C5000011A1168C1F3066101EE101AB8EE411ABB
:101C600031EE000A80EE801ABCEEC10A80ED020A55
:101C700030BD04E001EE901ADFED092ABAE7002139
:101C8000016041608160F3E7284402580000003998
:101C9000404402580024744A0090D0030024744C3D
:101CA0000024F44A2DE9FC5F044650F8241B00256B
:101CB00000902E460801FE4FDFF8F8831DD5606EB8
:101CC00050B1B0F5801F0CD0B0F5001F0ED0B0F5AC
:101CD000401F1DD001250FE0386840F40030386007
:101CE00016E00221201D01F09DFD03E00098022175
:101CF00001F028FE05000BD02E462088C00523D514
:101D0000606D05281ED2DFE800F00C11161B1B00C9
:101D1000626ED8F8001021F440111143C8F8001089
:101D2000EBE7386840F40030386009E00021201DFE
:101D300001F078FD03E00098002101F003FE054664
:101D40006DB100E001252E462088800528D5A06DC4
:101D500080281ED00CDC90B140280ED114E0626DBA
:101D6000D8F8001021F007011143C8F80010EBE784
:101D7000C02813D0B0F5807F10D001250FE038685F
:101D800040F40030386009E00021201D01F04AFDD8
:101D900003E00098002101F0D5FD054695B12E46DF
:101DA0002088DFF81093400509F108092CD5D4F8F4
:101DB000A400B0F5800F20D00DDCA0B1B0F5001F5D
:101DC0000FD115E0A26DD8F8001021F4E071114395
:101DD000C8F80010E4E7B0F5C00F13D0B0F5000F5D
:101DE00010D001250FE0386840F40030386009E079
:101DF0000021201D01F016FD03E00098002101F0F4
:101E0000A1FD054675B12E46208800052DD5D4F8D4
:101E1000A800B0F1007F21D00EDCA8B1B0F1807F26
:101E200010D116E0D4F8A420D9F8001021F46001F4
:101E30001143C9F80010E7E7B0F1407F13D0B0F1CB
:101E4000806F10D001250FE0386840F40030386012
:101E500009E00021201D01F0E5FC03E000980021CD
:101E600001F070FD05466DB12E46206880011FD53A
:101E7000A06CD8B110280FD0202812D0302815D04F
:101E8000012514E0D4F8A820D9F8001021F0E06171
:101E90001143C9F80010E8E7386840F400303860B2
:101EA00004E00221201D01F0BDFC05466DB12E4667
:101EB0002088C0042BD5E06DB0F5005F20D00DDC8C
:101EC000A0B1B0F5805F0FD115E07A48A26C001F79
:101ED000016821F0300111430160E9E7B0F5405F8E
:101EE00013D0B0F5804F10D001250FE0386840F4D2
:101EF0000030386009E00021201D01F093FC03E070
:101F00000098002101F01EFD054685B12E4620886F
:101F1000800429D5206EB0F5403F23D010DC08B3F3
:101F2000B0F5803F14D0B0F5003F0FD115E0E26D61
:101F3000D8F8001021F4E0411143C8F80010E6E79A
:101F4000B0F5802F0ED0B0F5A02F0BD001250AE000
:101F50000121201D01F066FC03E00098012101F041
:101F6000F1FC05468DB12E46208840042AD5D4F8D0
:101F7000AC00B0F1405F23D010DC08B3B0F1805F5B
:101F800014D0B0F1005F0FD115E0226ED8F8001028
:101F900021F4E0211143C8F80010E5E7B0F1804FCB
:101FA0000ED0B0F1A04F0BD001250AE00121201D79
:101FB00001F038FC03E00098012101F0C3FC054664
:101FC0006DB12E46208800041FD5E06ED8B1B0F167
:101FD000805F0ED0B0F1005F10D0012514E0D4F87E
:101FE000AC20D9F8001021F0E0411143C9F80010ED
:101FF000E8E7386840F40030386004E00121201D33
:1020000001F010FC05466DB12E462068C0011ED5BA
:10201000606CD0B101280ED0022811D0032814D052
:10202000012513E0E26ED8F8001021F04051114371
:10203000C8F80010E9E7386840F40030386004E080
:102040000221201D01F0EEFB054685B12E462068D9
:10205000DFF85CB04002ABF11C0B57D516480168A5
:1020600041F480710160FFF72DFB82460EE01148BC
:10207000626C001F016821F0030111430160E6E773
:10208000FFF720FBA0EB0A0064283DD80A4800684F
:10209000C005F5D57DBBDFF81CA0B4F8B0100AF17F
:1020A000200ADAF8000001F4407100F4407005E005
:1020B0002C4402585044025800480258884211D01B
:1020C000DAF80010DAF8002021F4407142F480328E
:1020D000CAF80020DAF8002022F48032CAF8002082
:1020E000CAF80010D4F8B000B0F5807F21D1FFF716
:1020F000E9FA019019E008E0FFF7E4FA0199411AC2
:1021000041F28830814210D903252E462078DFF82D
:1021100030A4C0073DD0A06F182838D026DC80B38B
:10212000082829D0102825D12CE0DAF800008007F3
:10213000E2D5D4F8B010C1F30120032858460DD0E1
:10214000016821F47C510160B4F8B020DAF8001085
:10215000C2F30B021143CAF80010D7E7F94A03682B
:1021600002EA111223F47C511143ECE720280ED02F
:1021700028280CD001250BE00121201D01F052FB85
:1021800004E004E00098012101F0DCFB05465DB1AC
:102190002E46207880071ED5606F062819D2DFE80A
:1021A00000F0160C11161616A26FDAF8001021F0C6
:1021B00038011143CAF80010EBE70121201D01F09E
:1021C00031FB03E00098012101F0BCFB054675B12D
:1021D00000E001252E46207840071FD5D4F8900056
:1021E000062819D2DFE800F0160C11161616626FD9
:1021F000DAF8001021F007011143CAF80010EAE7ED
:102200000121201D01F00EFB03E00098012101F0E7
:1022100099FB05469DB100E001252E4620788006F9
:102220002BD5D4F88C00B0F1405F24D011DC10B372
:10223000B0F1805F15D0B0F1005F10D116E0D4F896
:102240009020D9F8001021F007011143C9F80010BF
:10225000E4E7B0F1804F0ED0B0F1A04F0BD00125D4
:102260000AE00021201D01F0DDFA03E000980221C0
:1022700001F068FB05468DB12E46207840062BD52F
:10228000D4F89800B0F5406F24D011DC10B3B0F54D
:10229000806F15D0B0F5006F10D116E0D4F88C2007
:1022A000DAF8001021F0E0411143CAF80010E4E729
:1022B000B0F5805F0ED0B0F5A05F0BD001250AE02D
:1022C0000021201D01F0AEFA03E00098022101F088
:1022D00039FB05468DB12E46207800062BD5D4F863
:1022E0009C00B0F5C04F24D011DC10B3B0F5005FF6
:1022F00015D0B0F5804F10D116E0D4F89820D9F859
:10230000001021F4E0511143C9F80010E4E7B0F5E2
:10231000004F0ED0B0F5204F0BD001250AE0002170
:10232000201D01F07FFA03E00098022101F00AFB72
:1023300005464DB12E46207800071ED5D4F8800002
:10234000B0F5805F0AD00FE0D4F89C20D9F80010D7
:1023500021F460411143C9F80010ECE70098022114
:1023600001F0F0FA00B10126D4F88020DAF800106C
:1023700021F440511143CAF800102078C00613D54B
:10238000D4F89400B0F5807F05D10098022101F0C7
:10239000D9FA00B10126D4F89420D9F8001021F41C
:1023A00040711143C9F800102068000316D5D4F815
:1023B000A00038B1B0F5803F09D0B0F5003F0BD098
:1023C00001250AE00021201D01F02CFA03E000980D
:1023D000022101F0B7FA054685B12E462068400378
:1023E00022D5D4F88400B0F5801F11D0B0F5001FBD
:1023F00013D0B0F5401F15D0012514E0D4F8A0206B
:10240000D9F8001021F440311143C9F80010E5E774
:10241000386840F40030386004E00098012101F091
:1024200091FA054655B12E462068C0031CD5E06CD4
:1024300070B1B0F5803F10D0012514E0D4F88420AD
:10244000DAF8001021F440111143CAF80010EBE74C
:10245000386840F40030386004E00221201D01F0AB
:10246000E1F90546CDB12E462068800005D50098DB
:10247000022101F067FA00B10126206880031BD514
:10248000E06FB8B1B0F5807F10D0B0F5007F11D00B
:10249000B0F5407F0ED001250DE02948E26C0838E8
:1024A000016821F4803111430160DDE7386840F4B0
:1024B00000303860F5B32E462068C00207D5226F81
:1024C000D8F8001021F000411143C8F8001020682E
:1024D000C00008D5D4F8B420DBF8001021F4804106
:1024E0001143CBF800102068800207D5A26ED8F8FF
:1024F000001021F080711143C8F8001020684000DE
:102500000CD5DBF8001021F40041CBF80010DBF80B
:102510000010D4F8B8201143CBF800102068002830
:1025200007DA0748226D0838016821F0405111434D
:10253000016000E008E086B10120BDE8FC9F0000DA
:1025400054440258CFFFFF00E26FDAF8001021F484
:1025500040711143CAF80010AEE70020EDE700001B
:102560002DE9F05F04000F467ED0DFF83882D8F8FE
:10257000000000F00F00B8420CD2D8F8001021F093
:102580000F013943C8F80010D8F8000000F00F0020
:10259000B84269D12078844D40070AD5206929685E
:1025A00001F07001884204D9296821F070010143CB
:1025B000296020787C4E361D00070AD56069316895
:1025C00001F07001884204D9316821F070010143A3
:1025D00031602078C0060AD5A069316801F4E06155
:1025E000884204D9316821F4E061014331602078E8
:1025F000DFF8B4B180060BF1080B0CD5E169584641
:10260000DBF8002002F07002914204D9026822F047
:1026100070020A430260207880070AD5E0682968C2
:1026200001F00F01884204D9296821F00F0101430C
:1026300029602078C0073ED05B49A2682868183915
:1026400020F47060104328606068022818D00328C6
:1026500019D00968012819D0490700294ADADFF89A
:1026600048A1AAF1080A00E044E0DAF8002022F0CC
:1026700007020243CAF80020FFF724F8814612E05F
:1026800009688903E9E709688901E6E7C905E4E71C
:10269000FFF718F8A0EB090141F28830814202D916
:1026A0000320BDE8F09F6168DAF8000000F0380010
:1026B000B0EBC10FECD1207880070AD5E06829681B
:1026C00001F00F01884204D2296821F00F01014373
:1026D0002960D8F80010404601F00F01B9420BD92B
:1026E000016821F00F0139430160006800F00F001C
:1026F000B84201D00120D4E7207840070AD52069EC
:10270000296801F07001884204D2296821F0700123
:1027100001432960207800070AD56069316801F01B
:102720007001884204D2316821F0700101433160A8
:102730002078C0060AD5A069316801F4E0618842BA
:1027400004D2316821F4E0610143316020788006D1
:102750000CD5E1695846DBF8002002F07002914286
:1027600004D2026822F070020A43026000F06CF8A2
:102770000E492A682B68C2F3032203F00F038A5C18
:10278000C95C02F01F0201F01F01D040084A20FA84
:1027900001F111600749086007480068BDE8F05F73
:1027A000FEF7CCBF0020005218440258745E0008A7
:1027B00018000020140000200C00002030B500F0AC
:1027C00043F80B4A0B490C4B15681468C5F30322F8
:1027D00004F00F048A5C095D02F01F0201F01F0182
:1027E000D040064A20FA01F119601060084630BD59
:1027F00018440258745E00081800002014000020DD
:1028000000B5FFF7DBFF05490968054AC1F302116E
:10281000515C01F01F01C84000BD00001C4402587B
:10282000745E000800B5FFF7C9FF05490968054A4D
:10283000C1F30221515C01F01F01C84000BD00003E
:102840001C440258745E0008454970B54548096843
:10285000434B103B11F0380208D00111082A03D075
:10286000102A0BD0182A0BD0084670BD19688906AB
:10287000FBD51968C1F3C101C84070BD3A4870BDAD
:102880003749374D18310C1D24350A680968266808
:102890002D6802F0030406F00102C1F30511C5F32F
:1028A000CC0515FB02F200EE102AB8EE400AE9B39F
:1028B0002F4ADFED2E0AB7EE001A6CB1DFED2D1AAC
:1028C000012C01D0022C43D002EE101A1068F8EE51
:1028D000422A81EEA22A1EE01C68A40611D51B68BC
:1028E00001EE901A1168C3F3C103F8EE612AD840D3
:1028F00001EE900AC1F30800F8EE611A81EEA22AF7
:102900000BE001EE901ADFED1C2A00BFF8EE611A11
:10291000106882EEA12AC0F3080001EE900AF8EEDA
:10292000611A40EE201A31EE810A00E015E022EE35
:10293000000A1068C0F34620401C00EE900AF8EE32
:10294000600A80EE201ABCEEC10A10EE100A70BDBB
:1029500001EE901ADFED092AD8E7002070BD0000D3
:10296000104402580090D00300127A000000003991
:10297000304402580024744A0024744C0024F44A61
:102980002DE9F05F04007CD0FF4F2078FE4D183712
:10299000DFF8F493103DC00748D0D9F8000039683B
:1029A00000F03800102815D0182803D101F00300DA
:1029B00002280FD06068B0F5803F12D010B1B0F59A
:1029C000A02F18D0286820F480302860286820F4D0
:1029D000802009E02868800328D560680028D2D0CC
:1029E00024E0286840F480302860606888B1FEF7F1
:1029F00069FE064609E0286840F480202860F0E778
:102A0000FEF760FE801B64287ED828688003F7D517
:102A10000CE0FEF757FE064605E000BFFEF752FE4B
:102A2000801B6428F0D828688003F7D4207841F20E
:102A30000308D54E0C3E800753D5D9F800003968FD
:102A400010F038000ED0182801D188070AD0E068AD
:102A5000A8B3296821F0190101432960FEF732FE6D
:102A600082461BE02868400702D5E06800288AD02B
:102A7000FEF722FE40451BD82069402812D031685D
:102A800000E0CCE021F47C3141EA0030306028E005
:102A9000FEF718FEA0EB0A000228B5D82868400708
:102AA000F6D5E5E7306820F47C3040F40030EDE7FF
:102AB000207C316821F0FE4141EA0060E6E7FFE753
:102AC000286820F001002860FEF7FCFD824605E042
:102AD000FEF7F8FDA0EB0A00022895D82868400709
:102AE000F6D42078C0065FD5D9F80000DFF898B298
:102AF000396800F03800ABF1040B082812D0182810
:102B000005D101F0030000E0EAE001280AD0E06905
:102B10000028286838D040F080002860FEF7D2FDF9
:102B2000824623E02868C00523D5E069802876D155
:102B30001FE0206A202821D0316821F0F84141EAC5
:102B40008060306030E000BF94F82010DBF8002097
:102B500022F07C5242EA0161CBF8001024E000BF71
:102B6000FEF7B0FDA0EB0A00022896D82868C00541
:102B7000F6D5FEF7A1FD4045E6D8DAE7306820F04B
:102B8000F84040F08040DCE720F080002860FEF74D
:102B900099FD064605E000BFFEF794FD801B022864
:102BA0009BD82868C005F7D42078000729D5764837
:102BB0006169643000298046016811D041F001014B
:102BC0000160FEF77FFD064605E000BFFEF77AFDD7
:102BD000801B0228C9D8D8F800008007F6D510E07D
:102BE00021F001010160FEF76DFD064605E000BF22
:102BF000FEF768FD801B022872D8D8F80000800715
:102C0000F6D42078800623D5A0690028286810D043
:102C100040F480502860FEF755FD064605E02CE1A3
:102C2000FEF750FD801B02285AD828688004F7D58B
:102C30000EE020F480502860FEF744FD064604E0D4
:102C4000FEF740FD801B02284AD828688004F7D48C
:102C5000207840074FD5DFF83481D8F8001041F4D0
:102C60008071C8F80010FEF72DFD064605E000BF94
:102C7000FEF728FD801B642832D8D8F80000C00574
:102C8000F6D5414EA068603601280AD008B1052863
:102C900013D0306820F001003060306820F004006C
:102CA00002E0306840F001003060A06841F2883AEC
:102CB00090B1FEF707FD80460AE0306840F004005E
:102CC0003060EEE7FEF7FEFCA0EB0801514507D8A7
:102CD00030688007F6D50EE0FEF7F4FC804607E08A
:102CE00084E000BFFEF7EEFCA0EB080151457DD863
:102CF00030688007F6D4606AF0B3DFF88C80D9F8CA
:102D0000001008F12008C1F3C20103296FD0022886
:102D1000286820F08070286003D0FEF7D3FC0446BA
:102D200080E0FEF7CFFC064605E000BFFEF7CAFCD8
:102D3000801B022873D828688001F7D4E26A40F229
:102D4000F331386854F8283F884340EA02101843AA
:102D50003860217B4FF4FE0C22894FF0FE47208A19
:102D60004902267D521E401EA1F5007189B20CEA6F
:102D70000040C2F3080200E081E01143761E0143E7
:102D8000014807EA066203E010440258004802586E
:102D90001C3011433B4AC8F80010016821F00101C2
:102DA000016011684FF6F876236AB14341EAC30126
:102DB00011600168A26921F00C01114301600168F2
:102DC000E26921F0020111430160016841F48031A0
:102DD0000160016841F400310160016841F4802123
:102DE0000160016841F00101016001E017E01DE0B0
:102DF000286840F080702860FEF764FC044604E018
:102E0000FEF760FC001B022809D828688001F7D56E
:102E100035E000BFFEF756FC001B022802D9032054
:102E2000BDE8F09F28688001F4D428E039680128C3
:102E3000D8F8000021D0A26A01F0030393421CD10C
:102E4000E26AC1F305118A4217D1216BC0F308026F
:102E5000491E8A4211D1616BC0F34622491E91423C
:102E60000BD1A16BC0F30642491E914205D1E16B23
:102E7000C0F30660491E814201D00120D0E7002046
:102E8000CEE700003444025803490A6822F4600285
:102E900002430A607047000004040058401EB0F16D
:102EA000807F10B501D3012010BD4FF0E024606198
:102EB0000F21601701F020FD0020A0610721216192
:102EC00010BD00002DE9F04390F83C20012A42D0CB
:102ED000012280F83C2051F80C4BDFF880804FF045
:102EE000000991E8680051E9022723F44073B1F822
:102EF0000CC03B43CF6923F480631343026823F47F
:102F00000063234323F4805343EA050323F400536F
:102F100043EA060323F4804343EA07030C3923F40E
:102F20007023424543EA0C4302D00D4CA2420CD11F
:102F30008D8C23F47006D1E9073446EA055121F05F
:102F40008071194321F000732343536480F83C904F
:102F50000020BDE8F0830220FBE7000000000140F4
:102F600000040140F0B590F83C20012A38D01D4EF5
:102F7000012480F83C40022280F83D2002681A4D6E
:102F80005368B242D2F808C001D0AA4203D14F68B8
:102F900023F470033B430F6823F070031F43576013
:102FA0000268B24210D0B2F1804F0DD00F4B9A425E
:102FB0000AD00F4B9A4207D00E4B9A4204D0AA4235
:102FC00002D00D4B9A4204D189682CF0800319433A
:102FD0009160002180F83D4080F83C100846F0BD2B
:102FE0000220F0BD00000140000401400004004048
:102FF00000080040000C00400018004010B504001C
:1030000003D094F83D0010B107E0012010BD00206E
:1030100084F83C00204600F023F8022084F83D00AC
:103020002068211D00F0CEFD012084F8480084F8BE
:103030003E0084F83F0084F8400084F8410084F8A2
:10304000420084F8430084F8440084F8450084F882
:10305000460084F8470084F83D00002010BD0000C1
:1030600008B500680649884208D10648016841F061
:1030700001010160006800F00100009008BD00003F
:1030800000000140F044025870B5044690F83C003E
:10309000012814D0394B012584F83C50022084F8D3
:1030A0003D0022689068184020F47F4090600868D6
:1030B000702828D010DC10F00F0F03D04BE04FF039
:1030C000020070BD4FEA2012072A44D2DFE802F066
:1030D0005151515149323A00B0F1101F49D009DC29
:1030E000B0F5805F37D0B0F5005F17D0B0F5801F26
:1030F00031D13EE0A0F5801120393AD0102938D0E6
:10310000202928D135E04A682068D1E9021300F06F
:10311000BBFD2068816841F0770109E04A682068BA
:10312000D1E9021300F0B0FD2068816841F48041CC
:10313000816010E0CA684968206800F041FF20689B
:10314000502106E0CA684968206800F04AFF2068FC
:10315000602100F0A3FD002084F83D5084F83C007D
:1031600070BDCA684968206800F02AFF20684021C5
:10317000EFE7226801461046EBE7000088FFCEFF2C
:1031800010B586B0044614216846FDF7EDF80E49E7
:103190002068884216D10D48016841F01001016095
:1031A00000680123022200F01000059000204FF477
:1031B000285100916946CDE90120CDE90303044877
:1031C000FEF75CF906B010BD00000140E044025873
:1031D0000010025870B5044690F83C000D460128D6
:1031E0000BD0012084F83C000C2A45D007DC5AB1F2
:1031F000042A1BD0082A78D12CE0022070BD102AA6
:103200004ED0142A71D15DE0206800F051FD206895
:10321000816941F0080181612068816921F0040120
:10322000816120682A698169114311E0206800F0FA
:1032300093FD2068816941F40061816120688169A2
:1032400021F48061816120682969826942EA012153
:1032500081614AE0206800F0CBFD2068C16941F03F
:103260000801C1612068C16921F00401C1612068C1
:103270002A69C169114311E0206800F0FFFD206850
:10328000C16941F40061C1612068C16921F48061B4
:10329000C16120682969C26942EA0121C16124E053
:1032A000206800F021FE2068416D41F00801416571
:1032B0002068416D21F00401416520682A69416D53
:1032C000114311E0206800F045FE2068416D41F493
:1032D000006141652068416D21F48061416520688D
:1032E0002969426D42EA01214165002084F83C00D1
:1032F00070BD10B5040003D094F83D0010B107E094
:10330000012010BD002084F83C00204600F022F887
:10331000022084F83D002068211D00F053FC0120AC
:1033200084F8480084F83E0084F83F0084F84000A8
:1033300084F8410084F8420084F8430084F8440093
:1033400084F8450084F8460084F8470084F83D007E
:10335000002010BD08B500680C49884208D10C480F
:10336000016841F040010160006800F040000BE09E
:103370000849884209D106480830016841F4803183
:103380000160006800F48030009008BD0018004023
:10339000E84402580040014030B590F87C10012903
:1033A00018D0012280F87C202421C0F8801000224F
:1033B000202450F8601B0B680D6823F0005325F0A3
:1033C00001050D60426050F8601C0B6004620277DA
:1033D000104630BD022030BD70B5044690F87C0028
:1033E00001281DD0012284F87C202420C4F880000C
:1033F00020680568026822F0010202602068826885
:1034000022F060620A438260204600F0FDFD2268DF
:10341000202100201560C4F8801084F87C0070BD65
:10342000022070BD70B5044690F87C0001281DD0C4
:10343000012284F87C202420C4F8800020680568DC
:10344000026822F0010202602068826822F0604275
:103450000A438260204600F0D7FD22682021002028
:103460001560C4F8801084F87C0070BD022070BD27
:1034700010B5040003D0D4F8800010B107E001209B
:1034800010BD002084F87C00204600F027F824209E
:10349000C4F880002068016821F001010160204625
:1034A00000F078FE0128EBD0A06A10B1204600F0B1
:1034B000DDFD2068416821F4904141602068816809
:1034C00021F02A0181602068016841F0010101605A
:1034D0002046BDE8104000F02DBE000010B586B0BB
:1034E000044614216846FCF73FFF134920688842D0
:1034F00020D11248016841F480210160006800F485
:10350000802005900D480838016841F008010160ED
:1035100000680723022200F00800059000204FF405
:10352000407100916946CDE90120CDE903030448CB
:10353000FDF7A4FF06B010BD00480040E844025863
:10354000000C0258FEE7000017487CB5154900241E
:10355000016080228DF80040E1238DF801200125D3
:103560008DF8023040F2F4518DF804408DF803409C
:103570008DF80540C0F804D00C4A0572C2600C4AB0
:10358000C0E90421FDF7F4FD074834213438FCF785
:10359000EBFE054821224FF4403134380260C0E987
:1035A00004417CBD008002408C000020600004309B
:1035B000000004302DE9F04786B014216846FCF77E
:1035C000D3FE4048016841F004010160016801F048
:1035D00004010591016841F080010160016801F07A
:1035E00080010591016841F001010160016801F06D
:1035F00001010591016841F010010160016801F0CD
:1036000010010591016841F002010160016801F0BB
:1036100002010591016841F008010160016801F0B3
:1036200008010591016841F04001016000684FF414
:103630008046DFF89480002200F04000314605907B
:103640004046FEF733F8DFF884904FF485470022B8
:1036500039464846FEF72AF8DFF874A000224021D8
:103660005046FEF723F81B49002470108DE8130024
:1036700019486946FDF702FF01250096CDE901547E
:10368000694640460394FDF7F9FE00976946CDE987
:10369000015448460394FDF7F1FE40200090CDE927
:1036A0000154694650460394FDF7E8FE80206946C0
:1036B000CDE9000450460294FDF7E0FE06B0BDE8F7
:1036C000F0870000E044025800100258000402583D
:1036D00000180258000011110008025810B59AB0E5
:1036E00000241C21009407A80194029403940494DC
:1036F00005940694FCF738FE2C210EA8FCF734FE46
:1037000025482449C0E900148460C4600461446110
:103710008461FFF773FC4FF4805000901E486946A7
:10372000FFF7B2FC1C48FFF7E4FD1B4804A9049412
:1037300005940694FFF716FC6020CDE907041648AF
:10374000002207A909940A940B940C940D94FFF796
:1037500041FD1148042207A9FFF73CFD0E4808224D
:1037600007A9FFF737FD4FF400500E940F940103A3
:103770001094CDE9124011941494CDE915410648F6
:103780000EA917941894FFF79DFB0348FFF7F8FC68
:103790001AB010BD000001400406002011480021AD
:1037A00010B50F4C0C224FF4E1330460C0E9013135
:1037B000C160C0E904128161C1610162416281623C
:1037C000FFF756FE07480021FFF72CFE05480021B1
:1037D000FFF702FEBDE810400248FFF7DDBD000024
:1037E000004800403C0900200B48002130B402236F
:1037F000084D0122C0E9033183610924C0E9072192
:10380000C0E90912C0E90B21C0E9005430BCFEF741
:1038100009B8000000000840FC000020FEE77047E7
:10382000704700002DE9F047454D044689464FF0AA
:10383000000A2868C04380070AD0414E283E3068FD
:1038400020F080603060FDF73DFF0746B04608E09D
:103850000120BDE8F08700BFFDF734FFC01B022840
:1038600067D8D8F800000001F6D4206829684FF422
:10387000FE0721F47C313E0241EA00302860207AC4
:10388000A389B4F804C040022D4D2D495B1E227C53
:10389000ACF1010C1035091DA0F5007080B2521E6C
:1038A000CCF3080C07EA034340EA0C00184306EA8D
:1038B0000262104328600868626920F0C00010436B
:1038C00008600A68A06922F0200202430A60281DED
:1038D0000A6822F010020A6002684FF6F873E46981
:1038E0009A4342EAC40202600868B9F1000F40F04E
:1038F00010020A6011D00868B9F1010F11D040F42C
:1039000000100860D8F80000444640F08060C8F815
:103910000000FDF7D7FE05460DE0086840F40020E2
:10392000EFE740F48010ECE7FDF7CCFE401B0228E7
:1039300001D903208DE720680001F5D5504688E7BE
:10394000284402582DE9F047454D044689464FF07A
:10395000000A2868C04380070AD0414E283E3068DC
:1039600020F080503060FDF7ADFE0746B04608E01D
:103970000120BDE8F08700BFFDF7A4FEC01B0228B0
:1039800067D8D8F800008000F6D4208829684FF462
:10399000FE0721F07C713E0241EA00502860207A47
:1039A000A389B4F804C040022D4D2D495B1E227C32
:1039B000ACF1010C1835091DA0F5007080B2521E43
:1039C000CCF3080C07EA034340EA0C00184306EA6C
:1039D0000262104328600868626920F44060104366
:1039E00008600A68A06922F4007202430A60281D78
:1039F0000A6822F480720A6002684FF6F873E4697C
:103A00009A4342EAC40202600868B9F1000F40F428
:103A100080720A6011D00868B9F1010F11D040F02E
:103A200080700860D8F80000444640F08050C8F824
:103A30000000FDF747FE05460DE0086840F48000F1
:103A4000EFE740F40000ECE7FDF73CFE401B0228E6
:103A500001D903208DE720688000F5D5504688E71E
:103A6000284402587047FDF733BE000070B5CCB053
:103A70004C212FA8FCF778FC202142A8FCF774FC0D
:103A8000BC216846FCF770FC0220FDF783FF21494A
:103A900021480A6822F001020A60096801680024CE
:103AA00041F440410160016801F440414A910168DC
:103AB0008904FCD54FF4A022012102203890CDE9E1
:103AC0002F1239AA1823042582E80B000C263E90F9
:103AD000CDE93C05CDE93F642FA84194FEF750FFA6
:103AE00042AA3F20032182E813000121459442A805
:103AF0004694479448944994FEF732FD07481D9434
:103B00000090C10468462191FEF7CCF8FDF76CFFE8
:103B10004CB070BD2C040058184802580200040034
:103B2000244AF0B5244913680020234F43F470045D
:103B3000224B103714600C681F4D44F001040C60D8
:103B400018352E1D38600C68371DDFF86CC01C401E
:103B50000C600CF1280C0CF1040328601C1D306073
:103B6000251D38602E1DCCF80000371D186007F1A8
:103B7000040C20600CF104030F4C286060343060AA
:103B8000012538600E4ECCF8000018600F68EB0677
:103B9000DFF820C027F480270F60ACF1800C206094
:103BA000C6F80851CCF80030106840F4700010607E
:103BB000F0BD000088ED00E0004402587FEDF6EA19
:103BC000008000512DE9F047274B4FF0804A274DE8
:103BD00002689842264E274F274C09D0504507D0FF
:103BE000A84205D0B04203D0B84201D0A04205D1CE
:103BF000D1F804C022F070024CEA0202DFF87CC067
:103C0000DFF87C809842DFF87C900FD050450DD0D3
:103C1000A8420BD0B04209D0B84207D0A04205D08C
:103C2000604503D0404501D0484503D1CD6822F41A
:103C300040722A434D6922F080022A430260984272
:103C40008A68C2620A68826207D0A04205D06045D5
:103C500003D0404501D0484501D1096901630121E4
:103C60004161BDE8F0870000000001400004004011
:103C700000080040000C00400004014000400140EA
:103C8000004401400048014042EA032283680A439D
:103C900023F47F410A43826070470000034B82682F
:103CA0001A400A4342F00701816070478FFFCFFF3F
:103CB0002DE9F04F026ADFF88880DFF8889022F063
:103CC0000102DFF884A0DFF884B0214F0262DFF840
:103CD00084C0066A4268836926F002060D68B8420D
:103CE0008C6803EA0C0323F0030344EA060445EA64
:103CF000030507D0404505D0484503D0504501D0C5
:103D0000584505D1CB6824F00804234323F004046C
:103D1000B84207D0404505D0484503D0504501D0B2
:103D2000584505D122F44076D1E9053233431A4390
:103D300042608561496841630462BDE8F08F00001C
:103D4000000401400040014000440140004801409F
:103D5000000001408FFFFEFFF0B5026A1E4E1F4CAF
:103D600022F01002DFF878E00262056A4368826997
:103D700025F02005D1F808C0A0420F6802EA06022B
:103D800022F4407245EA0C1542EA072201D0704540
:103D900006D1CE6825F0800545EA061525F04005D8
:103DA000A0420AD0704508D00E4CA04205D00E4C5F
:103DB000A04202D00D4CA04207D1D1E9054623F420
:103DC000406343EA840343EA8603436082614968AF
:103DD00081630562F0BD0000FF8FFFFE000001401F
:103DE00000040140004001400044014000480140FF
:103DF000F0B5026A1C4D1D4E22F48072A842026288
:103E0000026A4368C76922F40072D1F808C00C68DE
:103E100027F0730742EA0C2244EA070401D0B042BB
:103E200006D1CF6822F4006242EA072222F48062BF
:103E3000A8420AD0B04208D00D4DA84205D00D4D81
:103E4000A84202D00C4DA84207D1D1E9055623F46F
:103E5000405343EA051343EA06134360C4614968CB
:103E6000C1630262F0BD0000000001400004014097
:103E700000400140004401400048014070B5026A22
:103E8000144B22F4805202629842036A4268C46969
:103E900023F400538E680D6824F4E64443EA0633A5
:103EA00044EA05240BD00C4DA84208D00B4DA84283
:103EB00005D00B4DA84202D00A4DA84204D14D694D
:103EC00022F4804242EA85124260C461496801647A
:103ED000036270BD00000140000401400040014049
:103EE0000044014000480140F0B5026A22F48032EB
:103EF0000262134F056A4268446D25F400350E894D
:103F0000B8420B6824F0700445EA064543EA04030E
:103F10000BD00C4CA04208D00B4CA04205D00B4C4F
:103F2000A04202D00A4CA04204D14C6922F4803253
:103F300042EA042242604365496881650562F0BD3A
:103F400000000140000401400040014000440140E5
:103F500000480140F0B5026A22F480120262134F59
:103F6000046A4268436D24F400140E89B8420D6857
:103F700023F4E04344EA065443EA05230BD00C4DF6
:103F8000A84208D00B4DA84205D00B4DA84202D044
:103F90000A4DA84204D14D6922F4003242EA85223A
:103FA000426043654968C1650462F0BD000001409C
:103FB000000401400040014000440140004801402D
:103FC00010B5036A046A23F00A0324F001040462B2
:103FD00084690B4324F0F00141EA0211816103621C
:103FE00010BD10B5036A23F0100303628369046AED
:103FF00023F4704324F0A00443EA0232826144EACD
:104000000111016210BD00003FB514A1D1E90023E8
:1040100014A1CDE90023D1E90021CDE90221416EAF
:10402000B9B1016802AC8A688968C2F34262490F7B
:104030001DF80150615C2D01B5FBF1F1A0F86A108B
:104040001DF80210A25C0901B1FBF2F1A0F86810A2
:104050003FBD0121A0F86A10F8E70000010101034B
:1040600007010000080402040801010190F828106B
:10407000C90706D00168C36A4A6822F400321A43AD
:104080004A6090F82810890706D50168036B4A68D2
:1040900022F480321A434A6090F82810490706D566
:1040A0000168436B4A6822F480221A434A6090F800
:1040B0002810090706D50168836B4A6822F400427C
:1040C0001A434A6090F82810C90606D50168C36BE8
:1040D0008A6822F480521A438A6090F82810890670
:1040E00006D50168036C8A6822F400521A438A607C
:1040F00090F82810490611D50168436C4A6822F4EB
:1041000080121A434A60416CB1F5801F06D10168E4
:10411000836C4A6822F4C0021A434A6090F828105F
:10412000090606D50168C26C486820F400201043D7
:1041300048607047F8B500260446C0F88860FDF76F
:10414000C1FA054620686FF07E470068000708D571
:1041500000222B464FF400112046009700F0F2F9A0
:1041600060B92068006840070AD500222B464FF44A
:1041700080012046009700F0E5F908B10320F8BD62
:104180002020C4F8800084F87C60C4F884000020FB
:10419000F8BD00002DE9F04304468068D94F87B090
:1041A0002268D4E90465E369616E304316681D43F3
:1041B0002843D54B002501433E400E43166020683E
:1041C000E268416821F44051114341602268A169CD
:1041D0009A4201D0206A01439668DFF830C3CC4F81
:1041E000CC4806EA0C060E4396602168666ACA6AE5
:1041F00022F00F023243CA622268BA420ED100682E
:1042000000F03800182873D047DCB8B3082879D0FC
:1042100010286FD178E028287ED17BE0BE498A4201
:1042200009D1006800F00700062875D2DFE800F029
:10423000546A6C6E7072B9498A4209D1006800F004
:104240000700062868D2DFE800F0475D5F6163651C
:10425000B3498A4209D1006800F0070006285BD202
:10426000DFE800F03A5052545658AE498A420BD11A
:10427000006800F0070006284ED200E010E0DFE8FA
:1042800000F02B4143454749A7498A420AD10068BB
:1042900000F03800182839D0B7DD2028BBD13CE029
:1042A00001203AE0A1498A4209D1006800F00700E4
:1042B000062831D2DFE800F01026282A2C2E9C494F
:1042C0008A420BD1006800F00700062824D2DFE8FC
:1042D00000F003191B1D1F2100201EE09A421BD174
:1042E0008C48001D006800F00700062814D202E088
:1042F0000CE007E010E0DFE800F0030507090B0D14
:1043000002200AE0042008E0082006E0102004E073
:10431000202002E0402000E080208649DFF818825B
:104320009A42864A4FF400434FEA21174FF00006A5
:104330004ED110281AD006DC022809D004280BD050
:1043400008287DD10DE020283ED0402878D13DE0DE
:10435000FDF752FB014610E06846FDF75FFB01994F
:104360000BE003A8FDF7FCFB049906E0106880064B
:1043700004D51068C0F3C100C140C1B3606A67686A
:1043800038F8102007EB4703B1FBF2F0834257D80F
:10439000B0EB073F54D8002308461946FBF79AFFB5
:1043A0000902020241EA106170084FEA3700101852
:1043B0003A4671410023FBF78DFF614AA0F5407139
:1043C00091423DD821684CE03946D7E71946D5E7F8
:1043D000D4F81CC04FF6EF799C4552D108281AD06A
:1043E00006DC60B101280DD0042829D10EE039E0A7
:1043F000102815D0202840D040287CD13FE0FEF77F
:10440000FFF901E0FEF70EFA014610E06846FDF7FD
:1044100005FB01990BE003A8FDF7A2FB049906E058
:104420001068800604D51068C0F3C100C140C9B14E
:10443000636A606838F81330B1FBF3F1490000E0BB
:1044400059E001EB5001B1FBF0F080B2A0F1100196
:10445000494550D84FF6F0732168C0F34202184026
:104460001043C8600120A4F86A00A4F86800284638
:10447000E666266707B0BDE8F0833946D8E71946F7
:10448000D6E7082819D005DC58B101280CD004283B
:1044900031D10DE0102815D020282ED040282AD167
:1044A0002DE0FEF7ADF901E0FEF7BCF9014610E0A2
:1044B0006846FDF7B3FA01990BE003A8FDF750FB3E
:1044C000049906E01068800605D51068C0F3C100A5
:1044D000C1400029C6D0636A606838F81330B1FB68
:1044E000F3F101EB5001B1FBF0F080B2A0F110014B
:1044F00049457FF667AF0125B4E73946EBE7194632
:10450000E9E70000F369FFCF000C0058FFF4FF114A
:10451000001001405444025800440040004800404C
:10452000004C004000500040001401400078004062
:10453000007C00400090D0035C5E000800440258FC
:10454000FFFC0F002DE9F0479A4617460E46044639
:10455000089D4FF000094FF0200839E0681C37D063
:10456000FDF7B0F8A0EB0A00A84222D80DB32068EE
:10457000016849072CD5C069C043000528D42368C9
:104580004FF40061196221680B6823F4D0730B604B
:1045900021688B6823F001038B60C4F88080C4F825
:1045A0008480C4F8888000BF032084F87C90BDE834
:1045B000F08721680B6823F4D0730B6021688B6847
:1045C00023F001038B60C4F88080C4F88480EBE79B
:1045D0002068C06936EA000004D00020B842BDD08F
:1045E0000020E4E70120F9E770B5044606990A9E29
:1045F000049D01290D9816D0E06840F04000E0606D
:10460000204600F02DF8A16B26B321F48031A16380
:10461000012D07D1A16841F00601A160A16841F018
:104620002001A16070BDA26B01280C4922F48030EA
:10463000A063E06800EA0100E060E06820F4401058
:10464000E06003D1E06840F48010E060204600F0B4
:1046500007F8DDE741F48031D9E70000BFFFBDFF77
:104660000C49012202E0521C8A420BD80369002B3C
:10467000F9DA0369012243F00103036104E0521CEB
:104680008A4201D9032070470369DB07F7D1002074
:1046900070470000400D030010B5D0F8041841F039
:1046A0000201C0F804180320FCF750FD002010BDE3
:1046B0002DE9F04F0E4604460021DDF824B00D46EA
:1046C000109F0846DDF82C2004EB800CCCF8041178
:1046D000401C0F28F8D32046AFB1806B40F4001C7B
:1046E000C4F838C088460846C4F8000ED4F800085C
:1046F000012A2146C4F800081BD00846D1F800184A
:1047000041F003011BE0D0F8040840F0020CC4F8AB
:1047100004C8A06B20F4001CC4F838C0206840F026
:10472000400CC4F800C0206840F0800CC4F800C001
:10473000D8E70846D1F800180BB141F00101C0F8E4
:104740000018102100F086F800B10125204600F085
:1047500071F800B1012540464FF000694FF67F33F4
:104760004FF0904AC4F81088C4F81488C4F81C8824
:10477000002114E004EB4112D2F800C9BCF1000F93
:1047800006DA11B1C2F800A904E0C4F8009901E00A
:10479000C2F80009C2F81009C2F80839491C8E4253
:1047A000E8D8002115E000BF04EB4112D2F800CB9D
:1047B000BCF1000F06DA11B1C2F800AB04E0C4F896
:1047C000009B01E0C2F8000BC2F8100BC2F8083BD6
:1047D000491C8E42E8D8D4F81038BBF1000F6FF0B6
:1047E000804223F48073C4F81038A061626103D161
:1047F000A06940F01000A061A069094A0C9940EA44
:104800000200A06119B1A06940F00800A061012F69
:1048100003D1A06903490843A0612846BDE8F08F91
:1048200000383C8004000040816821F00101816073
:1048300000207047064A102101610021491C914265
:1048400001D9032070470369DB06F7D400207047C5
:10485000400D03002023074A43EA8113036100212E
:10486000491C914201D90320704703699B06F7D484
:1048700000207047400D030010B5C268012922F0E6
:10488000C042C26002D029B1012010BDC16841F010
:10489000005102E0C16841F08041C1603220FCF764
:1048A00055FC002010BDFEE70FB4054B10B503A961
:1048B000044A029800F0FAFB10BC5DF814FB0000FB
:1048C0009D5A00085000002003B401984100009850
:1048D00050EAC12018BF04204A0D18BF40F0010063
:1048E00040F2FF72B2EB515F08BF40F002000128B6
:1048F00008BF052002B07047090700284FEA116180
:1049000004DB00F1E02080F80014704700F00F0095
:1049100000F1E02080F8141D704700000000000046
:1049200070B565482DED020B2DED048B059D25F02E
:104930000044A04218DC6148844202DC0AD1049899
:1049400040B19DED040BBDEC048B02B0BDE870409E
:1049500000F080BA002DCCBF9FED590B9FED5A0B94
:10496000BDEC048B02B070BD5948A04215DD59481A
:10497000A042D8BF4FF0FF3455DD9DED040B51EC44
:10498000100BFFF7A1FF042808BF00F075FA9DED9A
:10499000040BBDEC048B02B070BD9DED040B51EC1B
:1049A000100B01F06FF8CDE904014B489FED4C0B63
:1049B000A0421CDD4C48A0420BDD9DED042B0024E1
:1049C0009FED4B1B12EE010B32EE011B80EE012B13
:1049D00027E09DED041B9DED042B012431EE401BCF
:1049E00032EE000B81EE002B8DED042B1BE04248D4
:1049F000A0420FDD9DED042B02249FED411B9DED98
:104A0000043B32EE412B03EE010B82EE001B8DEDD9
:104A1000041B08E09DED040B9FED3B1B032481EE7E
:104A2000002B8DED042B9DED040B3948062120EE63
:104A3000009B29EE098BB0EE480B784400F0D2F9C8
:104A400020EE099B3348B0EE480B0521784400F076
:104A5000C9F920EE080B002C0BDA9DED042B39EE82
:104A6000001B9DED040BBDEC048B02B002EE410B6C
:104A700070BD2948784439EE000B00EBC4009DED71
:104A8000042B90ED001B254812EE001B9DED040B3E
:104A900031EE400B784400EBC400002D90ED001B7C
:104AA00031EE400BB8BFB1EE400BBDEC048B02B051
:104AB00070BD000000000000000010440000F07F06
:104AC000182D4454FB21F93F182D4454FB21F9BF04
:104AD0000000DC3F0000203E0000F33F000000002B
:104AE000000000000000F03F0000E63F0000000072
:104AF00000000000000000400080034000000000B3
:104B0000000000000000F83F000000000000F0BFBF
:104B1000D21700009817000050170000101700006F
:104B200070B5614E2DED040B2DED048B82B0DDF8D8
:104B300024C0DDE907235C422CF000411C4341EA1C
:104B4000D474069D22F00040B44205D86C422C4338
:104B500040EAD474B4420BD99DED081B9DED060BC1
:104B600002B0BDEC048B04B0BDE8704000F075B934
:104B7000ACF14054A4F17F641C430BD0022404EA3E
:104B8000AC7444EAD27405439FED498B9FED4A2BE8
:104B90000DD016E09DED060B51EC100B00F018FF48
:104BA00041EC100B02B0BDEC048B04B070BD002CC6
:104BB00014BF012C9DED060BF4D0022C2ED0032C3B
:104BC0002FD00B439FED3E1B9FED3F0B0AD0B14210
:104BD0001DD1B04209D121F0804120F080400991DF
:104BE000079014E0002ADDDA15E0394B7B44002CF5
:104BF00008BF93ED000BD5D0012C04BF93ED000B43
:104C0000B1EE400BCED0022C08D0032C09D0B0421C
:104C10000AD1002AC6DAB0EE410BC3E7B0EE480B6A
:104C2000C0E7B0EE420BBDE7401A00159FED2A9B8E
:104C30003C28C8BF8DED000B15DCBCF1000FBCBFDC
:104C400010F13C0F8DED009B0DDB9DED061B9DEDE6
:104C5000082B81EE020B51EC100B00F013FF00F05B
:104C6000B7FECDE9000194B1012C0CD09DED001BE5
:104C70009FED1B0B022C31EE400B0CBF38EE400BAE
:104C800030EE480B8EE7019880F0004001909DEDDA
:104C9000000BB4EE490BF1EE10FA04BF022000F055
:104CA0000DF99DED000B7DE70000F07F0000000096
:104CB000182D4454FB210940182D4454FB2109C0F0
:104CC000182D4454FB21F9BF182D4454FB21F93F02
:104CD000501600000000000000000000000000006E
:104CE000075C143326A6A13C10B52DED040B86B04D
:104CF0009DED060B10EE101A10EE900A8DED000BD4
:104D0000002918BF0121084320F00040C0F17F6056
:104D100000F1E040C00F21D19DED080B10EE101AFC
:104D200010EE900A8DED000B002918BF01210843F9
:104D300020F00040C0F17F6000F1E040C00F0DD1D5
:104D400027490798B1EB400F04BF069800283ED0D2
:104D50000998400004BF0898002838D09DED080B42
:104D600053EC102B9DED060B51EC100BFBF712FDD5
:104D7000CDE902019DED020B40F2FF7110EE900AA9
:104D80008DED000B31EA10501DD00798039900F00B
:104D9000004001F00041884215D09DED080B8DEDDB
:104DA000040B9DED020B8DED000B10EE900A0599A2
:104DB00061F31E0005909DED040B9DED021B31EE8D
:104DC000400B8DED020B9DED020B0AB010BD0120D2
:104DD00000F074F80AB0BDE8104000F041B80000DF
:104DE0000000E0FF491E00EBC102B0EE401B92ED57
:104DF000000B31F006020DD0491E00EBC102B0EEEF
:104E0000403B92ED002B31F00602B0EE420B03EE78
:104E1000010BF1D1022914D004290AD0062918BFA8
:104E2000704790ED0A2B00EE012B90ED080B02EE7F
:104E3000010B90ED062B00EE012B90ED040B02EE22
:104E4000010B90ED022B00EE012B90ED000B02EE1A
:104E5000010B704730EE000B704730EE010B7047CE
:104E60009FED031B81EE010B704700000000000066
:104E700000000000000000009FED030B20EE000B7F
:104E8000704700000000000000000000000000105B
:104E900001480068704700005400002002E008C884
:104EA000121F08C1002AFAD170477047002001E0A4
:104EB00001C1121F002AFBD17047000001490860A0
:104EC000704700005400002000EE900AF8EEE00A5F
:104ED00020EE200A704700002DE9FF5F82B000211C
:104EE000DDE90430020DDDF840B0034318D044F68C
:104EF0001050A2F2FF3242431514119801281FD01E
:104F0000A5EB0B00401C5FEA000A4FF000064E4F75
:104F1000DFF83891B046504615D5CAF1000413E0C9
:104F2000119801244AA3012801D16FEA0B010298CC
:104F3000119AC0E90031C0E9024206B0BDE8F09F15
:104F4000CBF10000DFE704460021404A491842EB5C
:104F50000450CDE9001012E0E00707D032463B468E
:104F600040464946FBF735FB8046894632463B467C
:104F700010461946FBF72DFB06460F466410002C21
:104F8000EAD1DDE90401DDE90023BAF1000F06DA18
:104F9000FBF71FFB42464B46FBF71BFB05E0FBF70D
:104FA0008AFB42464B46FBF786FB04460E46002230
:104FB000284BFBF74BFC03D84FF0FF30014607E0CE
:104FC0000022254B20463146FBF75CFAFBF725FC17
:104FD000102409E0002C0ADB0A220023FBF77AF9EF
:104FE000039B30321A55641E50EA0102F2D1641C50
:104FF000039AC4F111031444119A012A03D0012227
:1050000008430DD10AE0084304D000204FF0110BF3
:10501000119072E7A3EB0B056D1E0DE05B4504DDFF
:105020004FF0000205F1010504E003DA4FF0000241
:10503000A5F10105002AECD002981199C0E90231CE
:10504000C0E9004579E70000000014400000F03F8F
:10505000300000000000F0430000E03F30380A2834
:1050600001D20120704700207047000010B5B7EE54
:10507000C00A2DED028B9FED0B8BB0EE481BFFF7A6
:1050800033FEB7EEC00BB5EEC00AF1EE10FAB7EE84
:10509000C00A01DA30EE080BBDEC028BB7EEC00B94
:1050A00010BD0000EA2E4454FB2119402DE9FF4FAA
:1050B00095B09A46884606460025EEE1252877D128
:1050C00000242746F94A0121039400E0044316F81E
:1050D000013F203B01FA03F01042F7D130782A2833
:1050E00011D06FF02F033078A0F13002092A16D8C2
:1050F000039A44F0020402EB820203EB42021044E2
:10510000761C0390EFE758F8042B0392002A03DA89
:10511000504244F40054039044F00204761C30786A
:105120002E2816D116F8010F44F004042A280DD0B9
:105130006FF02F023078A0F13003092B09D807EB6C
:10514000870302EB4303C718761CF3E758F8047B88
:10515000761C30786C280FD006DC4C2817D06828D5
:105160000DD06A2814D104E0742810D07A280FD109
:105170000DE044F400140AE044F4801401E044F427
:1051800040147278824202D104F58014761C761C99
:10519000307866280BD013DC582877D009DC00283B
:1051A00075D04528F6D04628F4D047281AD193E187
:1051B00018E0632835D0642879D0652812D18BE1B6
:1051C000702873D008DC6728F1D069286FD06E286A
:1051D0000DD06F2806D1ACE073282CD0752874D080
:1051E000782853D05246179990476D1C54E1C4F368
:1051F0000250022809D003280DD0D8F80010042846
:105200000DD00D6008F1040846E1D8F80010EA1747
:10521000C1E90052F6E7D8F800100D80F2E70D70F2
:10522000F0E718F8041B8DF8001000208DF801003D
:10523000EB46012003E058F804BB4FF0FF30610754
:105240004FF0000102D40DE009F101018946B94295
:105250000FDA8145F8DB1BF809100029F4D108E0CA
:1052600009F1010189468142FADB1BF80910002986
:10527000F6D103985346A0EB090721463846179A02
:1052800000F080FA284400EB090507E044E008E15B
:105290000DE01BF8010B524617999047B9F101092F
:1052A000F7D2534621463846179AF2E039E00A21F0
:1052B000C4F302524FF0000B0091022A06D058F8B6
:1052C000040BC117032A09D00AE023E008F1070004
:1052D00020F00702F2E80201904605E000B2C11793
:1052E000042A01D140B2C117002906DA0A4600217A
:1052F000404261EB02012D2202E0220504D52B225F
:105300008DF80420012203E0E20701D02022F7E714
:10531000914657E00A2100E010214FF0000B009168
:105320000BE010214FF0000B44F00404082700911B
:1053300003E008204FF0000B0090C4F30252022A51
:1053400005D058F8040B0021032A08D008E008F122
:10535000070020F00702F2E80201904603E080B265
:10536000042A00D1C0B24FF0000922072AD53278B2
:10537000702A07D0DDF800C08CF0100C5CEA0B0C32
:1053800005D00EE040228DF80420012208E050EA0A
:10539000010306D030238DF804308DF80520022259
:1053A0009146009B83F0080353EA0B030AD150EAAD
:1053B000010201D1620705D530228DF804204FF09B
:1053C00001097F1E3278582A04D039A20C920CAA07
:1053D00002920BE03BA2F9E75B46009AFAF77AFFEC
:1053E0000C9B9B5C029A521E0292137050EA0102BF
:1053F000F2D1029804A9081A00F1200B600702D527
:1054000024F4803400E001275F4502DDA7EB0B00A8
:1054100000E0002000EB0B01009003984944401A83
:105420000390E00306D453462146179A039800F0F0
:10543000A9F90544002706E001A85246C05D179966
:1054400090476D1C7F1C4F45F6DBE0030CD553469F
:105450002146179A039800F095F9054404E030209E
:105460005246179990476D1C0099481E00900029DC
:10547000F5DC08E00298029952460078491C029136
:10548000179990476D1CBBF10001ABF1010BF1DCEA
:105490005BE100F065F90544761C307800287FF464
:1054A0000DAE19B02846BDE8F08F000009280100B4
:1054B000303132333435363738396162636465668A
:1054C000000000003031323334353637383941424C
:1054D0004344454600000000600700D4062708F159
:1054E000070020F00700F0E80223804603F0004C9C
:1054F0005FEA0C0001D097A009E0200501D596A035
:1055000005E0E00701D095A001E0AFF24C00139058
:10551000307823F0004365280CD006DC452809D0FC
:1055200046281DD047287FD13BE0662818D0672841
:105530007AD136E00021112F01DB112000E0781C28
:10554000CDE9000104A90CA8FFF7C6FCDDE90D01B7
:105550000C9A4FF0000B07F10109109200914EE0F8
:105560004FF000400097CDE9011004A90CA8FFF707
:10557000B3FCDDE90D020C9B0F994FF0000B914637
:105580001093009211B9791C00EB0109B7EB0900E7
:1055900003D4C0F1FF3B07F10109A9EB070001901B
:1055A00042E0012F00DA01270021112F01DD112037
:1055B00000E03846CDE9000104A90CA8FFF78CFCF7
:1055C000DDE90D010C9A00914FF0000BB9461092E5
:1055D00021070FD4009A4A4503DA914601E0A9F168
:1055E0000109B9F1010F05DD109AA9F10101515C22
:1055F0003029F4D0B84202DA10F1040F03DA0121A5
:10560000CDE9011010E0002803DC8344A9EB000180
:1056100002E0411C494500DD8946A0EB0B00401C1F
:1056200001904FF000400290200705D401984845B2
:1056300002DB4FF0FF30019000208DF84B00029804
:105640000DF14B07B0F1004F25D002200C902B201C
:105650000D90029800280CDA404202902D200D9007
:1056600007E00A210298FAF78AFE3031029007F823
:10567000011D0C99481E0C900029F2DC02980028AC
:10568000EFD1791E0D980870307800F0200040F0BE
:10569000450007F8020D11A8C01BC01D0290139809
:1056A000007800B1012000EB0901019801EBE071E5
:1056B000029801440398401A401E0390E00306D468
:1056C00053462146179A039800F05CF80544139856
:1056D000007818B15246179990476D1CE00323D506
:1056E00053462146179A039800F04CF805441BE0F6
:1056F000BBF1000F07DB0098584504DD109817999F
:1057000010F80B0001E0179930205246904701989D
:105710000BF1010B401E05F10105019004D12E2073
:105720005246179990476D1CB9F10001A9F1010982
:10573000DEDC05E017F8010B5246179990476D1C07
:105740000299481E02900029F4DC53462146179A1C
:1057500003989EE62D0000002B00000020000000B2
:105760002DE9F041044600251E461746880404D45E
:1057700005E039462020B0476D1C641EF9D5284647
:10578000BDE8F0812DE9F041044600251E46904613
:10579000C80301D5302700E02027880404D505E0A0
:1057A00041463846B0476D1C641EF9D52846BDE811
:1057B000F0810000B7EEC01AB6EE002B9FED374B1C
:1057C000B0EE423B10EE101A364A394801EE043B67
:1057D0009FED355B9142B0EE436BB0EE423B21EE64
:1057E000042B11EE043BBDEEC61BB0EE437BFDEE79
:1057F000C70B12DAB5EEC02BF1EE10FA02DB11EE98
:10580000101A01E010EE901A50F8210000EE100A74
:10581000B8EEC00B20EE050B3DE010EE101A254A45
:1058200091420CDAB5EEC02BF1EE10FA02DB11EE6C
:10583000101A01E010EE901AC1F5C771E4E710EEFE
:10584000101A1D4A9FED1D3B914210DAB5EEC02B98
:10585000F1EE10FA02DB11EE101A01E010EE901AD0
:1058600000EB8100A0F58050D0F8C8090DE0B5EE3E
:10587000C02BF1EE10FA02DB11EE101A01E010EE6F
:10588000901AC1F5477150F8210000EE100AB8EEE9
:10589000C00B20EE030BB7EEC00B70479CA223B9E0
:1058A000FCAB5F40DB0FC93F2D431CEBE2361A3FD8
:1058B000845E0008DB0F4940E4CB96402D431CEB8F
:1058C000E2361ABF10EE100A0349A1EB600000EEA9
:1058D000900A20EE200A7047865A375F10B54FF0C5
:1058E000E020354A9FED351BF2EE020A2DED028BCA
:1058F0008069D168884201D2091A03E06FF07F43C2
:105900001B1A1944D06002EE101AB8EE422AC2EEF9
:10591000202AB7EEE22A22EE011BF7EEC10BF5EECC
:10592000C00AF1EE10FA04D010EE900AB0F17C5FDC
:1059300001DDDFED240A244992ED042AD1ED001A9D
:1059400062EE202A30EE611AB0EEC13AB4EEE23ACD
:10595000F1EE10FA1ADDB5EEC01AF1EE10FA02D22D
:105960004FF0FF3007E0B5EEC01AF1EE10FA01DD9E
:10597000012000E0002000EE100AB8EEC00A20EE80
:10598000020A40EE201AC1ED001A01E081ED000A82
:10599000906892ED018A91ED000AFFF795FAB0EE5A
:1059A000401ADFED0A0AB0EE480A00F0F9F8B0EE4E
:1059B000480ABDEC028B10BD1C0000208DEDB5A087
:1059C000F7C6B03E6F12833A34000020000000009A
:1059D00010B541EC100BFEF7A3FF51EC100B10BDFE
:1059E00030B583B00446FFF753FA9FED090B054627
:1059F0008DED000B002221466846FAF710FD28467F
:105A0000FFF75CFA9DED000B03B051EC100B30BDBD
:105A1000000000000000000010B5114C20880004B8
:105A20001CD510480178482902D0542914D103E02C
:105A30000DA0FEF739FF0FE0401CFFF7D1FF00EE8D
:105A4000100A0DA0B8EEC00A84ED010AB7EEC01A24
:105A500053EC112BFEF728FF0020208010BD000022
:105A6000000000200405002048656C6C6F20576F13
:105A7000726C64210D0A000052583D252E34660DCB
:105A80000A00000082B0CDE9000121F00040019041
:105A90009DED000B02B051EC100B704738B5044679
:105AA0008DF8000069460320ABBE204638BD0000DB
:105AB000FBF716FEFDF7DAFFFDF77CFDFDF744FD71
:105AC000FDF76CFEFDF790FEFDF708FE4FF47A70CF
:105AD000FBF73CFB12480321B2EE080AF7EE000A7E
