:020000040800F2
:10000000D80B0020B1020008354C0008E34300087B
:10001000C94B0008910A0008B36100080000000005
:10002000000000000000000000000000595300081C
:10003000930A000800000000155100085B530008F7
:10004000CB020008CB020008CB020008CB0200085C
:10005000CB020008CB020008CB020008CB0200084C
:10006000CB020008CB020008CB020008CB0200083C
:10007000CB020008CB020008CB020008CB0200082C
:10008000CB020008CB020008CB020008CB0200081C
:10009000CB020008CB020008CB020008CB0200080C
:1000A000CB020008CB020008CB020008CB020008FC
:1000B000CB020008CB020008CB020008CB020008EC
:1000C000CB020008CB020008CB020008CB020008DC
:1000D000CB020008CB020008CB020008CB020008CC
:1000E000CB020008CB02000800000000CB02000891
:1000F000CB020008CB020008CB020008CB020008AC
:10010000CB020008CB020008CB020008CB0200089B
:10011000CB020008CB020008CB020008CB0200088B
:10012000CB020008CB020008CB020008CB0200087B
:10013000CB020008CB020008CB020008CB0200086B
:1001400000000000000000000000000000000000AF
:10015000CB020008CB020008CB020008CB0200084B
:10016000CB020008CB020008CB020008CB0200083B
:10017000CB020008CB020008CB0200080000000000
:10018000CB020008CB020008CB020008CB0200081B
:10019000CB020008CB020008CB020008CB0200080B
:1001A000CB020008CB020008CB020008CB020008FB
:1001B000CB020008CB020008CB020008CB020008EB
:1001C000CB020008CB020008CB020008CB020008DB
:1001D000CB020008CB020008CB020008CB020008CB
:1001E000CB020008CB020008CB020008CB020008BB
:1001F000CB020008CB020008CB020008CB020008AB
:10020000CB020008CB020008CB020008CB0200089A
:10021000CB020008CB020008CB020008CB0200088A
:10022000CB020008CB020008CB020008000000004F
:10023000CB020008CB02000800000000CB0200083F
:10024000CB020008CB020008CB020008CB0200085A
:10025000CB020008CB020008CB020008CB0200084A
:10026000CB020008CB020008CB020008CB0200083A
:10027000CB020008CB020008CB02000800000000FF
:10028000CB020008CB020008CB02000800000000EF
:1002900000000000CB020008DFF810D000F0A0FA48
:1002A0000048004791770008AFF30080D80B00208A
:1002B0000648804706480047FEE7FEE7FEE7FEE700
:1002C000FEE7FEE7FEE7FEE7FEE7FEE7155400085F
:1002D000990200082DE9F05F0546002092469B46F2
:1002E00088460646814640241BE02846414647464C
:1002F000224600F069F853465A46C01A914110D37D
:1003000011461846224600F050F82D1A67EB0108F6
:100310004F4622460120002100F047F817EB000964
:100320004E41201EA4F10104DFDC484631462A4636
:100330004346BDE8F09F40EA01039B0703D009E074
:1003400008C9121F08C0042AFAD203E011F8013BC1
:1003500000F8013B521EF9D27047D2B201E000F81A
:10036000012B491EFBD270470022F6E710B5134659
:100370000A4604461946FFF7F0FF204610BD30B587
:100380000B46014600202022012409E021FA02F553
:100390009D4205D303FA02F5491B04FA02F52844ED
:1003A000151EA2F10102F1DC30BD202A04DB203A47
:1003B00000FA02F1002070479140C2F1200320FAB8
:1003C00003F3194390407047202A04DB203A21FAB6
:1003D00002F00021704721FA02F3D040C2F120025E
:1003E00091400843194670472DE9FE4F804681EA47
:1003F0000300C00F0C46009021F0004123F000459F
:10040000B8EB0200A94105D24046214690461C4661
:100410000B46024623F00040104347D0270DC7F398
:100420000A00C3F30A510290401A019040286BDA87
:10043000C3F3130040F4801B0098924620B10023C0
:10044000D2EB030A63EB0B0B01985946C0F1400253
:100450005046FFF7AAFF06460D4650465946019AF8
:1004600000F0D0F910EB08006141002487EA115236
:1004700084EAE7731A4340D0009A62B3019A012AD2
:100480004FEA075215DC001B61EB02014FF00042FE
:1004900002EA0752CDE90042001C41F580113246C4
:1004A0002B4600F0D0F903B0BDE8F08F404621465E
:1004B000F9E7001B61EB0201001C41F580130018F5
:1004C0005B412018A2F5001747EB030140EAD57005
:1004D000B6196D4111E06D084FEA360645EAC07560
:1004E0004FEA0752001B61EB0201001C41F580112D
:1004F00049084FEA30000019514132462B4603B0FB
:10050000BDE8F04F00F090B90098012240000023B0
:10051000D0EB020263EBE073009821464FEAE074EF
:10052000B8EB000061EB0401E9E783F000435BE70F
:1005300081F0004158E72DE9FE4F81EA030404F001
:10054000004421F0004100944FF0000B23F00043E1
:1005500050EA01045ED052EA03045BD0C3F30A54AC
:10056000C1F30A552C44A4F2F3340194A0FB0254C5
:10057000C1F3130141F48011C3F3130343F4801357
:1005800001FB024400FB034E840A970A44EA8154AB
:1005900047EA8357A4FB076802958D0A05FB078588
:1005A0004FEA932C04FB0C542705029D4FEA065892
:1005B00047EA1637B5EB08056EEB070C870E920E6F
:1005C00047EA811742EA8312A7FB0201B6EB0B014F
:1005D00064EB00042B0D43EA0C335E1844EB1C5013
:1005E000DA465146E7FB0201C5F313044FEA0B3329
:1005F00043EA14534FEA0432019C43EA0603A4F190
:100600000C040294009CCDE900B400F01CF903B086
:10061000BDE8F08F00200146F9E72DE9F04D81EAB1
:10062000030404F0004B21F0004514464FF0000A8B
:1006300023F0004150EA050220D054EA01021DD007
:10064000C5F30A570246C5F31303C1F31300C1F300
:100650000A5640F4801543F48013A7EB0608101BDC
:10066000D64608F2FD3873EB050002D308F1010805
:1006700001E092185B41B8F1000F03DA0020014657
:10068000BDE8F08D00204FF48011064684460EE050
:10069000171B73EB050705D3121B63EB050306431A
:1006A0004CEA010C49084FEA300092185B4150EACD
:1006B0000107EDD152EA030012D082EA040083EA76
:1006C0000501084305D0101BAB4106D201220023CF
:1006D00006E000224FF0004302E06FF001025310E9
:1006E0001AEB06004CEB085110EB0A0041EB0B0132
:1006F000BDE8F04D00F098B82DE9FE4FC3F30A575E
:1007000001F000450024C1F30A56C3F31303C1F3FB
:10071000130143F4801312EB020AA64641F4801140
:10072000009543EB030CA7F1010B16E0B0EB0A00B8
:1007300061EB0C01071E71F1000707DA4FF00008AA
:10074000D0EB080085F0004568EB0101171A73EB48
:100750000107EBD3761E001849415E45F6DA50EAF0
:10076000010209D0CDE900E500221346029600F00F
:100770006AF803B0BDE8F08F20460099F9E7C1F3AD
:100780000A52C1F3130140F2FF3341F480119A423F
:1007900002DA00200146704740F233439A42A2F247
:1007A000334202DC5242FFF70FBEFFF7FEBD0000EE
:1007B00030B5041E71F1000404DB4FF000444042E8
:1007C00064EB0101141E73F1000405DB1C464FF0BD
:1007D0000043524263EB0403994208BF904230BD8C
:1007E000064C074D06E0E06840F0010394E807007E
:1007F00098471034AC42F6D3FFF752FDA8800008AA
:10080000C8800008202A06DBCB17203A41FA02F004
:1008100043EAE07306E041FA02F3D040C2F120025D
:10082000914008431946704710B5141E73F1000437
:1008300008DA401C41F1000192185B411A4301D1D2
:1008400020F0010010BD2DE9F04D92469B4611B1FC
:10085000B1FA81F202E0B0FA80F220329046FFF75E
:10086000A4FD04460F4640EA0A0041EA0B01534644
:100870005A46084313D0114653EA010019D0C8F173
:1008800040025046FFF7A0FD05460E465046594629
:100890004246FFF78AFD084305D0012004E02046C8
:1008A0003946BDE8F08D0020054346EAE0762C434A
:1008B00037430A986305E40AA0EB08000022FD0A0A
:1008C00044EA47540A3002D500200146E9E7010511
:1008D00010196941DDE9084500196941BDE8F04D8D
:1008E000A2E7000070B53A4905460068884202D088
:1008F000384A904202D1D1F8080302E03648D0F8D5
:10090000080310F4403F11D002F036FD0446686839
:10091000B0F5803F06D0B0F5003F03D0B0F5403FC2
:1009200026D101E0000C17E0A40821E04FF40020DC
:1009300001F0AAFE044668688103890B18D181146E
:100940000C2915D2DFE801F0140606060606060B90
:100950000D0F1113800C4000B4FBF0F408E02409E3
:1009600006E0640904E0A40902E0E40900E0240AC6
:1009700001F08CF941F20301884208D817488442FB
:100980002868816813D821F48071816070BD144992
:100990006008884204D82868816821F44071F4E72F
:1009A0001049884206D82868816821F4407141F4D2
:1009B0008071EAE70C4988422868816804D821F4EC
:1009C000407141F40071E0E741F44071DDE700005F
:1009D000002002400021024000600258002D310139
:1009E000105E5F0020BCBE0040787D0170B50446FB
:1009F0000068816811F0010F3DD181681F4A1142E2
:100A00002AD18168D5432940491C816001F044F90D
:100A10001B4B064620681B49984201D0884201D1F1
:100A2000194A00E0194A9268884202F01F0201D177
:100A3000194600E00146814218D0BAB11BE0816836
:100A400011F0010F03D181682940491C816001F038
:100A500023F9801B022809D9606D40F01000606501
:100A6000A06D40F00100A065012070BD2068016804
:100A7000C943C907E3D1002070BD00003F000080DA
:100A8000002002400021024000230240006302587F
:100A9000FEE7704770B5A2B0064600244FF4C3606D
:100AA00001258DF80F5002238DF81D4069038DF844
:100AB0000E5009948DF81F400D9020208DF80450A1
:100AC0008DF8325042028DF8605006914FF040513F
:100AD0008DF8384002948DF861408DF81C408DF8F7
:100AE00028408DF862408DF80C400B948DF81E5014
:100AF0000F948DF8115012948DF840408DF83140CC
:100B00008DF8124014948DF8564017903046169385
:100B10008DF8205005928DF854408DF830408DF8B6
:100B20001050009169468DF80D408DF85540119494
:100B30008DF84C5000F074F81B9568058DF87140E5
:100B40004FF406718DF8685019948DF880408DF837
:100B500070401F908DF878401D9030468DF8814090
:100B6000219119A900F002F822B070BDF0B5026819
:100B700047F6020E274E4DF2010702F58052264D30
:100B8000D1F800C01368254C23EA0E0343EA0C0396
:100B900013600B79026891F80CE002F58052D1F8ED
:100BA00008C01B0343EACE3343EA0C03D2F804C067
:100BB0002CEA070C4CEA030CC2F804C002684F7B15
:100BC00002F580520B6A43EA0747D2F800313340FE
:100BD0003B43C2F8003102680B7D02F5805291F868
:100BE0001DC00F69D2F804611B0143EA0C332E408B
:100BF0003B431E43C2F8046100680B7F00F5805040
:100C00008A69D0F8081142EAC37221401143C0F842
:100C10000811F0BD00C0FEFFEFEFC0FFFFFFC07F77
:100C2000F0B50B790C7B0F688A68DB064D7B43EAD5
:100C3000C4533A438E7B1A43CF7B91F810C042EAEB
:100C4000855242EA4652BCF1000F42EA07537CD07B
:100C500000224C7C002C43EAC24278D000238E7CD8
:100C60000D7F42EA43428F7FD1E9053442EA0642D2
:100C70004E7F1A43224342EA0532002F42EAC6243D
:100C800066D00022CD7F91F8203044EA8222002BEA
:100C900042EA45227ED0002504684B6A42EA0522DA
:100CA00091F82870464D1A43CE6A236842EA07122B
:100CB00032432B401343236091F83C2091F83830A5
:100CC00091F8305091F83140520642EA036291F8AF
:100CD000326042EA854242EA4444BEB300220368DD
:100CE000384E4F6B44EA02425C683A4340F20F15BB
:100CF000344014435C60036891F840604C6CDA68DF
:100D000044EA0624AA432243DA6091F854300A6D7B
:100D100091F84C4042EA4302ECB300240368B1F876
:100D200048504FF60D76E7011C6F47EA05452A4308
:100D3000344014431C67026891F8563091F85550BE
:100D400052F8904F43EA450303E02BE032E02BE0FA
:100D50002CE024F003041C43146002688C6DD2F86C
:100D6000003D23F072032343C2F8003D91F8602058
:100D7000CC6D1AB35FF00003026891F8615091F8EE
:100D8000621044EA8310D2F8303D2C0144EAC101DC
:100D9000084301E00CE00FE023F07B010143C2F8BF
:100DA000301DF0BD012254E7012358E7012269E715
:100DB000012571E7012292E70124AFE70123DBE778
:100DC000838004000080F8C02DE9F047044690F8C5
:100DD000500000270E4601289AB014D0DFF8F880A2
:100DE000012122684FF0000984F8501042450ED1CD
:100DF0003A4D0095284603F039FC8246206803F0FE
:100E000035FC60B10EE002201AB0BDE8F087616DDC
:100E100084F8509041F0200161650120F4E7BAF1B7
:100E2000000F09D0606D012740F02000C4F8540085
:100E3000384684F85090E7E720684146884201D060
:100E4000A84201D1264800E0264840F61F72D6F895
:100E500000C0254BBCF1000F23D0D0F808C0D6F855
:100E600004802CF4404C4CEA080CC0F808C0D4F8BC
:100E700000C08C4501D0AC4507D18968AB6801F052
:100E8000010103F00103194302E0996801F0010137
:100E90000029CDD1B568316883682943934319434C
:100EA00017E0866826F44046866026688E4201D0A8
:100EB000AE4207D18968AB6801F0010103F001037C
:100EC000194302E0996801F001010029B0D181685D
:100ED00091438160ACE70000002002400021024005
:100EE0000023024000630258006002582DE9F84FC9
:100EF0004FF0000B0446E64E0D46CDF800B05F46BD
:100F000090F85000DFF88CA3012808D04FF00109B9
:100F100084F85090206803F0A5FB18B16BE1022023
:100F2000BDE8F88F21682868CA69030328D090FAC1
:100F3000A0F0B0FA80F000BF00F01F0309FA03F040
:100F40000243CA61D5E900124FF00C0C20681F2340
:100F5000C1F384610CEA921C02F01F0260449340CA
:100F60009140026B9A430A430263206803F07AFBC4
:100F70008046206803F072FB58EA000003D07FE04F
:100F8000C0F38460D8E72068AA68296803F07AFB78
:100F9000C1490968B9EB117F06D121686869C96840
:100FA000C1F38201490008E02068C168C906C16830
:100FB0006869F5D501F010014908884029690429BC
:100FC0002ED023682A6803EB810102F0F8420B6EF1
:100FD000024303F0004010430866697E20682A69D6
:100FE000012917D05FF0000100EB8200026E22F0B1
:100FF00000420A430266297E20682A6901290CD032
:101000000021036902F01F02914023F4F0420A43D9
:10101000026135E04FF00041E6E74FF40061F0E790
:1010200020682978026E02F0F842B2EB816F03D19A
:10103000016E21F00041016620682978426E02F0BD
:10104000F842B2EB816F03D1416E21F0004141665D
:1010500020682978826E02F0F842B2EB816F03D1EA
:10106000816E21F00041816620682978C26E02F00D
:10107000F842B2EB816F03D1C16E21F00041C1662D
:101080002068816811F0010F78D150F8C03F2A7BA9
:10109000DFF808C2296802F018022CFA02FCC1F33A
:1010A000130823EA08030CEA010C43EA0C0303606B
:1010B0007B48E968814277D1286801031BD090FA08
:1010C000A0F1B1FA81F1491C01F01F0109294FEA91
:1010D000003131D8002911D090FAA0F1B1FA81F194
:1010E00001F1010101F01F0109FA01F209D100BF6C
:1010F000C0F3846109E0C0F38461E4E7C0F3846174
:10110000EEE790FAA0F1B1FA81F101F1010101F0ED
:101110001F0142EA816102D1C0F3846003E090FACA
:10112000A0F0B0FA80F000F1010000F01F0000EB29
:10113000400041EA005133E000290ED090FAA0F1BE
:10114000B1FA81F101F1010101F01F0109FA01F287
:1011500006D100BFC0F3846106E0C0F38461F1E70B
:1011600090FAA0F1B1FA81F101F1010101F01F0142
:1011700042EA816103D1C0F3846004E040E090FA68
:10118000A0F0B0FA80F0474A00F1010000F01F0023
:1011900000EB400002EB005041EA000141F0007119
:1011A000AA68206803F06EFAD5F800C0BCF1000F01
:1011B00026DA3D4B20683D49DFF8F490984201D093
:1011C000B04201D10A4600E04A469268984202F0D5
:1011D000E07201D0B04209D19D68D6F8088005F0D0
:1011E000010508F0010845EA080503E0DAF80850AF
:1011F00005F0010545B1606D012740F020006065F4
:10120000384684F850B08BE62A4DAC451BD1150208
:1012100019D45045F4D1984202D0B04200D049468A
:101220008B6842F4000023F0E07202438A60234995
:1012300021480968B1FBF0F0400000E0401E00903A
:101240000028FBD1DCE71E4DAC450CD1D5010AD4FA
:101250005045D5D1984202D0B04200D049468B6863
:1012600042F080700EE0174DAC45C9D15502C7D48D
:101270005045C5D1984202D0B04200D049468B6853
:1012800042F4800023F0E07202438A60B8E7000075
:1012900000210240006002580010005CFFFF0F00B8
:1012A0000000FF47000020FE002002400023024013
:1012B00000630258000084CB400D0300140000209E
:1012C000000052C70000B8CF406D70470068006C46
:1012D00070470000F8B54FF0000604003546009650
:1012E00002D0606D10B107E00120F8BD204600F08B
:1012F00003F9A66584F8506020688168C1F34071E5
:1013000019B181686F4A1140816020688168C1F31A
:10131000007179B981686C4A114041F08051816057
:101320006B496A480968B1FBF0F000E0401E00908C
:101330000028FBD120688168C1F3007141B9616D5B
:10134000012541F010016165A16D41F00101A16528
:1013500003F088F9616DC90600D420B1606D0125E4
:1013600040F0100093E0606D20F4807040F00200C7
:1013700060652068816811F0010F1FD15549564BF7
:10138000884201D0984207D18A689E6802F0010223
:1013900006F00106324303E0504A926802F001026F
:1013A00062B9884201D0984201D14D4800E04D48D1
:1013B0008268616822F47C120A43826000F066FC55
:1013C00041F20301884202D9A06810280CD0617D47
:1013D000227FA368206B490341EA02411843084376
:1013E000217F01290CD010E0607D227F216B40031A
:1013F00040EA024241F01000104340F00C00EFE7D9
:10140000218C394A02EB41410843616A29B1A26A41
:1014100001F47871014342EA01002268334BD1683C
:1014200019400143D160206803F01CF9064620688A
:1014300003F014F930431DD1216844F20303267DE3
:10144000E26AC86842EA863298431043C86094F85A
:10145000380001281ED02068016921F001010161D6
:101460002068626B016921F07041114301612046DF
:10147000FFF738FAE068012820681CD0016B21F0E2
:101480000F010163606D20F0020040F00100606513
:101490002846F8BD2068A38F154FD4E9101C154EBF
:1014A00007EB0347A26C036941EA0C013A4333405E
:1014B00011431943D3E7A269016B521E21F00F01BA
:1014C0001143DEE7C0FFFF5FC0FFFF7F400D030059
:1014D0001400002000200240002102400060025859
:1014E00000230240006302580000FEFF03C0F0FF2B
:1014F0000100FFFF1EF800FC704700002DE9F047D7
:10150000414D0446006888464049414BA842DFF8F7
:10151000049101D0484501D10A4600E01A4692687C
:1015200002F01F062269082A14D0AEB1052E13D08E
:10153000092E11D0A84202D0484500D0194688682B
:1015400000F4404058B1606D40F02000606501201B
:10155000BDE8F087082703E0C068C007F2E704276A
:1015600000F09AFB82460BE0B8F1FF3F08D000F094
:1015700093FBA0EB0A01414511D8B8F1000F0ED042
:10158000206800683842EFD0606D40F400706065FC
:10159000206803F06FF8D0B1607D48B117E0606D4E
:1015A000002184F8501040F0040060650320CFE76C
:1015B0002068006800070AD5606D20F480706065BF
:1015C000606DC00403D4606D40F001006065206868
:1015D000484501D12A4600E00246824210D07EB141
:1015E000052E0DD0092E0BD0484500D00546E968E0
:1015F000082F07D0490401D40C2101600020A7E77F
:10160000C168F5E70821F8E7002002400023024006
:1016100000630258002102402DE9F0413B4D044691
:1016200000683B4FA84201D0B84201D1394900E0DF
:101630003949896801F01F0603F014F818B1022136
:101640000846BDE8F08194F8500001280CD0012034
:1016500084F850002046FFF7C9F901004FF000025E
:1016600004D084F85020EBE70220EAE7636D40F6EF
:10167000016C206823EA0C03B84243F4807363656D
:1016800001D12B4600E00346834200D01EB9636DB2
:1016900023F480136365636DDB0404D5A36D23F02D
:1016A0000603A36500E0A2651C23036084F85020B4
:1016B0002068B84201D12A4600E00246824215D095
:1016C000A6B1052E12D0092E10D0626DB84242F498
:1016D0008012626500D00546E8688001B0D5606D73
:1016E00020F4005040F480506065A9E7C268920180
:1016F00005D5626D22F4005242F480526265826820
:10170000064B1A40121D82609AE70000002002403A
:10171000002102400023024000630258C0FFFF7F07
:1017200070B5044600F0B8FA0546601C02D00448C3
:101730000078044400F0B0FA401BA042FAD370BD18
:1017400008000020F8B5040002D0606D10B104E07C
:101750000120F8BD204600F0FBF8232060657248A8
:10176000016841F002010160006800F00200009091
:10177000207A08B14FF4000002F064F9206800F507
:101780008050016841F00101016000F085FAE02617
:1017900005464FF4FA7706E000F07EFA401BB842A7
:1017A00001D9042049E0206800F580500068C00796
:1017B000F2D12068D0F8000220F4706501F0DCFD61
:1017C0005A495B4A0144914202D245F4007516E041
:1017D000584A594902448A4202D245F440750EE003
:1017E0005649574A0144914209D35649564A08443A
:1017F000904202D245F4807501E045F4806520688E
:10180000C0F8005201F0B8FD504A2168B0FBF2F078
:10181000401EC1F8DC002046FFF73CF9206800F5C7
:101820008050D0F8001121F4E01141F40021C0F8FB
:1018300000116169880703D00120E065666587E7CC
:10184000206847F6FE7300F58050D0F808219A43CF
:1018500042EA4101C0F8081100210A46E06802EBA3
:10186000420504EB820300EBC5000160416081602A
:10187000C160521C042A9861F0D3A162032320683E
:1018800000F58050C0F82C312068E26800F58050E7
:10189000C0F814212068E26800F58050C0F82021CB
:1018A0005FF00002206902EB420604EB820500EBC8
:1018B000C600016041608160C160521C0161042A60
:1018C0004161E862EED3E16321646164E164A16493
:1018D000206800F58050C0F830312068226900F59A
:1018E0008050C0F81C212268206902F580524830DF
:1018F000C2F828011022D4E900308088C3F8000320
:10190000D4E900308578C77890F801C006782D04B6
:1019100046EA076045EA0C252843C3F80403E1655D
:101920006265A2650020F8BDF444025800D3CEFEE3
:10193000C0E1E40040F1E9FD40787D0100796CFCF4
:10194000005A6202001F0AFA80F0FA0240420F00B9
:1019500070B586B0044614216846FEF705FD364989
:101960002068884266D13548016841F40041016031
:10197000016801F400410591016841F48031016082
:10198000016801F480310591016841F40031016082
:10199000006800F40030059028480830016841F0E4
:1019A00004010160016801F004010591016841F042
:1019B00001010160016801F001010591016841F038
:1019C00002010160016801F002010591016841F026
:1019D00040010160006800240B26694600F04000C9
:1019E00005903220009002251548CDE90154CDE93B
:1019F000034600F02DF886200090CDE901541148EF
:101A00006946CDE9034600F023F828030090CDE9AC
:101A100001540D486946CDE9034600F019F84FF42A
:101A200020500090CDE9015408486946CDE90346AD
:101A300000F00EF806B070BD00800240D844025895
:101A4000000802580000025800040258001802580A
:101A50002DE9FC4F01257E4C00234FF0030A4FF087
:101A6000B04E4FF00F0BEBE005FA03F637403A00AB
:101A700077D04F68012F05D0022F03D0112F01D04E
:101A8000122F1AD187684FEA4308D1F80CC00AFA1E
:101A900008F927EA09070CFA08FC4CEA070CC0F819
:101AA00008C0476891F804C0B743CCF3001C0CFA97
:101AB00003FC4CEA070CC0F804C0C6684FEA430CAC
:101AC000D1F80880E1460AFA0CF7BE43019708FAFC
:101AD00009F848EA0608C0F80C804E68022E01D0CA
:101AE000122E12D1DE084FEA437C00EB86060096E8
:101AF0000F69366A4FEADC6C0BFA0CF807FA0CF740
:101B000026EA08063743009E37620E790768DDF83B
:101B100004C006F0030606FA09F627EA0C073E435E
:101B200006604E68F6001CD54A4E376847F002073B
:101B3000376036689F0706F00206009623F003061A
:101B400006F1B046B1463F0FD6F80864DFF80881C9
:101B50000BFA07FC404526EA0C0603D14FF0000CB7
:101B600041E06CE0DFF8F4C0604502D14FF0010CB9
:101B700039E0DFF8ECC0604502D14FF0020C32E0F2
:101B8000DFF8E0C0604502D14FF0030C2BE0DFF836
:101B9000D8C0604502D14FF0040C24E0DFF8CCC07F
:101BA000604502D14FF0050C1DE0DFF8C4C0604570
:101BB00002D14FF0060C16E0DFF8B8C0604502D144
:101BC0004FF0070C0FE0DFF8B0C0604502D14FF0D6
:101BD000080C08E0DFF8A4C0604502D14FF0090C02
:101BE00001E04FF00A0C0CFA07FC4CEA060CC9F8AD
:101BF00008C426684F6826EA0206FF0300D516438C
:101C0000266066684F6826EA0206BF0300D51643C1
:101C10006660D1F804C07646DEF800705FEACC2C2E
:101C200027EA020700D517433760D1F804C0776868
:101C30005FEA8C2C27EA020700D5174377605B1C0C
:101C40000A681746DA407FF40FAFBDE8FC8F00004A
:101C500080000058F4440258000002580004025862
:101C600000080258000C02580010025800140258D4
:101C700000180258001C0258002002580024025884
:101C80000AB1816170470904FBE700000148006860
:101C9000000C70470010005C01488068704700002D
:101CA0000800002030B590F84120202A24D190F877
:101CB0004020012A20D0012380F84030242280F8DF
:101CC0004120202300240268156825F001051560D5
:101CD0000268156825F480551560026815680D4383
:101CE000156001680A6842F001020A6080F841301C
:101CF00080F84040002030BD022030BD30B590F863
:101D00004120202A22D190F84020012A1ED0012310
:101D100080F84030242280F84120202400250268E9
:101D2000136823F0010313600268136823F47063DF
:101D300043EA0121116001680A6842F001020A6069
:101D400080F8414080F84050002030BD022030BD76
:101D500070B5040004D094F84100002510B106E0ED
:101D6000012070BD204684F8405000F0FFF8242088
:101D700084F841002068016821F001010160D4E984
:101D8000001020F0706008612068816821F4004133
:101D90008160E06821680128A06806D040F4044012
:101DA0008860E068022803D006E040F40040F7E7CE
:101DB00021684FF40060486020212068114A436880
:101DC000134343602068C26822F40042C26054F8A2
:101DD000106B0DCC104340EA0320F06054F81C3C1B
:101DE000D4E900021043186054F81C0D026842F058
:101DF00001020260656484F84110256384F8425052
:101E0000002070BD008000022DE9FF4F83B0044622
:101E100090F841009A469346DDE91087DDF8489036
:101E2000202874D15FEA080014D09FB194F84000D4
:101E300001286CD0012084F84000FFF72DFF01221B
:101E4000064619230090D103204602F069FB0028C2
:101E500071D103E04FF4007060646CE00025C4F8B9
:101E60002480222184F84110402084F842006564D7
:101E70006785534665635A4604992046CDE9009626
:101E800002F006FB10B184F8405054E0618DFF274A
:101E900034484FF08078FF294FF0007A04D9278525
:101EA0003A464346009005E0618D534621850090F7
:101EB00094F828202046049902F01CFB00224B468F
:101EC00004212046009602F02BFBA0BB2068616A2B
:101ED000406A0870606A401C6062208D401E81B2BA
:101EE0002185608D401E6085608DD8B1D1B90022FA
:101EF0004B4680212046009602F012FBD8B9608D37
:101F0000FF2805D927853A464346009506E026E096
:101F1000608D53462085009594F82820204604992A
:101F200002F0E8FA608D0028C8D1324649462046C2
:101F300002F023FB18B1012007B0BDE8F08F216843
:101F40002020094AC86121684B6813404B6084F81F
:101F5000410084F84250002084F84050ECE7022011
:101F6000EAE700000024008000E800FE704700005F
:101F7000024881680278114481607047080000209F
:101F8000032010B500F078F801F03CFA0F4A104930
:101F900014681368C4F3032203F00F038A5CC95C5E
:101FA00002F01F0201F01F01D0400A4A20FA01F19D
:101FB000116009490860002000F010F808B1012004
:101FC00010BD00F02BF8002010BD0000184402588E
:101FD000D47C0008180000201400002070B50D4DBE
:101FE00004462878A0B14FF47A71B1FBF0F00A49A9
:101FF0000968B1FBF0F001F02FFD48B9102C07D2B1
:1020000000222146501E00F017F800206C6070BDC1
:10201000012070BD0800002014000020054808B50C
:10202000016841F002010160006800F002000090C8
:1020300008BD0000F44402580E4BF0B41B680D4676
:10204000C3F30223C3F10706042E00D90426191D89
:10205000072901D2002300E0DB1E012404FA06F167
:102060009C40491E2940641E994014402143F0BC05
:1020700004F0C8B80CED00E0064900F0070210B506
:102080004FF6FF040868044B204040EA0220184342
:10209000086010BD0CED00E00000FA0501680123A6
:1020A000C0F8FC33002280F8F4238869044A40F029
:1020B00000608861486D104348650020704700004B
:1020C000030000102DE9F04104008AB005D094F817
:1020D000BD030025266820B108E001200AB0BDE854
:1020E000F081204684F8BC5300F066F8032084F8A1
:1020F000BD03F06BC00500D42561206804F01AF818
:1021000004F11001684628228846FEF714F994E885
:102110000F0003F0EFFE0227D8BB2068002104F077
:1021200031F80020012610E0C0EBC001421C04EB96
:10213000810181F83D6081F83F504D648D640D65EB
:1021400081F83C00A1F84200D0B261688142EBD82E
:10215000002011E0C0EBC001421C04EB810181F8BA
:10216000FD5181F8FF51C1F80452C1F80852C1F87D
:10217000105281F8FC01D0B261688142EAD828226D
:1021800041466846FEF7D7F894E80F0003F016FFC3
:1021900010B184F8BD73A0E7606A84F8385084F801
:1021A000BD63012802D12046FFF778FF206803F0C5
:1021B000F9FE002092E7000030B587B004461421F4
:1021C0006846FEF7D1F818492068884229D1174897
:1021D000016841F001010160006800240221144DF2
:1021E00000F0010005904FF4E8500A228DE813003A
:1021F000CDE9034269462846FFF72AFC4FF40070F8
:102200006946CDE9000428460294FFF721FC0748FF
:102210000838016841F000610160006800F000606A
:10222000059007B030BD000000000840E0440258AF
:1022300000000258134970B50A68D243520705D509
:10224000096801F00701814213D118E00A6822F001
:10225000070202430A60FFF71FFD0A4D4FF47A762A
:102260000446083D07E000BFFFF716FD001BB04223
:1022700001D9012070BD2868C0438004F4D4002037
:1022800070BD00000C4802580248016841F080719E
:10229000016070470C48025810B501F06DF805490F
:1022A0000968054AC1F30211515C01F01F01C840E1
:1022B00010BD000020440258D47C0008494930B5C4
:1022C000484C0B1D0A680C3409681D68246802F02C
:1022D000030305F00102C1F30511C4F3CC04002986
:1022E00014FB02F200EE102AF8EE400A75D03F4AC5
:1022F0009FED3D1AB7EE000A6BB1DFED3D1A012BE1
:1023000001D0022B64D002EE101A1168F8EE422AB6
:1023100081EEA22A21E0334C283C23689B0612D58B
:10232000344B246801EE901A1168C4F3C104F8EE2E
:10233000612AE34001EE903AC1F30801F8EE611A18
:1023400081EEA22A0BE001EE901ADFED2B2A00BFEE
:10235000F8EE611A116882EEA12AC1F3080101EEBC
:10236000901A1168F8EE611A40EE811A71EE800A37
:1023700062EE200AC1F3462101EE101AB8EE411AAE
:1023800031EE001AC0EE811ABCEEE11A80ED001A9F
:102390001168C1F3064101EE101AB8EE411A31EE90
:1023A000001AC0EE811ABCEEE11A80ED011A116824
:1023B000C1F3066101EE101AB8EE411A31EE000ABF
:1023C00080EE801ABCEEC10A80ED020A30BD04E046
:1023D00001EE901ADFED092ABAE7002101604160A1
:1023E0008160F3E728440258000000393044025865
:1023F0000024744A0090D0030024744C0024F44A52
:10240000494930B5484C0B1D0A68143409681D68E9
:10241000246802F00303C5F30012C1F30531C4F3CD
:10242000CC04002914FB02F200EE102AF8EE400A58
:1024300075D03F4A9FED3D1AB7EE000A6BB1DFED54
:102440003D1A012B01D0022B64D002EE101A116844
:10245000F8EE422A81EEA22A21E0334C283C236880
:102460009B0612D5344B246801EE901A1168C4F310
:10247000C104F8EE612AE34001EE903AC1F308018D
:10248000F8EE611A81EEA22A0BE001EE901ADFED60
:102490002B2A00BFF8EE611A116882EEA12AC1F35F
:1024A000080101EE901A1168F8EE611A40EE811AE7
:1024B00071EE800A62EE200AC1F3462101EE101A85
:1024C000B8EE411A31EE001AC0EE811ABCEEE11AE4
:1024D00080ED001A1168C1F3064101EE101AB8EE42
:1024E000411A31EE001AC0EE811ABCEEE11A80EDFD
:1024F000011A1168C1F3066101EE101AB8EE411A13
:1025000031EE000A80EE801ABCEEC10A80ED020AAC
:1025100030BD04E001EE901ADFED092ABAE7002190
:10252000016041608160F3E72844025800000039EF
:10253000384402580024744A0090D0030024744C9C
:102540000024F44A494930B5484C0B1D0A681C3434
:1025500009681D68246802F00303C5F30022C1F373
:102560000551C4F3CC04002914FB02F200EE102A3A
:10257000F8EE400A75D03F4A9FED3D1AB7EE000ACB
:102580006BB1DFED3D1A012B01D0022B64D002EEBE
:10259000101A1168F8EE422A81EEA22A21E0334C8B
:1025A000283C23689B0612D5344B246801EE901A10
:1025B0001168C4F3C104F8EE612AE34001EE903AD9
:1025C000C1F30801F8EE611A81EEA22A0BE001EED8
:1025D000901ADFED2B2A00BFF8EE611A116882EE27
:1025E000A12AC1F3080101EE901A1168F8EE611AF0
:1025F00040EE811A71EE800A62EE200AC1F3462194
:1026000001EE101AB8EE411A31EE001AC0EE811A2E
:10261000BCEEE11A80ED001A1168C1F3064101EE2B
:10262000101AB8EE411A31EE001AC0EE811ABCEE53
:10263000E11A80ED011A1168C1F3066101EE101A6A
:10264000B8EE411A31EE000A80EE801ABCEEC10AE3
:1026500080ED020A30BD04E001EE901ADFED092A98
:10266000BAE70021016041608160F3E72844025825
:1026700000000039404402580024744A0090D003FE
:102680000024744C0024F44A2DE9F0474FF480767E
:102690000146B0426F48DFF8B8818AB06E4D4FF006
:1026A0008057A8F104044FEA20124FF0005C4FEA73
:1026B000E00329D1D8F8001001F0070105291FD245
:1026C000DFE801F0030A0F20140006A8FFF7F6FD6B
:1026D00007980AB0BDE8F0876846FFF791FE0098BA
:1026E000F7E703A8FFF72EFF0398F2E7216811F040
:1026F0004051EED0B94275D11046EAE71846E8E7F6
:102700000020E6E72846E4E7B1F5007F19D0534EF4
:10271000B1F5806F26D0B1F5006F37D04FF48059F6
:1027200049454FF4804A4BD1D8F8001001F4E041FC
:10273000B1F5005FD5D03DDC0029C6D04945DFD1D9
:10274000CAE7D8F8001001F4E0718029C9D004DC90
:102750000029BAD04029D3D1BEE7C029D2D0B14296
:10276000CED1C3E7316801F46001B1F5800FB8D074
:1027700005DC0029A9D0B1F5001FC1D1ACE7B1F546
:10278000C00FBFD0B1F5000FBAD1AFE7316801F08B
:10279000E061B1F1007FA4D005DC002995D0B1F152
:1027A000807FADD198E7B1F1407FABD0B1F1806FC0
:1027B000A6D19BE7B1F5405FA4D05145A0D195E7E4
:1027C000B1F5002F4FF480350DD0A9421DD12068FE
:1027D00010F48030B1D0A84292D16846FFF710FEC5
:1027E000029876E70EE0316811F44031A8D0A94292
:1027F00003D0B1F5003F83D178E703A8FFF7A2FE2D
:10280000059866E761459AD178E7514597D13168D7
:1028100001F0E041B1F1405FE3D009DC81B1B942A0
:1028200011D061458BD103A8FFF78CFE049850E7C7
:10283000B1F1804F3FF460AFB1F1A04F8BD15DE7B4
:10284000FFF72AFD45E76846FFF7DAFD019840E704
:10285000504402580090D0030080BB0058440258F6
:102860002DE9FC5F044650F8241B002500902E46FD
:102870000801FE4FDFF8F8831DD5606E50B1B0F54A
:10288000801F0CD0B0F5001F0ED0B0F5401F1DD03A
:1028900001250FE0386840F40030386016E002216E
:1028A000201D02F039FC03E00098022102F0C4FC74
:1028B00005000BD02E462088C00523D5606D052865
:1028C0001ED2DFE800F00C11161B1B00626ED8F858
:1028D000001021F440111143C8F80010EBE73868EC
:1028E00040F40030386009E00021201D02F014FCA3
:1028F00003E00098002102F09FFC05466DB100E066
:1029000001252E462088800528D5A06D80281ED060
:102910000CDC90B140280ED114E0626DD8F80010A4
:1029200021F007011143C8F80010EBE7C02813D0CD
:10293000B0F5807F10D001250FE0386840F40030FA
:10294000386009E00021201D02F0E6FB03E000985A
:10295000002102F071FC054695B12E462088DFF873
:102960001093400509F108092CD5D4F8A400B0F55E
:10297000800F20D00DDCA0B1B0F5001F0FD115E005
:10298000A26DD8F8001021F4E0711143C8F80010CE
:10299000E4E7B0F5C00F13D0B0F5000F10D001255B
:1029A0000FE0386840F40030386009E00021201D55
:1029B00002F0B2FB03E00098002102F03DFC054666
:1029C00075B12E46208800052DD5D4F8A800B0F1A9
:1029D000007F21D00EDCA8B1B0F1807F10D116E0CD
:1029E000D4F8A420D9F8001021F460011143C9F8EB
:1029F0000010E7E7B0F1407F13D0B0F1806F10D046
:102A000001250FE0386840F40030386009E000210B
:102A1000201D02F081FB03E00098002102F00CFC75
:102A200005466DB12E46206880011FD5A06CD8B137
:102A300010280FD0202812D0302815D0012514E0FE
:102A4000D4F8A820D9F8001021F0E0611143C9F8AA
:102A50000010E8E7386840F40030386004E00221F4
:102A6000201D02F059FB05466DB12E462088C0049A
:102A70002BD5E06DB0F5005F20D00DDCA0B1B0F536
:102A8000805F0FD115E07A48A26C001F016821F029
:102A9000300111430160E9E7B0F5405F13D0B0F5B4
:102AA000804F10D001250FE0386840F400303860C6
:102AB00009E00021201D02F02FFB03E00098002117
:102AC00002F0BAFB054685B12E462088800429D540
:102AD000206EB0F5403F23D010DC08B3B0F5803F46
:102AE00014D0B0F5003F0FD115E0E26DD8F800101A
:102AF00021F4E0411143C8F80010E6E7B0F5802F5B
:102B00000ED0B0F5A02F0BD001250AE00121201D29
:102B100002F002FB03E00098012102F08DFB054664
:102B20008DB12E46208840042AD5D4F8AC00B0F1EF
:102B3000405F23D010DC08B3B0F1805F14D0B0F157
:102B4000005F0FD115E0226ED8F8001021F4E021CB
:102B50001143C8F80010E5E7B0F1804F0ED0B0F196
:102B6000A04F0BD001250AE00121201D02F0D4FA6C
:102B700003E00098012102F05FFB05466DB12E468F
:102B8000208800041FD5E06ED8B1B0F1805F0ED070
:102B9000B0F1005F10D0012514E0D4F8AC20D9F8D2
:102BA000001021F0E0411143C9F80010E8E738684F
:102BB00040F40030386004E00121201D02F0ACFA3E
:102BC00005466DB12E462068C0011ED5606CD0B19F
:102BD00001280ED0022811D0032814D0012513E0BB
:102BE000E26ED8F8001021F040511143C8F80010EF
:102BF000E9E7386840F40030386004E00221201D25
:102C000002F08AFA054685B12E462068DFF85CB0EE
:102C10004002ABF11C0B57D51648016841F4807196
:102C20000160FFF739F882460EE01148626C001F20
:102C3000016821F0030111430160E6E7FFF72CF87A
:102C4000A0EB0A0064283DD80A480068C005F5D505
:102C50007DBBDFF81CA0B4F8B0100AF1200ADAF846
:102C6000000001F4407100F4407005E02C4402586B
:102C70005044025800480258884211D0DAF8001037
:102C8000DAF8002021F4407142F48032CAF80020C2
:102C9000DAF8002022F48032CAF80020CAF80010C6
:102CA000D4F8B000B0F5807F21D1FEF7F5FF019098
:102CB00019E008E0FEF7F0FF0199411A41F288306F
:102CC000814210D903252E462078DFF830A4C007B2
:102CD0003DD0A06F182838D026DC80B3082829D032
:102CE000102825D12CE0DAF800008007E2D5D4F8CE
:102CF000B010C1F30120032858460DD0016821F41B
:102D00007C510160B4F8B020DAF80010C2F30B0275
:102D10001143CAF80010D7E7F94A036802EA111212
:102D200023F47C511143ECE720280ED028280CD046
:102D300001250BE00121201D02F0EEF904E004E082
:102D40000098012102F078FA05465DB12E46207800
:102D500080071ED5606F062819D2DFE800F0160C38
:102D600011161616A26FDAF8001021F0380111437F
:102D7000CAF80010EBE70121201D02F0CDF903E0B5
:102D80000098012102F058FA054675B100E00125CE
:102D90002E46207840071FD5D4F89000062819D277
:102DA000DFE800F0160C11161616626FDAF8001044
:102DB00021F007011143CAF80010EAE70121201DA4
:102DC00002F0AAF903E00098012102F035FA054665
:102DD0009DB100E001252E46207880062BD5D4F841
:102DE0008C00B0F1405F24D011DC10B3B0F1805FF3
:102DF00015D0B0F1005F10D116E0D4F89020D9F8CA
:102E0000001021F007011143C9F80010E4E7B0F108
:102E1000804F0ED0B0F1A04F0BD001250AE0002169
:102E2000201D02F079F903E00098022102F004FA73
:102E300005468DB12E46207840062BD5D4F8980053
:102E4000B0F5406F24D011DC10B3B0F5806F15D011
:102E5000B0F5006F10D116E0D4F88C20DAF800102D
:102E600021F0E0411143CAF80010E4E7B0F5805FBB
:102E70000ED0B0F5A05F0BD001250AE00021201D87
:102E800002F04AF903E00098022102F0D5F9054664
:102E90008DB12E46207800062BD5D4F89C00B0F5D5
:102EA000C04F24D011DC10B3B0F5005F15D0B0F5E1
:102EB000804F10D116E0D4F89820D9F8001021F4F2
:102EC000E0511143C9F80010E4E7B0F5004F0ED00F
:102ED000B0F5204F0BD001250AE00021201D02F0A3
:102EE0001BF903E00098022102F0A6F905464DB156
:102EF0002E46207800071ED5D4F88000B0F5805FFC
:102F00000AD00FE0D4F89C20D9F8001021F46041D9
:102F10001143C9F80010ECE70098022102F08CF987
:102F200000B10126D4F88020DAF8001021F44051D5
:102F30001143CAF800102078C00613D5D4F89400C5
:102F4000B0F5807F05D10098022102F075F900B13B
:102F50000126D4F89420D9F8001021F440711143CF
:102F6000C9F800102068000316D5D4F8A00038B1C5
:102F7000B0F5803F09D0B0F5003F0BD001250AE045
:102F80000021201D02F0C8F803E00098022102F0A1
:102F900053F9054685B12E462068400322D5D4F862
:102FA0008400B0F5801F11D0B0F5001F13D0B0F52C
:102FB000401F15D0012514E0D4F8A020D9F8001046
:102FC00021F440311143C9F80010E5E7386840F4B6
:102FD0000030386004E00098012102F02DF9054628
:102FE00055B12E462068C0031CD5E06C70B1B0F519
:102FF000803F10D0012514E0D4F88420DAF80010C6
:1030000021F440111143CAF80010EBE7386840F48E
:103010000030386004E00221201D02F07DF80546F2
:10302000CDB12E462068800005D50098022102F01F
:1030300003F900B10126206880031BD5E06FB8B109
:10304000B0F5807F10D0B0F5007F11D0B0F5407F93
:103050000ED001250DE02948E26C0838016821F402
:10306000803111430160DDE7386840F4003038609A
:10307000F5B32E462068C00207D5226FD8F800109D
:1030800021F000411143C8F800102068C00008D5A5
:10309000D4F8B420DBF8001021F480411143CBF8C0
:1030A00000102068800207D5A26ED8F8001021F029
:1030B00080711143C8F80010206840000CD5DBF87F
:1030C000001021F40041CBF80010DBF80010D4F818
:1030D000B8201143CBF800102068002807DA074811
:1030E000226D0838016821F040511143016000E071
:1030F00008E086B10120BDE8FC9F0000544402585E
:10310000CFFFFF00E26FDAF8001021F440711143A5
:10311000CAF80010AEE70020EDE700002DE9F05FEF
:1031200004000F467ED0DFF83882D8F8000000F0A7
:103130000F00B8420CD2D8F8001021F00F0139432B
:10314000C8F80010D8F8000000F00F00B84269D1AC
:103150002078844D40070AD52069296801F0700164
:10316000884204D9296821F0700101432960207840
:103170007C4E361D00070AD56069316801F0700188
:10318000884204D9316821F0700101433160207810
:10319000C0060AD5A069316801F4E061884204D90B
:1031A000316821F4E061014331602078DFF8B4B187
:1031B00080060BF1080B0CD5E1695846DBF80020BE
:1031C00002F07002914204D9026822F070020A43B0
:1031D0000260207880070AD5E068296801F00F01B5
:1031E000884204D9296821F00F0101432960207821
:1031F000C0073ED05B49A2682868183920F4706087
:10320000104328606068022818D0032819D0096884
:10321000012819D0490700294ADADFF848A1AAF1A4
:10322000080A00E044E0DAF8002022F00702024336
:10323000CAF80020FEF730FD814612E009688903D4
:10324000E9E709688901E6E7C905E4E7FEF724FD37
:10325000A0EB090141F28830814202D90320BDE888
:10326000F09F6168DAF8000000F03800B0EBC10FA1
:10327000ECD1207880070AD5E068296801F00F01B9
:10328000884204D2296821F00F0101432960D8F84F
:103290000010404601F00F01B9420BD9016821F03E
:1032A0000F0139430160006800F00F00B84201D0FF
:1032B0000120D4E7207840070AD52069296801F069
:1032C0007001884204D2296821F07001014329600D
:1032D000207800070AD56069316801F070018842E2
:1032E00004D2316821F07001014331602078C006BA
:1032F0000AD5A069316801F4E061884204D23168DE
:1033000021F4E06101433160207880060CD5E16949
:103310005846DBF8002002F07002914204D20268A5
:1033200022F070020A43026000F06CF80E492A682D
:103330002B68C2F3032203F00F038A5CC95C02F01E
:103340001F0201F01F01D040084A20FA01F111606C
:103350000749086007480068BDE8F05FFEF73EBE19
:103360000020005218440258D47C000818000020A5
:10337000140000200C00002030B500F043F80B4A88
:103380000B490C4B15681468C5F3032204F00F04B5
:103390008A5C095D02F01F0201F01F01D040064A5D
:1033A00020FA01F119601060084630BD1844025837
:1033B000D47C0008180000201400002000B5FFF79E
:1033C000DBFF05490968054AC1F30211515C01F0B0
:1033D0001F01C84000BD00001C440258D47C0008F6
:1033E00000B5FFF7C9FF05490968054AC1F3022185
:1033F000515C01F01F01C84000BD00001C44025890
:10340000D47C0008454970B545480968434B103BDA
:1034100011F0380208D00111082A03D0102A0BD06D
:10342000182A0BD0084670BD19688906FBD51968A3
:10343000C1F3C101C84070BD3A4870BD3749374D2E
:1034400018310C1D24350A68096826682D6802F0B9
:10345000030406F00102C1F30511C5F3CC0515FB09
:1034600002F200EE102AB8EE400AE9B32F4ADFED6F
:103470002E0AB7EE001A6CB1DFED2D1A012C01D027
:10348000022C43D002EE101A1068F8EE422A81EEA8
:10349000A22A1EE01C68A40611D51B6801EE901A32
:1034A0001168C3F3C103F8EE612AD84001EE900A17
:1034B000C1F30800F8EE611A81EEA22A0BE001EEDA
:1034C000901ADFED1C2A00BFF8EE611A106882EE38
:1034D000A12AC0F3080001EE900AF8EE611A40EE4E
:1034E000201A31EE810A00E015E022EE000A106891
:1034F000C0F34620401C00EE900AF8EE600A80EE11
:10350000201ABCEEC10A10EE100A70BD01EE901A2E
:10351000DFED092AD8E7002070BD000010440258F2
:103520000090D00300127A000000003930440258A5
:103530000024744A0024744C0024F44A2DE9F05FFE
:1035400004007CD0FF4F2078FE4D1837DFF8F4934D
:10355000103DC00748D0D9F80000396800F03800A5
:10356000102815D0182803D101F0030002280FD02D
:103570006068B0F5803F12D010B1B0F5A02F18D020
:10358000286820F480302860286820F4802009E032
:103590002868800328D560680028D2D024E02868F5
:1035A00040F480302860606888B1FEF775FB0646FD
:1035B00009E0286840F480202860F0E7FEF76CFB03
:1035C000801B64287ED828688003F7D50CE0FEF7BE
:1035D00063FB064605E000BFFEF75EFB801B642828
:1035E000F0D828688003F7D4207841F20308D54E3C
:1035F0000C3E800753D5D9F80000396810F0380028
:103600000ED0182801D188070AD0E068A8B329682D
:1036100021F0190101432960FEF73EFB82461BE0C1
:103620002868400702D5E06800288AD0FEF72EFB04
:1036300040451BD82069402812D0316800E0CCE01A
:1036400021F47C3141EA0030306028E0FEF724FBB1
:10365000A0EB0A000228B5D828684007F6D5E5E7B0
:10366000306820F47C3040F40030EDE7207C316895
:1036700021F0FE4141EA0060E6E7FFE7286820F01C
:1036800001002860FEF708FB824605E0FEF704FB18
:10369000A0EB0A00022895D828684007F6D42078C5
:1036A000C0065FD5D9F80000DFF898B2396800F09D
:1036B0003800ABF1040B082812D0182805D101F00E
:1036C000030000E0EAE001280AD0E0690028286849
:1036D00038D040F080002860FEF7DEFA824623E012
:1036E0002868C00523D5E069802876D11FE0206ACC
:1036F000202821D0316821F0F84141EA8060306013
:1037000030E000BF94F82010DBF8002022F07C525B
:1037100042EA0161CBF8001024E000BFFEF7BCFADA
:10372000A0EB0A00022896D82868C005F6D5FEF757
:10373000ADFA4045E6D8DAE7306820F0F84040F0CE
:103740008040DCE720F080002860FEF7A5FA0646FE
:1037500005E000BFFEF7A0FA801B02289BD828686E
:10376000C005F7D42078000729D576486169643010
:1037700000298046016811D041F001010160FEF787
:103780008BFA064605E000BFFEF786FA801B02288A
:10379000C9D8D8F800008007F6D510E021F0010163
:1037A0000160FEF779FA064605E000BFFEF774FAFD
:1037B000801B022872D8D8F800008007F6D4207841
:1037C000800623D5A0690028286810D040F48050D6
:1037D0002860FEF761FA064605E02CE1FEF75CFA88
:1037E000801B02285AD828688004F7D50EE020F400
:1037F00080502860FEF750FA064604E0FEF74CFAC7
:10380000801B02284AD828688004F7D42078400713
:103810004FD5DFF83481D8F8001041F48071C8F832
:103820000010FEF739FA064605E000BFFEF734FA4D
:10383000801B642832D8D8F80000C005F6D5414E68
:10384000A068603601280AD008B1052813D0306876
:1038500020F001003060306820F0040002E03068A1
:1038600040F001003060A06841F2883A90B1FEF764
:1038700013FA80460AE0306840F004003060EEE75A
:10388000FEF70AFAA0EB0801514507D83068800717
:10389000F6D50EE0FEF700FA804607E084E000BFB0
:1038A000FEF7FAF9A0EB080151457DD83068800792
:1038B000F6D4606AF0B3DFF88C80D9F8001008F114
:1038C0002008C1F3C20103296FD00228286820F024
:1038D0008070286003D0FEF7DFF9044680E0FEF731
:1038E000DBF9064605E000BFFEF7D6F9801B02288B
:1038F00073D828688001F7D4E26A40F2F33138685F
:1039000054F8283F884340EA021018433860217B6E
:103910004FF4FE0C22894FF0FE47208A4902267D93
:10392000521E401EA1F5007189B20CEA0040C2F39C
:10393000080200E081E01143761E0143014807EAD6
:10394000066203E010440258004802581C3011433C
:103950003B4AC8F80010016821F0010101601168BC
:103960004FF6F876236AB14341EAC301116001685A
:10397000A26921F00C01114301600168E26921F0A4
:10398000020111430160016841F480310160016866
:1039900041F400310160016841F480210160016857
:1039A00041F00101016001E017E01DE0286840F0EE
:1039B00080702860FEF770F9044604E0FEF76CF9A9
:1039C000001B022809D828688001F7D535E000BF20
:1039D000FEF762F9001B022802D90320BDE8F09F20
:1039E00028688001F4D428E039680128D8F800005C
:1039F00021D0A26A01F0030393421CD1E26AC1F311
:103A000005118A4217D1216BC0F30802491E8A4270
:103A100011D1616BC0F34622491E91420BD1A16BBB
:103A2000C0F30642491E914205D1E16BC0F3066026
:103A3000491E814201D00120D0E70020CEE70000DE
:103A40003444025803490A6822F4600202430A60BF
:103A50007047000004040058401EB0F1807F10B58C
:103A600001D3012010BD4FF0E02460610F216017E9
:103A700002F0C8FB0020A0610721216110BD0000F9
:103A80002DE9F04390F83C20012A42D0012280F831
:103A90003C2051F80C4BDFF880804FF0000991E892
:103AA000680051E9022723F44073B1F80CC03B438E
:103AB000CF6923F480631343026823F40063234334
:103AC00023F4805343EA050323F4005343EA060337
:103AD00023F4804343EA07030C3923F4702342455F
:103AE00043EA0C4302D00D4CA2420CD18D8C23F43E
:103AF0007006D1E9073446EA055121F08071194377
:103B000021F000732343536480F83C900020BDE80B
:103B1000F0830220FBE700000000014000040140A8
:103B2000F0B590F83C20012A38D01D4E012480F8D1
:103B30003C40022280F83D2002681A4D5368B24290
:103B4000D2F808C001D0AA4203D14F6823F4700311
:103B50003B430F6823F070031F4357600268B24273
:103B600010D0B2F1804F0DD00F4B9A420AD00F4BBC
:103B70009A4207D00E4B9A4204D0AA4202D00D4B73
:103B80009A4204D189682CF0800319439160002186
:103B900080F83D4080F83C100846F0BD0220F0BDA2
:103BA0000000014000040140000400400008004003
:103BB000000C00400018004010B5040003D094F839
:103BC0003D0010B107E0012010BD002084F83C004A
:103BD000204600F023F8022084F83D002068211DD3
:103BE00001F06AFC012084F8480084F83E0084F863
:103BF0003F0084F8400084F8410084F8420084F8D3
:103C0000430084F8440084F8450084F8460084F8B2
:103C1000470084F83D00002010BD000008B5006892
:103C20000649884208D10648016841F00101016057
:103C3000006800F00100009008BD00000000014095
:103C4000F044025870B5044690F83C00012814D0A6
:103C5000394B012584F83C50022084F83D0022684D
:103C60009068184020F47F4090600868702828D041
:103C700010DC10F00F0F03D04BE04FF0020070BDCE
:103C80004FEA2012072A44D2DFE802F05151515185
:103C900049323A00B0F1101F49D009DCB0F5805F1D
:103CA00037D0B0F5005F17D0B0F5801F31D13EE0BE
:103CB000A0F5801120393AD0102938D0202928D1F8
:103CC00035E04A682068D1E9021301F064FC2068FD
:103CD000816841F0770109E04A682068D1E9021360
:103CE00001F059FC2068816841F48041816010E056
:103CF000CA684968206801F0E9FD2068502106E0A3
:103D0000CA684968206801F0F2FD2068602101F06E
:103D10004BFC002084F83D5084F83C0070BDCA681C
:103D20004968206801F0D2FD20684021EFE7226851
:103D300001461046EBE7000088FFCEFF2DE9F04179
:103D400004000D4603D094F83D0018B108E00120AE
:103D5000BDE8F081002084F83C00204600F04CF8DB
:103D6000244A022084F83D00206881681140816067
:103D70002068211D01F0A0FB226840F20336AF69E4
:103D800040F60C4C2B684FF2F00EA86891680B437C
:103D90009169B14341EA07210843D5E9031720EAB5
:103DA0000C00D5E9076C20EA0E00D2F820E03F01B4
:103DB00040EA062668686D69314347EA0C3793602C
:103DC00023680F4301219F612EF0AA0242EA0513E6
:103DD00022681843106284F8481084F83E1084F872
:103DE0003F1084F8441084F8451084F83D100020FA
:103DF000AEE70000F8BFFEFF7047000010B586B0C8
:103E0000044614216846FCF7AFFA0E492068884240
:103E100016D10D48016841F01001016000680123CE
:103E2000022200F01000059000204FF4285100916C
:103E30006946CDE90120CDE903030448FDF708FEFA
:103E400006B010BD00000140E044025800100258C6
:103E500010B5044690F83C0001280BD0012084F8EE
:103E60003C000C2A19D007DC5AB1042A0DD0082ACC
:103E70001ED10EE0022010BD102A12D0142A17D134
:103E800013E0206801F09AFB12E0206801F0EAFBE1
:103E90000EE0206801F032FC0AE0206801F074FCBA
:103EA00006E0206801F0A6FC02E0206801F0D8FCE2
:103EB000002084F83C0010BD10B5040003D094F835
:103EC0003D0010B107E0012010BD002084F83C0047
:103ED000204600F022F8022084F83D002068211DD1
:103EE00001F0EAFA012084F8480084F83E0084F8E2
:103EF0003F0084F8400084F8410084F8420084F8D0
:103F0000430084F8440084F8450084F8460084F8AF
:103F1000470084F83D00002010BD704770B504468E
:103F200090F83C000D4601280BD0012084F83C009D
:103F30000C2A45D007DC5AB1042A1BD0082A78D1B4
:103F40002CE0022070BD102A4ED0142A71D15DE001
:103F5000206801F033FB2068816941F0080181612C
:103F60002068816921F00401816120682A698169E2
:103F7000114311E0206801F075FB2068816941F46C
:103F8000006181612068816921F48061816120681C
:103F90002969826942EA012181614AE0206801F0D1
:103FA000ADFB2068C16941F00801C1612068C169A9
:103FB00021F00401C16120682A69C169114311E03F
:103FC000206801F0E1FB2068C16941F40061C16132
:103FD0002068C16921F48061C16120682969C269D2
:103FE00042EA0121C16124E0206801F003FC20685D
:103FF000416D41F0080141652068416D21F00401E7
:10400000416520682A69416D114311E0206801F083
:1040100027FC2068416D41F4006141652068416DD5
:1040200021F48061416520682969426D42EA0121DD
:104030004165002084F83C0070BD10B5040003D039
:1040400094F83D0010B107E0012010BD002084F875
:104050003C00204600F022F8022084F83D00206851
:10406000211D01F029FA012084F8480084F83E005F
:1040700084F83F0084F8400084F8410084F842004E
:1040800084F8430084F8440084F8450084F846002E
:1040900084F8470084F83D00002010BD7047000000
:1040A00010B504464FF0020269B1042912D0082964
:1040B00017D00C291CD0102921D094F843000128D6
:1040C00024D0012010BD94F83E000128F9D184F8D5
:1040D0003E201DE094F83F000128F2D184F83F20F3
:1040E00016E094F840000128EBD184F840200FE05E
:1040F00094F841000128E4D184F8412008E094F8C4
:1041000042000128DDD184F8422001E084F84320F8
:104110000122206801F032FA1149206888420BD050
:104120001049884208D01049884205D00F4988427A
:1041300002D00F49884203D1416C41F400414164EF
:1041400020680C4A81681140062906D0B1F5803FED
:1041500003D0016841F001010160002010BD0000A2
:1041600000000140000401400040014000440140C3
:10417000004801400700010030B590F87C1001298B
:1041800018D0012280F87C202421C0F88010002261
:10419000202450F8601B0B680D6823F0005325F0B5
:1041A00001050D60426050F8601C0B6004620277EC
:1041B000104630BD022030BD70B5044690F87C003A
:1041C00001281DD0012284F87C202420C4F880001E
:1041D00020680568026822F0010202602068826897
:1041E00022F060620A438260204601F093FB22685D
:1041F000202100201560C4F8801084F87C0070BD78
:10420000022070BD70B5044690F87C0001281DD0D6
:10421000012284F87C202420C4F8800020680568EE
:10422000026822F0010202602068826822F0604287
:104230000A438260204601F06DFB226820210020A5
:104240001560C4F8801084F87C0070BD022070BD39
:1042500010B5040003D0D4F8800010B107E00120AD
:1042600010BD002084F87C00204600F027F82420B0
:10427000C4F880002068016821F001010160204637
:1042800001F00EFC0128EBD0A06A10B1204601F02D
:1042900073FB2068416821F4904141602068816887
:1042A00021F02A0181602068016841F0010101606C
:1042B0002046BDE8104001F0C3BB000010B586B039
:1042C000044614216846FCF74FF8134920688842D9
:1042D00020D11248016841F480210160006800F497
:1042E000802005900D480838016841F00801016000
:1042F00000680723022200F00800059000204FF418
:10430000407100916946CDE90120CDE903030448DD
:10431000FDF79EFB06B010BD00480040E84402587F
:10432000000C02582DE9F8430446D0F880001F46DF
:1043300016460D46202852D1DDB1D6B194F87C0046
:1043400001284CD0012084F87C0021224FF0000885
:10435000C4F88880C4F880201834FDF79DFC81469D
:1043600054F8100CA687E687183CB0F5805F03D0A0
:1043700004E00120BDE8F883206920B12E46002525
:1043800084F87C8010E00026FAE78021204601F0C6
:104390005FFDB8B9C6B116F8010B21688862B4F8A0
:1043A0005600401EA4F85600B4F856004B464FF095
:1043B000000200970028E8D14FF04001204601F0AC
:1043C00047FD38B10320D5E735F8020B2168C0F36B
:1043D0000800E3E72020C4F880000020CAE702209C
:1043E000C8E7FEE701688A69D243920701D4002238
:1043F0008A6200688169C943C90703D0816941F0B5
:1044000001018161704700002DE9F0410446006818
:1044100090460E468069C043C00635D4002520274B
:1044200020688069C043800616D5701CF8D0FDF75F
:1044300033FCA0EB0800B04201D8002EF0D1606C34
:1044400084F8405040F02000606484F8417084F8A3
:1044500042500120BDE8F08121681020C861206829
:10446000C7612046FFF7BEFF2068084942680A403E
:104470004260606C40F00400606484F8417084F82D
:10448000425084F84050E4E70020E3E700E800FEF3
:104490002DE9F843174604461548DAB2DDE90898D5
:1044A0001E4600900023204600F024F8424649466C
:1044B000204600F089F8B8B9012EFDB208D0206876
:1044C000390A816242464946204600F07DF858B9D3
:1044D00020688562002240214B462046CDF80080AE
:1044E00000F01EF8002800D00120BDE8F88300008D
:1044F0000020008070B50068C1F30901074E41EA51
:104500000241049C4FF480654268194305EA545502
:104510003543AA4321430A43426070BDFF63FF0352
:104520002DE9F0411D4617460E460446DDF8188079
:1045300008E0681C06D0FDF7AFFBA0EB0800A8421E
:104540000BD855B12068806936EA000013D00020EE
:10455000B842EED00020BDE8F081626C002084F803
:104560004000202142F02002626484F8411084F867
:1045700042000120EFE70120EAE770B516460D463C
:1045800004460DE0324629462046FFF73DFF08B1BC
:10459000012070BDFDF780FB801BA84207D835B114
:1045A00020688069C0438006ECD4002070BD626C36
:1045B000002084F84000202142F02002626484F848
:1045C000411084F84200E3E770B516460D460446F4
:1045D0000FE0324629462046FFF716FF08B10120BA
:1045E00070BD681C05D0FDF757FB801BA84207D89B
:1045F00035B120688069C0438007EAD4002070BDCF
:10460000626C002084F84000202142F020026264A5
:1046100084F8411084F84200E1E700001FB5022150
:1046200040F6FF7203A88DE80700094801230D2218
:104630003621FDF7E9FBBDF80C009FED061B00EEEF
:10464000100AB8EE400B20EE010BB7EEC00B1FBDF9
:10465000F402002099BB96900F7AB63F8068C0F3B1
:10466000C00070478068C0F3800070478068C0F366
:1046700080007047C06810F4406F01D00020704780
:104680000120704710B5042404EAD1540723C1F374
:10469000045120448B408A40416999431143416150
:1046A00010BD00000948B7EEC02A90ED020A9FED48
:1046B000081B9FED093BB7EEC00A20EE010B02EE8E
:1046C000030BB7EEC00B80ED020A704770000020AC
:1046D000CDCCCCCCCCCCEC3F9A9999999999B93F57
:1046E0000948B7EEC02A90ED010A9FED081B9FED27
:1046F000093BB7EEC00A20EE010B02EE030BB7EE4A
:10470000C00B80ED010A704770000020CDCCCCCCEE
:10471000CCCCEC3F9A9999999999B93F0948B7EE51
:10472000C02A90ED000A9FED081B9FED093BB7EEF4
:10473000C00A20EE010B02EE030BB7EEC00B80EDBA
:10474000000A704770000020CDCCCCCCCCCCEC3F24
:104750009A9999999999B93F30B58BB000246846D8
:104760001C21079408940994FBF7FEFD16480822C3
:104770001449042501600121C0E90142C0E9034553
:10478000047544758161047744628462C462046381
:10479000446380F83840FCF79DFD0B4807A9079457
:1047A000FCF712FB0948062140F2FF728DE8130066
:1047B000059469460448CDE90325FCF797FB0BB047
:1047C00030BD0000002002403C01002004006008D1
:1047D00017487CB515490024016080228DF80040FF
:1047E000E1238DF8012001258DF8023040F2F451CB
:1047F0008DF804408DF803408DF80540C0F804D0D2
:104800000C4A0572C2600C4AC0E90421FCF79AFF09
:10481000074834219838FBF7A7FD054821224FF4BB
:10482000403198380260C0E904417CBD00800240FC
:10483000A001002060000430000004302DE9F043A6
:1048400087B014216846FBF78FFD3F48016841F0AF
:1048500004010160016801F004010591016841F063
:1048600080010160016801F080010591016841F05B
:1048700001010160016801F001010591016841F049
:1048800010010160016801F010010591016841F01B
:1048900002010160016801F002010591016841F027
:1048A00008010160016801F008010591016841F00B
:1048B0004001016000684FF48146244F002200F05F
:1048C0004000314605903846FDF7DAF9DFF8808080
:1048D000002208214046FDF7D3F9DFF87890002246
:1048E00040214846FDF7CCF91B4900244FF4005005
:1048F0008DE8130019486946FDF7AAF801250096CE
:10490000CDE90154694638460394FDF7A1F8082023
:104910000090CDE90154694640460394FDF798F8AC
:1049200040200090CDE90154694648460394FDF7C4
:104930008FF880206946CDE9000448460294FDF7CF
:1049400087F807B0BDE8F083E0440258000402583D
:1049500000140258001802580000111100080258F3
:104960000E48002110B50C4C01230D4A0460C0E92B
:104970000121C0E9033141618161C1610162FDF73B
:10498000E7F906480021FDF78DF9BDE8104003481E
:104990000021FDF7B3B90000001C0058F40200200C
:1049A000B175703070B59AB000241C21009407A82E
:1049B000019402940394049405940694FBF7D4FCA8
:1049C0002C210EA8FBF7D0FC264880214FF47A72E8
:1049D000234B01252026C0E90324C0E9054180E8D6
:1049E0006800FFF7E9F8280300901E486946FFF7C2
:1049F00029F91C48FFF721FB1A4804A904940594DF
:104A00000694FFF78DF86020CDE9070415480022D1
:104A100007A909940A940B940C940D94FFF77EFA5D
:104A20001048042207A9FFF779FA0E48082207A9BF
:104A3000FFF774FA68030E940F9401031094CDE904
:104A4000124011941494CDE9154106480EA917940B
:104A50001894FFF715F80348FFF7D0F91AB070BDA6
:104A6000000001401002002070B594B02421684677
:104A7000FBF77AFC002410941C21119409A81294CD
:104A8000FBF772FC194801252021174E00F1080C94
:104A900080234FF47A7283618CE81600C0E90065C8
:104AA000FFF7CBFA032069468DE8310003940494A4
:104AB000CDE905450D4807940894FFF73FF90B48E9
:104AC00010A910941294FFF72BF86020CDE9090487
:104AD00006480C2209A90B940D94FFF71FFA03480E
:104AE000FFF78CF914B070BD000800405C02002094
:104AF00010B58AB0002468461C21079408940994D4
:104B0000FBF732FC0F484FF4FA61C8220C4BC0E9A6
:104B1000024104618461C0E90032FFF7CDF9094820
:104B200007A907940994FEF7FBFF0648002269468F
:104B30000094019402940494FFF78AF90AB010BD1E
:104B4000000C0040A80200201148002110B50F4CB5
:104B50000C224FF4E1330460C0E90131C160C0E9C7
:104B600004128161C161016241628162FFF770FBE1
:104B700007480021FFF746FB05480021FFF71CFB13
:104B8000BDE810400248FFF7F7BA000000480040B7
:104B9000480700200B48002130B40223084D0122B1
:104BA000C0E9033183610924C0E90721C0E9091282
:104BB000C0E90B21C0E9005430BCFDF783BA000006
:104BC0000000084040030020FEE700000EA010B5E2
:104BD00001F0F0FA0F48D0ED030A90ED020AF4EE6E
:104BE000C00AF1EE10FA01DD80ED030A0022026036
:104BF00007210161084801220821FDF741F8BDE8BD
:104C0000104006A001F0D6BA4D4F543A20496E69C3
:104C1000740D0A001C000020001402584D4F543A35
:104C200020456E61626C65206472697665722E0D36
:104C30000A000000704700004FF0E0212648F0EE27
:104C4000400A9FED260A8969B2EE021AC26C9142AF
:104C500001D2521A03E06FF07F435B1A1A44C16419
:104C600001EE902AF8EE611A81EE812A22EE000A06
:104C7000B5EEC00AF1EE10FA04D010EE101AB1F140
:104C80007C5F01DD9FED160A90ED0A2AD0ED042A23
:104C9000D0ED011A30EEC23A124921EEA02A23EEDD
:104CA000223A91ED001AC3EE002AF1EE411A32EEDB
:104CB000220AB4EEE10AF1EE10FA02D2B0EE610A75
:104CC00006E0B4EEC10AF1EE10FA01DDB0EE410AE1
:104CD000C0ED0A0A704700007C000020BD37863511
:104CE0006F12833A3400002048484FF0E021B0EEC4
:104CF000402AB2EE020ADFED460A8969426D91420E
:104D000001D2521A03E06FF07F435B1A1A444165E7
:104D100001EE102AB8EE411AC1EE001A21EEA01AD7
:104D2000B5EEC01AF1EE10FA04D011EE101AB1F17E
:104D30007C5F01DD9FED371AD0ED050A90ED0C3A4E
:104D4000B6EE004B60EE810A32EE035AD0ED081A3F
:104D50003149B7EEE06A91ED000AD0ED022AB7EED4
:104D6000E13AF1EE401A62EE822A26EE044BB7EEEB
:104D7000C55A04EE053BF7EEC30BF4EEE10AF1EE83
:104D800010FA02D2F0EE610A06E0F4EEC00AF1EE8B
:104D900010FA01DDF0EE400A204932EEA00AD1ED12
:104DA000001AF1EE612AB4EEE20AF1EE10FA02D234
:104DB000B0EE620A06E0B4EEE10AF1EE10FA01DDAF
:104DC000B0EE610AD0ED111AD0ED0E2A70EE613A04
:104DD00083EE813AB4EEE23AF1EE10FA04DDB0EE81
:104DE000610A02EE810A0AE0F1EE623AB4EEE33AB9
:104DF000F1EE10FA03D2B0EE610A02EEC10AC0ED84
:104E0000080A80ED110A80ED0C2A70477C00002012
:104E1000BD3786356F12833A200000202400002021
:104E200048484FF0E021B0EE402AB2EE020ADFED32
:104E3000460A8969026D914201D2521A03E06FF06D
:104E40007F435B1A1A44016501EE102AB8EE411A3D
:104E5000C1EE001A21EEA01AB5EEC01AF1EE10FA5A
:104E600004D011EE101AB1F17C5F01DD9FED371A0D
:104E7000D0ED050A90ED0B3AB6EE004B60EE810ADC
:104E800032EE035AD0ED071A3149B7EEE06A91EDE0
:104E9000000AD0ED022AB7EEE13AF1EE401A62EED6
:104EA000822A26EE044BB7EEC55A04EE053BF7EE18
:104EB000C30BF4EEE10AF1EE10FA02D2F0EE610A51
:104EC00006E0F4EEC00AF1EE10FA01DDF0EE400A61
:104ED000204932EEA00AD1ED001AF1EE612AB4EEBB
:104EE000E20AF1EE10FA02D2B0EE620A06E0B4EE87
:104EF000E10AF1EE10FA01DDB0EE610AD0ED101A10
:104F0000D0ED0E2A70EE613A83EE813AB4EEE23AC9
:104F1000F1EE10FA04DDB0EE610A02EE810A0AE059
:104F2000F1EE623AB4EEE33AF1EE10FA03D2B0EEEB
:104F3000610A02EEC10AC0ED070A80ED100A80ED99
:104F40000B2A70477C000020BD3786356F12833AEC
:104F5000200000202400002020484FF0E021DFED59
:104F60001E2AB0EE001A9FED1E3AC0ED002A9FEDFA
:104F7000190A80ED031A80ED0D3A80ED060A80EDE6
:104F8000090A80ED0F0A8A69F2EE040AF6EE001AA9
:104F9000B7EE002A8264C0ED010AC0ED041A80ED6C
:104FA0000A0A8A69C26480ED021A80ED052AC0ED02
:104FB0000E0A80ED070A80ED0B0A80ED100A8A695F
:104FC000026580ED080A80ED0C0A80ED110A8969FE
:104FD0004165704700000000CDCCCC3D7C00002036
:104FE0000000C84247484FF0E021F0EE401AB2EE10
:104FF000020ADFED450A8969826C914201D2521A98
:1050000003E06FF07F435B1A1A44816401EE102ABB
:10501000B8EE411A81EE002A62EE200AF5EEC00ACF
:10502000F1EE10FA04D010EE901AB1F17C5F01DDC0
:10503000DFED360A90ED031A90ED093AB6EE005B0B
:1050400021EE201A71EE833A90ED060A3049B7EE50
:10505000C17A91ED002AD0ED002AB7EEC04AB1EE38
:10506000420A22EEA13A27EE055BB7EEE36A05EEAF
:10507000064BB7EEC41BB4EEC01AF1EE10FA02D222
:10508000B0EE401A06E0B4EEC21AF1EE10FA01DDFD
:10509000B0EE421AF0EE412A33EE221AB4EEC01AF4
:1050A000F1EE10FA09D3B4EEC21AF1EE10FA02DDF5
:1050B000B0EE420A01E0B0EE410A90ED0F1A90ED19
:1050C0000D2A70EE413A83EEA03AB4EEC23AF1EE08
:1050D00010FA04DDB0EE410A02EE200A0AE0F1EE19
:1050E000423AB4EEE33AF1EE10FA03D2B0EE410ADE
:1050F00002EE600AC0ED062A80ED0F0AC0ED091A23
:10510000704700007C000020BD3786356F12833A5F
:1051100024000020704700002DE9F047454D04466B
:1051200089464FF0000A2868C04380070AD0414EE4
:10513000283E306820F080603060FCF7ADFD074607
:10514000B04608E00120BDE8F08700BFFCF7A4FDF1
:10515000C01B022867D8D8F800000001F6D42068E8
:1051600029684FF4FE0721F47C313E0241EA003009
:105170002860207AA389B4F804C040022D4D2D493F
:105180005B1E227CACF1010C1035091DA0F50070EE
:1051900080B2521ECCF3080C07EA034340EA0C002D
:1051A000184306EA0262104328600868626920F02A
:1051B000C000104308600A68A06922F02002024380
:1051C0000A60281D0A6822F010020A6002684FF681
:1051D000F873E4699A4342EAC40202600868B9F1CC
:1051E000000F40F010020A6011D00868B9F1010FF9
:1051F00011D040F400100860D8F80000444640F098
:105200008060C8F80000FCF747FD05460DE008681F
:1052100040F40020EFE740F48010ECE7FCF73CFDA1
:10522000401B022801D903208DE720680001F5D535
:10523000504688E7284402582DE9F047454D04467A
:1052400089464FF0000A2868C04380070AD0414EC3
:10525000283E306820F080503060FCF71DFD074686
:10526000B04608E00120BDE8F08700BFFCF714FD60
:10527000C01B022867D8D8F800008000F6D4208828
:1052800029684FF4FE0721F07C713E0241EA00508C
:105290002860207AA389B4F804C040022D4D2D491E
:1052A0005B1E227CACF1010C1835091DA0F50070C5
:1052B00080B2521ECCF3080C07EA034340EA0C000C
:1052C000184306EA0262104328600868626920F405
:1052D0004060104308600A68A06922F4007202432B
:1052E0000A60281D0A6822F480720A6002684FF67C
:1052F000F873E4699A4342EAC40202600868B9F1AB
:10530000000F40F480720A6011D00868B9F1010FF3
:1053100011D040F080700860D8F80000444640F09A
:105320008050C8F80000FCF7B7FC05460DE008689F
:1053300040F48000EFE740F40000ECE7FCF7ACFC41
:10534000401B022801D903208DE720688000F5D595
:10535000504688E7284402587047FCF709BE000011
:1053600070B5CCB04C212FA8FAF7FEFF202142A83F
:10537000FAF7FAFFBC216846FAF7F6FF0220FCF7BD
:1053800059FF214921480A6822F001020A60096890
:105390000168002441F440410160016801F440418A
:1053A0004A9101688904FCD54FF4A0220121022012
:1053B0003890CDE92F1239AA1823042582E80B0072
:1053C0000C263E90CDE93C05CDE93F642FA84194E1
:1053D000FEF7B4F842AA3F20032182E8130004211B
:1053E000459442A84694479448944994FDF796FE04
:1053F00007481D940090C10468462191FDF730FADA
:10540000FCF742FF4CB070BD2C04005818480258FD
:1054100002000400244AF0B5244913680020234FF9
:1054200043F47004224B103714600C681F4D44F095
:1054300001040C6018352E1D38600C68371DDFF82C
:105440006CC01C400C600CF1280C0CF104032860AB
:105450001C1D3060251D38602E1DCCF80000371D46
:10546000186007F1040C20600CF104030F4C286055
:1054700060343060012538600E4ECCF800001860B2
:105480000F68EB06DFF820C027F480270F60ACF12F
:10549000800C2060C6F80851CCF80030106840F449
:1054A00070001060F0BD000088ED00E0004402587C
:1054B0007FEDF6EA008000512DE9F047274B4FF0D1
:1054C000804A274D02689842264E274F274C09D024
:1054D000504507D0A84205D0B04203D0B84201D011
:1054E000A04205D1D1F804C022F070024CEA0202B9
:1054F000DFF87CC0DFF87C809842DFF87C900FD02A
:1055000050450DD0A8420BD0B04209D0B84207D0C8
:10551000A04205D0604503D0404501D0484503D1A5
:10552000CD6822F440722A434D6922F080022A435A
:10553000026098428A68C2620A68826207D0A0420A
:1055400005D0604503D0404501D0484501D10969E7
:10555000016301214161BDE8F087000000000140C6
:105560000004004000080040000C0040000401401E
:1055700000400140004401400048014010B5046A69
:10558000012301F01F018B409C4304628A40016AA1
:105590001143016210BD42EA032283680A4323F4E7
:1055A0007F410A4382607047034B82681A400A4376
:1055B00042F00701816070478FFFCFFF2DE9F04F68
:1055C000026ADFF88880DFF8889022F00102DFF8B5
:1055D00084A0DFF884B0214F0262DFF884C0066A3D
:1055E0004268836926F002060D68B8428C6803EAB7
:1055F0000C0323F0030344EA060445EA030507D03D
:10560000404505D0484503D0504501D0584505D107
:10561000CB6824F00804234323F00404B84207D0E5
:10562000404505D0484503D0504501D0584505D1E7
:1056300022F44076D1E9053233431A434260856152
:10564000496841630462BDE8F08F00000004014036
:10565000004001400044014000480140000001407A
:105660008FFFFEFFF0B5026A1E4E1F4C22F01002A3
:10567000DFF878E00262056A4368826925F0200558
:10568000D1F808C0A0420F6802EA060222F4407274
:1056900045EA0C1542EA072201D0704506D1CE68D2
:1056A00025F0800545EA061525F04005A0420AD000
:1056B000704508D00E4CA04205D00E4CA04202D03E
:1056C0000D4CA04207D1D1E9054623F4406343EADB
:1056D000840343EA8603436082614968816305620B
:1056E000F0BD0000FF8FFFFE0000014000040140FC
:1056F000004001400044014000480140F0B5026A0A
:105700001C4D1D4E22F48072A8420262026A436858
:10571000C76922F40072D1F808C00C6827F073073B
:1057200042EA0C2244EA070401D0B04206D1CF6815
:1057300022F4006242EA072222F48062A8420AD0E0
:10574000B04208D00D4DA84205D00D4DA84202D060
:105750000C4DA84207D1D1E9055623F4405343EA42
:10576000051343EA06134360C4614968C1630262DA
:10577000F0BD000000000140000401400040014075
:10578000004401400048014070B5026A144B22F405
:10579000805202629842036A4268C46923F400534B
:1057A0008E680D6824F4E64443EA063344EA05248F
:1057B0000BD00C4DA84208D00B4DA84205D00B4D84
:1057C000A84202D00A4DA84204D14D6922F4804279
:1057D00042EA85124260C46149680164036270BD97
:1057E000000001400004014000400140004401402D
:1057F00000480140F0B5026A22F480320262134F81
:10580000056A4268446D25F400350E89B8420B687C
:1058100024F0700445EA064543EA04030BD00C4C1F
:10582000A04208D00B4CA04205D00B4CA04202D0A5
:105830000A4CA04204D14C6922F4803242EA04228C
:1058400042604365496881650562F0BD0000014022
:105850000004014000400140004401400048014074
:10586000F0B5026A22F480120262134F046A4268A1
:10587000436D24F400140E89B8420D6823F4E0430C
:1058800044EA065443EA05230BD00C4DA84208D045
:105890000B4DA84205D00B4DA84202D00A4DA8429C
:1058A00004D14D6922F4003242EA85224260436508
:1058B0004968C1650462F0BD000001400004014078
:1058C00000400140004401400048014010B5036A17
:1058D000046A23F00A0324F00104046284690B4380
:1058E00024F0F00141EA02118161036210BD10B59C
:1058F000036A23F0100303628369046A23F470438C
:1059000024F0A00443EA0232826144EA01110162F8
:1059100010BD00003FB514A1D1E9002314A1CDE9C9
:105920000023D1E90021CDE90221416EB9B101681E
:1059300002AC8A688968C2F34262490F1DF80150BF
:10594000615C2D01B5FBF1F1A0F86A101DF80210A1
:10595000A25C0901B1FBF2F1A0F868103FBD012182
:10596000A0F86A10F8E70000010101030701000038
:10597000080402040801010190F82810C90706D0A4
:105980000168C36A4A6822F400321A434A6090F8F8
:105990002810890706D50168036B4A6822F4803213
:1059A0001A434A6090F82810490706D50168436BEE
:1059B0004A6822F480221A434A6090F828100907A6
:1059C00006D50168836B4A6822F400421A434A6094
:1059D00090F82810C90606D50168C36B8A6822F4BE
:1059E00080521A438A6090F82810890606D501680B
:1059F000036C8A6822F400521A438A6090F82810D7
:105A0000490611D50168436C4A6822F480121A4392
:105A10004A60416CB1F5801F06D10168836C4A6809
:105A200022F4C0021A434A6090F82810090606D5ED
:105A30000168C26C486820F4002010434860704739
:105A4000F8B500260446C0F88860FCF725F905463D
:105A500020686FF07E470068000708D500222B46BB
:105A60004FF400112046009700F0F2F960B9206869
:105A7000006840070AD500222B464FF480012046DB
:105A8000009700F0E5F908B10320F8BD2020C4F824
:105A9000800084F87C60C4F884000020F8BD000019
:105AA0002DE9F04304468068D94F87B02268D4E9D5
:105AB0000465E369616E304316681D432843D54B86
:105AC000002501433E400E4316602068E2684168AD
:105AD00021F44051114341602268A1699A4201D0EA
