:020000040800F2
:1000000098090020B10200087B2B0008BD280008D9
:10001000792B0008E1030008D33B00080000000032
:10002000000000000000000000000000C12D0008DA
:10003000E3030008000000007D2B0008C32D00082A
:10004000CB020008CB020008CB020008CB0200085C
:10005000CB020008CB020008CB020008CB0200084C
:10006000CB020008CB020008CB020008CB0200083C
:10007000CB020008CB020008CB020008CB0200082C
:10008000CB020008CB020008CB020008CB0200081C
:10009000CB020008CB020008CB020008CB0200080C
:1000A000CB020008CB020008CB020008CB020008FC
:1000B000CB020008CB020008CB020008CB020008EC
:1000C000CB020008CB020008CB020008CB020008DC
:1000D000CB020008CB020008CB020008CB020008CC
:1000E000CB020008CB02000800000000CB02000891
:1000F000CB020008CB020008CB020008CB020008AC
:10010000CB020008CB020008CB020008CB0200089B
:10011000CB020008CB020008CB020008CB0200088B
:10012000CB020008CB020008CB020008CB0200087B
:10013000CB020008CB020008CB020008CB0200086B
:1001400000000000000000000000000000000000AF
:10015000CB020008CB020008CB020008CB0200084B
:10016000CB020008CB020008CB020008CB0200083B
:10017000CB020008CB020008CB0200080000000000
:10018000CB020008CB020008CB020008CB0200081B
:10019000CB020008CB020008CB020008CB0200080B
:1001A000CB020008CB020008CB020008CB020008FB
:1001B000CB020008CB020008CB020008CB020008EB
:1001C000CB020008CB020008CB020008CB020008DB
:1001D000CB020008CB020008CB020008CB020008CB
:1001E000CB020008CB020008CB020008CB020008BB
:1001F000CB020008CB020008CB020008CB020008AB
:10020000CB020008CB020008CB020008CB0200089A
:10021000CB020008CB020008CB020008CB0200088A
:10022000CB020008CB020008CB020008000000004F
:10023000CB020008CB02000800000000CB0200083F
:10024000CB020008CB020008CB020008CB0200085A
:10025000CB020008CB020008CB020008CB0200084A
:10026000CB020008CB020008CB020008CB0200083A
:10027000CB020008CB020008CB02000800000000FF
:10028000CB020008CB020008CB02000800000000EF
:1002900000000000CB020008DFF810D000F08EF85C
:1002A00000480047153C0008AFF300809809002083
:1002B0000648804706480047FEE7FEE7FEE7FEE700
:1002C000FEE7FEE7FEE7FEE7FEE7FEE77D2E00081D
:1002D000990200082DE9F05F0546002092469B46F2
:1002E00088460646814640241BE02846414647464C
:1002F000224600F053F853465A46C01A914110D393
:1003000011461846224600F03AF82D1A67EB01080C
:100310004F4622460120002100F031F817EB00097A
:100320004E41201EA4F10104DFDC484631462A4636
:100330004346BDE8F09F40EA01039B0703D009E074
:1003400008C9121F08C0042AFAD203E011F8013BC1
:1003500000F8013B521EF9D27047D2B201E000F81A
:10036000012B491EFBD270470022F6E710B5134659
:100370000A4604461946FFF7F0FF204610BD202A22
:1003800004DB203A00FA02F1002070479140C2F1EC
:10039000200320FA03F3194390407047202A04DB1E
:1003A000203A21FA02F00021704721FA02F3D040EE
:1003B000C2F120029140084319467047064C074D90
:1003C00006E0E06840F0010394E807009847103425
:1003D000AC42F6D3FFF764FF5C3C00087C3C0008AD
:1003E000FEE7704770B5A2B0064600244FF4C36024
:1003F00001258DF80F5002238DF81D4069038DF8FB
:100400000E5009948DF81F400D9020208DF8045057
:100410008DF8325042028DF8605006914FF04051F5
:100420008DF8384002948DF861408DF81C408DF8AD
:1004300028408DF862408DF80C400B948DF81E50CA
:100440000F948DF8115012948DF840408DF8314082
:100450008DF8124014948DF856401790304616933C
:100460008DF8205005928DF854408DF830408DF86D
:100470001050009169468DF80D408DF8554011944B
:100480008DF84C5000F074F81B9568058DF871409C
:100490004FF406718DF8685019948DF880408DF8EE
:1004A00070401F908DF878401D9030468DF8814047
:1004B000219119A900F002F822B070BDF0B50268D0
:1004C00047F6020E274E4DF2010702F58052264DE7
:1004D000D1F800C01368254C23EA0E0343EA0C034D
:1004E00013600B79026891F80CE002F58052D1F8A4
:1004F00008C01B0343EACE3343EA0C03D2F804C01E
:100500002CEA070C4CEA030CC2F804C002684F7BCB
:1005100002F580520B6A43EA0747D2F800313340B4
:100520003B43C2F8003102680B7D02F5805291F81E
:100530001DC00F69D2F804611B0143EA0C332E4041
:100540003B431E43C2F8046100680B7F00F58050F6
:100550008A69D0F8081142EAC37221401143C0F8F9
:100560000811F0BD00C0FEFFEFEFC0FFFFFFC07F2E
:10057000F0B50B790C7B0F688A68DB064D7B43EA8C
:10058000C4533A438E7B1A43CF7B91F810C042EAA2
:10059000855242EA4652BCF1000F42EA07537CD032
:1005A00000224C7C002C43EAC24278D000238E7C8F
:1005B0000D7F42EA43428F7FD1E9053442EA064289
:1005C0004E7F1A43224342EA0532002F42EAC624F4
:1005D00066D00022CD7F91F8203044EA8222002BA1
:1005E00042EA45227ED0002504684B6A42EA052291
:1005F00091F82870464D1A43CE6A236842EA0712E2
:1006000032432B401343236091F83C2091F838305B
:1006100091F8305091F83140520642EA036291F865
:10062000326042EA854242EA4444BEB30022036893
:10063000384E4F6B44EA02425C683A4340F20F1571
:10064000344014435C60036891F840604C6CDA6895
:1006500044EA0624AA432243DA6091F854300A6D32
:1006600091F84C4042EA4302ECB300240368B1F82D
:1006700048504FF60D76E7011C6F47EA05452A43BF
:10068000344014431C67026891F8563091F8555075
:1006900052F8904F43EA450303E02BE032E02BE0B1
:1006A0002CE024F003041C43146002688C6DD2F823
:1006B000003D23F072032343C2F8003D91F860200F
:1006C000CC6D1AB35FF00003026891F8615091F8A5
:1006D000621044EA8310D2F8303D2C0144EAC10193
:1006E000084301E00CE00FE023F07B010143C2F876
:1006F000301DF0BD012254E7012358E7012269E7CC
:10070000012571E7012292E70124AFE70123DBE72E
:10071000838004000080F8C070B5044600F0B8FA89
:100720000546601C02D004480078044400F0B0FA8A
:10073000401BA042FAD370BD00000020F8B50400B1
:1007400002D0606D10B104E00120F8BD204600F039
:10075000FBF8232060657248016841F002010160E6
:10076000006800F002000090207A08B14FF4000009
:1007700001F070FE206800F58050016841F0010131
:10078000016000F085FAE02605464FF4FA7706E0AE
:1007900000F07EFA401BB84201D9042049E02068ED
:1007A00000F580500068C007F2D12068D0F8000240
:1007B00020F4706501F0E8FA5A495B4A014491421D
:1007C00002D245F4007516E0584A594902448A425B
:1007D00002D245F440750EE05649574A0144914211
:1007E00009D35649564A0844904202D245F48075CE
:1007F00001E045F480652068C0F8005201F0C4FAB9
:10080000504A2168B0FBF2F0401EC1F8DC002046DF
:10081000FFF7E8FD206800F58050D0F8001121F4C2
:10082000E01141F40021C0F800116169880703D08C
:100830000120E065666587E7206847F6FE7300F5EE
:100840008050D0F808219A4342EA4101C0F80811CB
:1008500000210A46E06802EB420504EB820300EB4C
:10086000C500016041608160C160521C042A98612A
:10087000F0D3A1620323206800F58050C0F82C312A
:100880002068E26800F58050C0F814212068E26812
:1008900000F58050C0F820215FF00002206902EBD3
:1008A000420604EB820500EBC600016041608160F6
:1008B000C160521C0161042A4161E862EED3E16328
:1008C00021646164E164A164206800F58050C0F88F
:1008D00030312068226900F58050C0F81C21226860
:1008E000206902F580524830C2F828011022D4E96C
:1008F00000308088C3F80003D4E900308578C778D9
:1009000090F801C006782D0446EA076045EA0C25F8
:100910002843C3F80403E1656265A2650020F8BDC1
:10092000F444025800D3CEFEC0E1E40040F1E9FDFA
:1009300040787D0100796CFC005A6202001F0AFABF
:1009400080F0FA0240420F0070B586B004461421D0
:100950006846FFF709FD36492068884266D1354868
:10096000016841F400410160016801F40041059112
:10097000016841F480310160016801F48031059122
:10098000016841F400310160006800F40030059016
:1009900028480830016841F004010160016801F055
:1009A00004010591016841F001010160016801F055
:1009B00001010591016841F002010160016801F047
:1009C00002010591016841F04001016000680024C6
:1009D0000B26694600F04000059032200090022569
:1009E0001548CDE90154CDE9034600F02DF88620E5
:1009F0000090CDE9015411486946CDE9034600F065
:100A000023F828030090CDE901540D486946CDE94B
:100A1000034600F019F84FF420500090CDE901543E
:100A200008486946CDE9034600F00EF806B070BDEF
:100A300000800240D84402580008025800000258C2
:100A400000040258001802582DE9FC4F01257E4C85
:100A500000234FF0030A4FF0B04E4FF00F0BEBE0C6
:100A600005FA03F637403A0077D04F68012F05D0DA
:100A7000022F03D0112F01D0122F1AD187684FEA0D
:100A80004308D1F80CC00AFA08F927EA09070CFA5A
:100A900008FC4CEA070CC0F808C0476891F804C08D
:100AA000B743CCF3001C0CFA03FC4CEA070CC0F86B
:100AB00004C0C6684FEA430CD1F80880E1460AFA40
:100AC0000CF7BE43019708FA09F848EA0608C0F88F
:100AD0000C804E68022E01D0122E12D1DE084FEA91
:100AE000437C00EB860600960F69366A4FEADC6CA1
:100AF0000BFA0CF807FA0CF726EA08063743009EB3
:100B000037620E790768DDF804C006F0030606FABE
:100B100009F627EA0C073E4306604E68F6001CD52E
:100B20004A4E376847F00207376036689F0706F07D
:100B30000206009623F0030606F1B046B1463F0FC9
:100B4000D6F80864DFF808810BFA07FC404526EA6E
:100B50000C0603D14FF0000C41E06CE0DFF8F4C06C
:100B6000604502D14FF0010C39E0DFF8ECC0604580
:100B700002D14FF0020C32E0DFF8E0C0604502D154
:100B80004FF0030C2BE0DFF8D8C0604502D14FF0E6
:100B9000040C24E0DFF8CCC0604502D14FF0050C16
:100BA0001DE0DFF8C4C0604502D14FF0060C16E02E
:100BB000DFF8B8C0604502D14FF0070C0FE0DFF856
:100BC000B0C0604502D14FF0080C08E0DFF8A4C0C7
:100BD000604502D14FF0090C01E04FF00A0C0CFA0D
:100BE00007FC4CEA060CC9F808C426684F6826EAD8
:100BF0000206FF0300D51643266066684F6826EAA2
:100C00000206BF0300D516436660D1F804C07646DD
:100C1000DEF800705FEACC2C27EA020700D5174304
:100C20003760D1F804C077685FEA8C2C27EA0207A6
:100C300000D5174377605B1C0A681746DA407FF4DB
:100C40000FAFBDE8FC8F000080000058F44402584C
:100C5000000002580004025800080258000C025814
:100C6000001002580014025800180258001C0258C4
:100C700000200258002402580AB18161704709041B
:100C8000FBE7000001480068000C70470010005CA2
:100C90000148806870470000000000200248816819
:100CA000027811448160704700000020032010B5D5
:100CB00000F078F801F0AEF80F4A10491468136894
:100CC000C4F3032203F00F038A5CC95C02F01F0225
:100CD00001F01F01D0400A4A20FA01F111600949D0
:100CE0000860002000F010F808B1012010BD00F0ED
:100CF0002BF8002010BD0000184402584A3C0008A0
:100D0000100000200C00002070B50D4D044628781E
:100D1000A0B14FF47A71B1FBF0F00A490968B1FB58
:100D2000F0F001F0A1FB48B9102C07D200222146B7
:100D3000501E00F017F800206C6070BD012070BDDF
:100D4000000000200C000020054808B5016841F0B3
:100D500002010160006800F00200009008BD000080
:100D6000F44402580E4BF0B41B680D46C3F3022343
:100D7000C3F10706042E00D90426191D072901D244
:100D8000002300E0DB1E012404FA06F19C40491E0A
:100D90002940641E994014402143F0BC02F01ABF60
:100DA0000CED00E0064900F0070210B54FF6FF0415
:100DB0000868044B204040EA02201843086010BD38
:100DC0000CED00E00000FA0501680123C0F8FC33D7
:100DD000002280F8F4238869044A40F000608861AA
:100DE000486D104348650020704700000300001064
:100DF0002DE9F04104008AB005D094F8BD03002528
:100E0000266820B108E001200AB0BDE8F081204644
:100E100084F8BC5300F066F8032084F8BD03F06B3F
:100E2000C00500D42561206802F094FE04F1100191
:100E3000684628228846FFF77EFA94E80F0002F001
:100E400069FD0227D8BB2068002102F0ABFE00201C
:100E5000012610E0C0EBC001421C04EB810181F8C7
:100E60003D6081F83F504D648D640D6581F83C0014
:100E7000A1F84200D0B261688142EBD8002011E0B5
:100E8000C0EBC001421C04EB810181F8FD5181F8E7
:100E9000FF51C1F80452C1F80852C1F8105281F84C
:100EA000FC01D0B261688142EAD8282241466846F6
:100EB000FFF741FA94E80F0002F090FD10B184F8BA
:100EC000BD73A0E7606A84F8385084F8BD630128D8
:100ED00002D12046FFF778FF206802F073FD002062
:100EE00092E7000030B587B0044614216846FFF74A
:100EF0003BFA18492068884229D11748016841F017
:100F000001010160006800240221144D00F001007D
:100F100005904FF4E8500A228DE81300CDE9034212
:100F200069462846FFF790FD4FF400706946CDE909
:100F3000000428460294FFF787FD07480838016837
:100F400041F000610160006800F00060059007B0AA
:100F500030BD000000000840E04402580000025884
:100F6000134970B50A68D243520705D5096801F0E4
:100F70000701814213D118E00A6822F007020243F8
:100F80000A60FFF785FE0A4D4FF47A760446083D65
:100F900007E000BFFFF77CFE001BB04201D9012033
:100FA00070BD2868C0438004F4D4002070BD0000E8
:100FB0000C4802580248016841F080710160704796
:100FC0000C48025810B500F0DFFE05490968054AD3
:100FD000C1F30211515C01F01F01C84010BD0000B7
:100FE000204402584A3C0008494930B5484C0B1D82
:100FF0000A68143409681D68246802F00303C5F305
:101000000012C1F30531C4F3CC04002914FB02F231
:1010100000EE102AF8EE400A75D03F4A9FED3D1AC7
:10102000B7EE000A6BB1DFED3D1A012B01D0022BA8
:1010300064D002EE101A1168F8EE422A81EEA22A5C
:1010400021E0334C283C23689B0612D5344B24689E
:1010500001EE901A1168C4F3C104F8EE612AE3406E
:1010600001EE903AC1F30801F8EE611A81EEA22A6E
:101070000BE001EE901ADFED2B2A00BFF8EE611AAB
:10108000116882EEA12AC1F3080101EE901A1168DD
:10109000F8EE611A40EE811A71EE800A62EE200AC3
:1010A000C1F3462101EE101AB8EE411A31EE001AD2
:1010B000C0EE811ABCEEE11A80ED001A1168C1F38E
:1010C000064101EE101AB8EE411A31EE001AC0EED8
:1010D000811ABCEEE11A80ED011A1168C1F30661B4
:1010E00001EE101AB8EE411A31EE000A80EE801AB5
:1010F000BCEEC10A80ED020A30BD04E001EE901A98
:10110000DFED092ABAE70021016041608160F3E761
:101110002844025800000039384402580024744A18
:101120000090D0030024744C0024F44A494930B59F
:10113000484C0B1D0A681C3409681D68246802F0BD
:101140000303C5F30022C1F30551C4F3CC04002905
:1011500014FB02F200EE102AF8EE400A75D03F4A66
:101160009FED3D1AB7EE000A6BB1DFED3D1A012B82
:1011700001D0022B64D002EE101A1168F8EE422A58
:1011800081EEA22A21E0334C283C23689B0612D52D
:10119000344B246801EE901A1168C4F3C104F8EED0
:1011A000612AE34001EE903AC1F30801F8EE611ABA
:1011B00081EEA22A0BE001EE901ADFED2B2A00BF90
:1011C000F8EE611A116882EEA12AC1F3080101EE5E
:1011D000901A1168F8EE611A40EE811A71EE800AD9
:1011E00062EE200AC1F3462101EE101AB8EE411A50
:1011F00031EE001AC0EE811ABCEEE11A80ED001A41
:101200001168C1F3064101EE101AB8EE411A31EE31
:10121000001AC0EE811ABCEEE11A80ED011A1168C5
:10122000C1F3066101EE101AB8EE411A31EE000A60
:1012300080EE801ABCEEC10A80ED020A30BD04E0E7
:1012400001EE901ADFED092ABAE700210160416042
:101250008160F3E7284402580000003940440258F6
:101260000024744A0090D0030024744C0024F44AF3
:101270002DE9FC5F044650F8241B002500902E4603
:101280000801FE4FDFF8F8831DD5606E50B1B0F550
:10129000801F0CD0B0F5001F0ED0B0F5401F1DD040
:1012A00001250FE0386840F40030386016E0022174
:1012B000201D01F065FC03E00098022101F0F0FC24
:1012C00005000BD02E462088C00523D5606D05286B
:1012D0001ED2DFE800F00C11161B1B00626ED8F85E
:1012E000001021F440111143C8F80010EBE73868F2
:1012F00040F40030386009E00021201D01F040FC7E
:1013000003E00098002101F0CBFC05466DB100E040
:1013100001252E462088800528D5A06D80281ED066
:101320000CDC90B140280ED114E0626DD8F80010AA
:1013300021F007011143C8F80010EBE7C02813D0D3
:10134000B0F5807F10D001250FE0386840F4003000
:10135000386009E00021201D01F012FC03E0009834
:10136000002101F09DFC054695B12E462088DFF84E
:101370001093400509F108092CD5D4F8A400B0F564
:10138000800F20D00DDCA0B1B0F5001F0FD115E00B
:10139000A26DD8F8001021F4E0711143C8F80010D4
:1013A000E4E7B0F5C00F13D0B0F5000F10D0012561
:1013B0000FE0386840F40030386009E00021201D5B
:1013C00001F0DEFB03E00098002101F069FC054616
:1013D00075B12E46208800052DD5D4F8A800B0F1AF
:1013E000007F21D00EDCA8B1B0F1807F10D116E0D3
:1013F000D4F8A420D9F8001021F460011143C9F8F1
:101400000010E7E7B0F1407F13D0B0F1806F10D04B
:1014100001250FE0386840F40030386009E0002111
:10142000201D01F0ADFB03E00098002101F038FC25
:1014300005466DB12E46206880011FD5A06CD8B13D
:1014400010280FD0202812D0302815D0012514E004
:10145000D4F8A820D9F8001021F0E0611143C9F8B0
:101460000010E8E7386840F40030386004E00221FA
:10147000201D01F085FB05466DB12E462088C00475
:101480002BD5E06DB0F5005F20D00DDCA0B1B0F53C
:10149000805F0FD115E07A48A26C001F016821F02F
:1014A000300111430160E9E7B0F5405F13D0B0F5BA
:1014B000804F10D001250FE0386840F400303860CC
:1014C00009E00021201D01F05BFB03E000980021F2
:1014D00001F0E6FB054685B12E462088800429D51B
:1014E000206EB0F5403F23D010DC08B3B0F5803F4C
:1014F00014D0B0F5003F0FD115E0E26DD8F8001020
:1015000021F4E0411143C8F80010E6E7B0F5802F60
:101510000ED0B0F5A02F0BD001250AE00121201D2F
:1015200001F02EFB03E00098012101F0B9FB054614
:101530008DB12E46208840042AD5D4F8AC00B0F1F5
:10154000405F23D010DC08B3B0F1805F14D0B0F15D
:10155000005F0FD115E0226ED8F8001021F4E021D1
:101560001143C8F80010E5E7B0F1804F0ED0B0F19C
:10157000A04F0BD001250AE00121201D01F000FB46
:1015800003E00098012101F08BFB05466DB12E466A
:10159000208800041FD5E06ED8B1B0F1805F0ED076
:1015A000B0F1005F10D0012514E0D4F8AC20D9F8D8
:1015B000001021F0E0411143C9F80010E8E7386855
:1015C00040F40030386004E00121201D01F0D8FA19
:1015D00005466DB12E462068C0011ED5606CD0B1A5
:1015E00001280ED0022811D0032814D0012513E0C1
:1015F000E26ED8F8001021F040511143C8F80010F5
:10160000E9E7386840F40030386004E00221201D2A
:1016100001F0B6FA054685B12E462068DFF85CB0C9
:101620004002ABF11C0B57D51648016841F480719C
:101630000160FFF72DFB82460EE01148626C001F2F
:10164000016821F0030111430160E6E7FFF720FB89
:10165000A0EB0A0064283DD80A480068C005F5D50B
:101660007DBBDFF81CA0B4F8B0100AF1200ADAF84C
:10167000000001F4407100F4407005E02C44025871
:101680005044025800480258884211D0DAF800103D
:10169000DAF8002021F4407142F48032CAF80020C8
:1016A000DAF8002022F48032CAF80020CAF80010CC
:1016B000D4F8B000B0F5807F21D1FFF7E9FA0190AE
:1016C00019E008E0FFF7E4FA0199411A41F2883085
:1016D000814210D903252E462078DFF830A4C007B8
:1016E0003DD0A06F182838D026DC80B3082829D038
:1016F000102825D12CE0DAF800008007E2D5D4F8D4
:10170000B010C1F30120032858460DD0016821F420
:101710007C510160B4F8B020DAF80010C2F30B027B
:101720001143CAF80010D7E7F94A036802EA111218
:1017300023F47C511143ECE720280ED028280CD04C
:1017400001250BE00121201D01F01AFA04E004E05C
:101750000098012101F0A4FA05465DB12E462078DB
:1017600080071ED5606F062819D2DFE800F0160C3E
:1017700011161616A26FDAF8001021F03801114385
:10178000CAF80010EBE70121201D01F0F9F903E090
:101790000098012101F084FA054675B100E00125A9
:1017A0002E46207840071FD5D4F89000062819D27D
:1017B000DFE800F0160C11161616626FDAF800104A
:1017C00021F007011143CAF80010EAE70121201DAA
:1017D00001F0D6F903E00098012101F061FA054615
:1017E0009DB100E001252E46207880062BD5D4F847
:1017F0008C00B0F1405F24D011DC10B3B0F1805FF9
:1018000015D0B0F1005F10D116E0D4F89020D9F8CF
:10181000001021F007011143C9F80010E4E7B0F10E
:10182000804F0ED0B0F1A04F0BD001250AE000216F
:10183000201D01F0A5F903E00098022101F030FA23
:1018400005468DB12E46207840062BD5D4F8980059
:10185000B0F5406F24D011DC10B3B0F5806F15D017
:10186000B0F5006F10D116E0D4F88C20DAF8001033
:1018700021F0E0411143CAF80010E4E7B0F5805FC1
:101880000ED0B0F5A05F0BD001250AE00021201D8D
:1018900001F076F903E00098022101F001FA054613
:1018A0008DB12E46207800062BD5D4F89C00B0F5DB
:1018B000C04F24D011DC10B3B0F5005F15D0B0F5E7
:1018C000804F10D116E0D4F89820D9F8001021F4F8
:1018D000E0511143C9F80010E4E7B0F5004F0ED015
:1018E000B0F5204F0BD001250AE00021201D01F0AA
:1018F00047F903E00098022101F0D2F905464DB105
:101900002E46207800071ED5D4F88000B0F5805F01
:101910000AD00FE0D4F89C20D9F8001021F46041DF
:101920001143C9F80010ECE70098022101F0B8F962
:1019300000B10126D4F88020DAF8001021F44051DB
:101940001143CAF800102078C00613D5D4F89400CB
:10195000B0F5807F05D10098022101F0A1F900B116
:101960000126D4F89420D9F8001021F440711143D5
:10197000C9F800102068000316D5D4F8A00038B1CB
:10198000B0F5803F09D0B0F5003F0BD001250AE04B
:101990000021201D01F0F4F803E00098022101F07D
:1019A0007FF9054685B12E462068400322D5D4F83C
:1019B0008400B0F5801F11D0B0F5001F13D0B0F532
:1019C000401F15D0012514E0D4F8A020D9F800104C
:1019D00021F440311143C9F80010E5E7386840F4BC
:1019E0000030386004E00098012101F059F9054603
:1019F00055B12E462068C0031CD5E06C70B1B0F51F
:101A0000803F10D0012514E0D4F88420DAF80010CB
:101A100021F440111143CAF80010EBE7386840F494
:101A20000030386004E00221201D01F0A9F80546CD
:101A3000CDB12E462068800005D50098022101F026
:101A40002FF900B10126206880031BD5E06FB8B1E3
:101A5000B0F5807F10D0B0F5007F11D0B0F5407F99
:101A60000ED001250DE02948E26C0838016821F408
:101A7000803111430160DDE7386840F400303860A0
:101A8000F5B32E462068C00207D5226FD8F80010A3
:101A900021F000411143C8F800102068C00008D5AB
:101AA000D4F8B420DBF8001021F480411143CBF8C6
:101AB00000102068800207D5A26ED8F8001021F02F
:101AC00080711143C8F80010206840000CD5DBF885
:101AD000001021F40041CBF80010DBF80010D4F81E
:101AE000B8201143CBF800102068002807DA074817
:101AF000226D0838016821F040511143016000E077
:101B000008E086B10120BDE8FC9F00005444025863
:101B1000CFFFFF00E26FDAF8001021F440711143AB
:101B2000CAF80010AEE70020EDE700002DE9F05FF5
:101B300004000F467ED0DFF83882D8F8000000F0AD
:101B40000F00B8420CD2D8F8001021F00F01394331
:101B5000C8F80010D8F8000000F00F00B84269D1B2
:101B60002078844D40070AD52069296801F070016A
:101B7000884204D9296821F0700101432960207846
:101B80007C4E361D00070AD56069316801F070018E
:101B9000884204D9316821F0700101433160207816
:101BA000C0060AD5A069316801F4E061884204D911
:101BB000316821F4E061014331602078DFF8B4B18D
:101BC00080060BF1080B0CD5E1695846DBF80020C4
:101BD00002F07002914204D9026822F070020A43B6
:101BE0000260207880070AD5E068296801F00F01BB
:101BF000884204D9296821F00F0101432960207827
:101C0000C0073ED05B49A2682868183920F470608C
:101C1000104328606068022818D0032819D009688A
:101C2000012819D0490700294ADADFF848A1AAF1AA
:101C3000080A00E044E0DAF8002022F0070202433C
:101C4000CAF80020FFF724F8814612E009688903EA
:101C5000E9E709688901E6E7C905E4E7FFF718F84D
:101C6000A0EB090141F28830814202D90320BDE88E
:101C7000F09F6168DAF8000000F03800B0EBC10FA7
:101C8000ECD1207880070AD5E068296801F00F01BF
:101C9000884204D2296821F00F0101432960D8F855
:101CA0000010404601F00F01B9420BD9016821F044
:101CB0000F0139430160006800F00F00B84201D005
:101CC0000120D4E7207840070AD52069296801F06F
:101CD0007001884204D2296821F070010143296013
:101CE000207800070AD56069316801F070018842E8
:101CF00004D2316821F07001014331602078C006C0
:101D00000AD5A069316801F4E061884204D23168E3
:101D100021F4E06101433160207880060CD5E1694F
:101D20005846DBF8002002F07002914204D20268AB
:101D300022F070020A43026000F06CF80E492A6833
:101D40002B68C2F3032203F00F038A5CC95C02F024
:101D50001F0201F01F01D040084A20FA01F1116072
:101D60000749086007480068BDE8F05FFEF7CCBF90
:101D700000200052184402584A3C0008100000207D
:101D80000C0000200400002030B500F043F80B4A9E
:101D90000B490C4B15681468C5F3032204F00F04BB
:101DA0008A5C095D02F01F0201F01F01D040064A63
:101DB00020FA01F119601060084630BD184402583D
:101DC0004A3C0008100000200C00002000B5FFF77E
:101DD000DBFF05490968054AC1F30211515C01F0B6
:101DE0001F01C84000BD00001C4402584A3C0008C6
:101DF00000B5FFF7C9FF05490968054AC1F302218B
:101E0000515C01F01F01C84000BD00001C44025895
:101E10004A3C0008454970B545480968434B103BAA
:101E200011F0380208D00111082A03D0102A0BD073
:101E3000182A0BD0084670BD19688906FBD51968A9
:101E4000C1F3C101C84070BD3A4870BD3749374D34
:101E500018310C1D24350A68096826682D6802F0BF
:101E6000030406F00102C1F30511C5F3CC0515FB0F
:101E700002F200EE102AB8EE400AE9B32F4ADFED75
:101E80002E0AB7EE001A6CB1DFED2D1A012C01D02D
:101E9000022C43D002EE101A1068F8EE422A81EEAE
:101EA000A22A1EE01C68A40611D51B6801EE901A38
:101EB0001168C3F3C103F8EE612AD84001EE900A1D
:101EC000C1F30800F8EE611A81EEA22A0BE001EEE0
:101ED000901ADFED1C2A00BFF8EE611A106882EE3E
:101EE000A12AC0F3080001EE900AF8EE611A40EE54
:101EF000201A31EE810A00E015E022EE000A106897
:101F0000C0F34620401C00EE900AF8EE600A80EE16
:101F1000201ABCEEC10A10EE100A70BD01EE901A34
:101F2000DFED092AD8E7002070BD000010440258F8
:101F30000090D00300127A000000003930440258AB
:101F40000024744A0024744C0024F44A2DE9F05F04
:101F500004007CD0FF4F2078FE4D1837DFF8F49353
:101F6000103DC00748D0D9F80000396800F03800AB
:101F7000102815D0182803D101F0030002280FD033
:101F80006068B0F5803F12D010B1B0F5A02F18D026
:101F9000286820F480302860286820F4802009E038
:101FA0002868800328D560680028D2D024E02868FB
:101FB00040F480302860606888B1FEF769FE06460C
:101FC00009E0286840F480202860F0E7FEF760FE12
:101FD000801B64287ED828688003F7D50CE0FEF7C4
:101FE00057FE064605E000BFFEF752FE801B642840
:101FF000F0D828688003F7D4207841F20308D54E42
:102000000C3E800753D5D9F80000396810F038002D
:102010000ED0182801D188070AD0E068A8B3296833
:1020200021F0190101432960FEF732FE82461BE0D0
:102030002868400702D5E06800288AD0FEF722FE13
:1020400040451BD82069402812D0316800E0CCE020
:1020500021F47C3141EA0030306028E0FEF718FEC0
:10206000A0EB0A000228B5D828684007F6D5E5E7B6
:10207000306820F47C3040F40030EDE7207C31689B
:1020800021F0FE4141EA0060E6E7FFE7286820F022
:1020900001002860FEF7FCFD824605E0FEF7F8FD32
:1020A000A0EB0A00022895D828684007F6D42078CB
:1020B000C0065FD5D9F80000DFF898B2396800F0A3
:1020C0003800ABF1040B082812D0182805D101F014
:1020D000030000E0EAE001280AD0E069002828684F
:1020E00038D040F080002860FEF7D2FD824623E021
:1020F0002868C00523D5E069802876D11FE0206AD2
:10210000202821D0316821F0F84141EA8060306018
:1021100030E000BF94F82010DBF8002022F07C5261
:1021200042EA0161CBF8001024E000BFFEF7B0FDE9
:10213000A0EB0A00022896D82868C005F6D5FEF75D
:10214000A1FD4045E6D8DAE7306820F0F84040F0DD
:102150008040DCE720F080002860FEF799FD06460D
:1021600005E000BFFEF794FD801B02289BD828687D
:10217000C005F7D42078000729D576486169643016
:1021800000298046016811D041F001010160FEF78D
:102190007FFD064605E000BFFEF77AFD801B0228A2
:1021A000C9D8D8F800008007F6D510E021F0010169
:1021B0000160FEF76DFD064605E000BFFEF768FD15
:1021C000801B022872D8D8F800008007F6D4207847
:1021D000800623D5A0690028286810D040F48050DC
:1021E0002860FEF755FD064605E02CE1FEF750FDA0
:1021F000801B02285AD828688004F7D50EE020F406
:1022000080502860FEF744FD064604E0FEF740FDDE
:10221000801B02284AD828688004F7D42078400719
:102220004FD5DFF83481D8F8001041F48071C8F838
:102230000010FEF72DFD064605E000BFFEF728FD65
:10224000801B642832D8D8F80000C005F6D5414E6E
:10225000A068603601280AD008B1052813D030687C
:1022600020F001003060306820F0040002E03068A7
:1022700040F001003060A06841F2883A90B1FEF76A
:1022800007FD80460AE0306840F004003060EEE769
:10229000FEF7FEFCA0EB0801514507D83068800727
:1022A000F6D50EE0FEF7F4FC804607E084E000BFC0
:1022B000FEF7EEFCA0EB080151457DD830688007A1
:1022C000F6D4606AF0B3DFF88C80D9F8001008F11A
:1022D0002008C1F3C20103296FD00228286820F02A
:1022E0008070286003D0FEF7D3FC044680E0FEF740
:1022F000CFFC064605E000BFFEF7CAFC801B0228A3
:1023000073D828688001F7D4E26A40F2F331386864
:1023100054F8283F884340EA021018433860217B74
:102320004FF4FE0C22894FF0FE47208A4902267D99
:10233000521E401EA1F5007189B20CEA0040C2F3A2
:10234000080200E081E01143761E0143014807EADC
:10235000066203E010440258004802581C30114342
:102360003B4AC8F80010016821F0010101601168C2
:102370004FF6F876236AB14341EAC3011160016860
:10238000A26921F00C01114301600168E26921F0AA
:10239000020111430160016841F48031016001686C
:1023A00041F400310160016841F48021016001685D
:1023B00041F00101016001E017E01DE0286840F0F4
:1023C00080702860FEF764FC044604E0FEF760FCC1
:1023D000001B022809D828688001F7D535E000BF26
:1023E000FEF756FC001B022802D90320BDE8F09F2F
:1023F00028688001F4D428E039680128D8F8000062
:1024000021D0A26A01F0030393421CD1E26AC1F316
:1024100005118A4217D1216BC0F30802491E8A4276
:1024200011D1616BC0F34622491E91420BD1A16BC1
:10243000C0F30642491E914205D1E16BC0F306602C
:10244000491E814201D00120D0E70020CEE70000E4
:102450003444025803490A6822F4600202430A60C5
:102460007047000004040058401EB0F1807F10B592
:1024700001D3012010BD4FF0E02460610F216017EF
:1024800001F0A8FB0020A0610721216110BD000020
:102490002DE9F04390F83C20012A42D0012280F837
:1024A0003C2051F80C4BDFF880804FF0000991E898
:1024B000680051E9022723F44073B1F80CC03B4394
:1024C000CF6923F480631343026823F4006323433A
:1024D00023F4805343EA050323F4005343EA06033D
:1024E00023F4804343EA07030C3923F47023424565
:1024F00043EA0C4302D00D4CA2420CD18D8C23F444
:102500007006D1E9073446EA055121F0807119437C
:1025100021F000732343536480F83C900020BDE811
:10252000F0830220FBE700000000014000040140AE
:10253000F0B590F83C20012A38D01D4E012480F8D7
:102540003C40022280F83D2002681A4D5368B24296
:10255000D2F808C001D0AA4203D14F6823F4700317
:102560003B430F6823F070031F4357600268B24279
:1025700010D0B2F1804F0DD00F4B9A420AD00F4BC2
:102580009A4207D00E4B9A4204D0AA4202D00D4B79
:102590009A4204D189682CF080031943916000218C
:1025A00080F83D4080F83C100846F0BD0220F0BDA8
:1025B0000000014000040140000400400008004009
:1025C000000C00400018004010B586B004461421ED
:1025D0006846FDF7C9FE0E492068884216D10D48AD
:1025E000016841F01001016000680123022200F03F
:1025F0001000059000204FF4285100916946CDE964
:102600000120CDE903030448FEF71EFA06B010BD11
:1026100000000140E04402580010025810B5044682
:1026200090F83C0001280BD0012084F83C000C2AD3
:1026300019D007DC5AB1042A0DD0082A1ED10EE0A9
:10264000022010BD102A12D0142A17D113E02068DE
:1026500000F0E8FC12E0206800F038FD0EE0206891
:1026600000F080FD0AE0206800F0C2FD06E020686E
:1026700000F0F4FD02E0206800F026FE002084F85F
:102680003C0010BD10B5040003D094F83D0010B11B
:1026900007E0012010BD002084F83C00204600F037
:1026A00023F8022084F83D002068211D00F058FC2A
:1026B000012084F8480084F83E0084F83F0084F844
:1026C000400084F8410084F8420084F8430084F814
:1026D000440084F8450084F8460084F8470084F8F4
:1026E0003D00002010BD000008B500680649884282
:1026F00008D10648016841F001010160006800F05E
:102700000100009008BD000000000140F0440258A4
:1027100030B590F87C10012918D0012280F87C2077
:102720002421C0F880100022202450F8601B0B6880
:102730000D6823F0005325F001050D60426050F84C
:10274000601C0B6004620277104630BD022030BD71
:1027500070B5044690F87C0001281DD0012284F851
:102760007C202420C4F8800020680568026822F0DC
:10277000010202602068826822F060620A4382607F
:10278000204600F0D7FD2268202100201560C4F803
:10279000801084F87C0070BD022070BD70B50446C6
:1027A00090F87C0001281DD0012284F87C20242090
:1027B000C4F8800020680568026822F00102026007
:1027C0002068826822F060420A438260204600F05E
:1027D000B1FD2268202100201560C4F8801084F823
:1027E0007C0070BD022070BD10B5040003D0D4F889
:1027F000800010B107E0012010BD002084F87C00AB
:10280000204600F027F82420C4F8800020680168E2
:1028100021F001010160204600F052FE0128EBD0BA
:10282000A06A10B1204600F0B7FD2068416821F48D
:10283000904141602068816821F02A018160206810
:10284000016841F0010101602046BDE8104000F040
:1028500007BE000010B586B0044614216846FDF797
:1028600083FD13492068884220D11248016841F451
:1028700080210160006800F4802005900D48083830
:10288000016841F00801016000680723022200F09E
:102890000800059000204FF4407100916946CDE991
:1028A0000120CDE903030448FEF7CEF806B010BDC1
:1028B00000480040E8440258000C0258FEE70000BF
:1028C00017487CB515490024016080228DF800402E
:1028D000E1238DF8012001258DF8023040F2F451FA
:1028E0008DF804408DF803408DF80540C0F804D001
:1028F0000C4A0572C2600C4AC0E90421FDF71EFFB4
:10290000074834213438FDF72FFD054821224FF4C4
:10291000403134380260C0E904417CBD008002408F
:102920004800002060000430000004302DE9F0472A
:1029300086B014216846FDF717FD4048016841F054
:1029400004010160016801F004010591016841F092
:1029500080010160016801F080010591016841F08A
:1029600001010160016801F001010591016841F078
:1029700010010160016801F010010591016841F04A
:1029800002010160016801F002010591016841F056
:1029900008010160016801F008010591016841F03A
:1029A0004001016000684FF48046DFF89480002207
:1029B00000F04000314605904046FEF75DF9DFF833
:1029C00084904FF48147002239464846FEF754F977
:1029D000DFF874A0002240215046FEF74DF91B4954
:1029E000002470108DE8130019486946FEF72CF892
:1029F00001250096CDE90154694640460394FEF74F
:102A000023F800976946CDE9015448460394FEF740
:102A10001BF840200090CDE90154694650460394CC
:102A2000FEF712F880206946CDE900045046029472
:102A3000FEF70AF806B0BDE8F0870000E04402584F
:102A4000001002580004025800180258000011112A
:102A50000008025810B596B0002468461C21129454
:102A600013941494FDF780FC2C2107A8FDF77CFC3F
:102A700020481F49C0E900148460C46004614461B7
:102A80008461FFF7FFFD1B4812A91294139414945C
:102A9000FFF74EFD00940022019469461548029408
:102AA0000394049405940694FFF7B8FD114804229A
:102AB0006946FFF7B3FD0F4808226946FFF7AEFDF0
:102AC0004FF4005007940894099401030A94CDE947
:102AD0000B40CDE90E41074807A90D9410941194BD
:102AE000FFF7D6FC0348FFF76FFD16B010BD0000DE
:102AF00000000140B80000201148002110B50F4C23
:102B00000C224FF4E1330460C0E90131C160C0E937
:102B100004128161C161016241628162FFF764FE5A
:102B200007480021FFF73AFE05480021FFF710FE95
:102B3000BDE810400248FFF7EBBD00000048004030
:102B4000040100200B48002130B40223084D01226B
:102B5000C0E9033183610924C0E90721C0E90912F2
:102B6000C0E90B21C0E9005430BCFEF741B90000B8
:102B70000000084090010020FEE770477047000009
:102B80002DE9F047454D044689464FF0000A286874
:102B9000C04380070AD0414E283E306820F0806054
:102BA0003060FEF775F80746B04608E00120BDE842
:102BB000F08700BFFEF76CF8C01B022867D8D8F872
:102BC00000000001F6D4206829684FF4FE0721F4C4
:102BD0007C313E0241EA00302860207AA389B4F8B3
:102BE00004C040022D4D2D495B1E227CACF1010C2E
:102BF0001035091DA0F5007080B2521ECCF3080CF0
:102C000007EA034340EA0C00184306EA0262104355
:102C100028600868626920F0C000104308600A68F4
:102C2000A06922F0200202430A60281D0A6822F0EF
:102C300010020A6002684FF6F873E4699A4342EAA8
:102C4000C40202600868B9F1000F40F010020A6087
:102C500011D00868B9F1010F11D040F400100860DC
:102C6000D8F80000444640F08060C8F80000FEF745
:102C70000FF805460DE0086840F40020EFE740F447
:102C80008010ECE7FEF704F8401B022801D903206E
:102C90008DE720680001F5D5504688E728440258A2
:102CA0002DE9F047454D044689464FF0000A286853
:102CB000C04380070AD0414E283E306820F0805043
:102CC0003060FDF7E5FF0746B04608E00120BDE8AB
:102CD000F08700BFFDF7DCFFC01B022867D8D8F8DB
:102CE00000008000F6D4208829684FF4FE0721F008
:102CF0007C713E0241EA00502860207AA389B4F832
:102D000004C040022D4D2D495B1E227CACF1010C0C
:102D10001835091DA0F5007080B2521ECCF3080CC6
:102D200007EA034340EA0C00184306EA0262104334
:102D300028600868626920F44060104308600A68EF
:102D4000A06922F4007202430A60281D0A6822F476
:102D500080720A6002684FF6F873E4699A4342EAA7
:102D6000C40202600868B9F1000F40F480720A6082
:102D700011D00868B9F1010F11D040F080700860DF
:102D8000D8F80000444640F08050C8F80000FDF735
:102D90007FFF05460DE0086840F48000EFE740F44F
:102DA0000000ECE7FDF774FF401B022801D9032067
:102DB0008DE720688000F5D5504688E72844025802
:102DC0007047FDF76BBF000070B5CCB04C212FA849
:102DD000FDF7CAFA202142A8FDF7C6FABC216846D1
:102DE000FDF7C2FA0220FEF7BBF8214921480A6824
:102DF00022F001020A6009680168002441F44041A0
:102E00000160016801F440414A9101688904FCD5E0
:102E10004FF4A022012102203890CDE92F1239AAC7
:102E20001823042582E80B000C263E90CDE93C05D2
:102E3000CDE93F642FA84194FFF788F842AA3F20CC
:102E4000032182E813000121459442A84694479447
:102E500048944994FEF76AFE07481D940090C10407
:102E600068462191FEF704FAFEF7A4F84CB070BD55
:102E70002C04005818480258020004002E48F0B5EF
:102E80002E4A016841F470010160106800F00F00E3
:102E9000072804D2106820F00F00C01D10602849D8
:102EA0000020274C10340B68264D43F001030B60C3
:102EB00020600B682B400B60136803F00F03072B97
:102EC00004D9136823F00F03DB1D13601C4C1E4A4A
:102ED00018341E4B261D371D2060194C1C4D2834FC
:102EE0003060261D3860371D23603B1D35601C1D7A
:102EF0003A60251D2E1D1860331D22602860326047
:102F000018600A680E4B134C22F4802260330A606A
:102F1000186020686FF30F00B0F1005F03D20E4914
:102F20000120C1F8080143F2D2000C49024B4A03C8
:102F3000803B08601A60F0BD88ED00E00020005280
:102F4000004402587FEDF6EA80020101000202020D
:102F50000000FF010010005C0080005100400052A2
:102F60002DE9F047274B4FF0804A274D02689842E1
:102F7000264E274F274C09D0504507D0A84205D0F0
:102F8000B04203D0B84201D0A04205D1D1F804C06C
:102F900022F070024CEA0202DFF87CC0DFF87C808D
:102FA0009842DFF87C900FD050450DD0A8420BD04E
:102FB000B04209D0B84207D0A04205D0604503D046
:102FC000404501D0484503D1CD6822F440722A43E0
:102FD0004D6922F080022A43026098428A68C262E8
:102FE0000A68826207D0A04205D0604503D0404500
:102FF00001D0484501D10969016301214161BDE862
:10300000F08700000000014000040040000800407C
:10301000000C004000040140004001400044014019
:10302000004801402DE9F04F026ADFF88880DFF8A0
:10303000889022F00102DFF884A0DFF884B0214FED
:103040000262DFF884C0066A4268836926F00206DD
:103050000D68B8428C6803EA0C0323F0030344EACA
:10306000060445EA030507D0404505D0484503D08E
:10307000504501D0584505D1CB6824F008042343BE
:1030800023F00404B84207D0404505D0484503D09A
:10309000504501D0584505D122F44076D1E905329A
:1030A00033431A4342608561496841630462BDE865
:1030B000F08F000000040140004001400044014046
:1030C00000480140000001408FFFFEFFF0B5026A9A
:1030D0001E4E1F4C22F01002DFF878E00262056AF3
:1030E0004368826925F02005D1F808C0A0420F6826
:1030F00002EA060222F4407245EA0C1542EA07226F
:1031000001D0704506D1CE6825F0800545EA061548
:1031100025F04005A0420AD0704508D00E4CA042D0
:1031200005D00E4CA04202D00D4CA04207D1D1E9EF
:10313000054623F4406343EA840343EA860343607D
:103140008261496881630562F0BD0000FF8FFFFE68
:1031500000000140000401400040014000440140E3
:1031600000480140F0B5026A1C4D1D4E22F48072E9
:10317000A8420262026A4368C76922F40072D1F869
:1031800008C00C6827F0730742EA0C2244EA0704DF
:1031900001D0B04206D1CF6822F4006242EA072291
:1031A00022F48062A8420AD0B04208D00D4DA84255
:1031B00005D00D4DA84202D00C4DA84207D1D1E94F
:1031C000055623F4405343EA051343EA06134360CC
:1031D000C4614968C1630262F0BD000000000140A3
:1031E000000401400040014000440140004801400B
:1031F00070B5026A144B22F4805202629842036A4C
:103200004268C46923F400538E680D6824F4E644D0
:1032100043EA063344EA05240BD00C4DA84208D0FB
:103220000B4DA84205D00B4DA84202D00A4DA84232
:1032300004D14D6922F4804242EA85124260C461A1
:1032400049680164036270BD000001400004014050
:10325000004001400044014000480140F0B5026ACE
:1032600022F480320262134F056A4268446D25F4ED
:1032700000350E89B8420B6824F0700445EA064513
:1032800043EA04030BD00C4CA04208D00B4CA042E4
:1032900005D00B4CA04202D00A4CA04204D14C698C
:1032A00022F4803242EA0422426043654968816523
:1032B0000562F0BD000001400004014000400140F3
:1032C0000044014000480140F0B5026A22F4801237
:1032D0000262134F046A4268436D24F400140E899D
:1032E000B8420D6823F4E04344EA065443EA052358
:1032F0000BD00C4DA84208D00B4DA84205D00B4D69
:10330000A84202D00A4DA84204D14D6922F40032ED
:1033100042EA8522426043654968C1650462F0BDA6
:103320000000014000040140004001400044014011
:10333000004801403FB514A1D1E9002314A1CDE913
:103340000023D1E90021CDE90221416EB9B1016824
:1033500002AC8A688968C2F34262490F1DF80150C5
:10336000615C2D01B5FBF1F1A0F86A101DF80210A7
:10337000A25C0901B1FBF2F1A0F868103FBD012188
:10338000A0F86A10F8E7000001010103070100003E
:10339000080402040801010190F82810C90706D0AA
:1033A0000168C36A4A6822F400321A434A6090F8FE
:1033B0002810890706D50168036B4A6822F4803219
:1033C0001A434A6090F82810490706D50168436BF4
:1033D0004A6822F480221A434A6090F828100907AC
:1033E00006D50168836B4A6822F400421A434A609A
:1033F00090F82810C90606D50168C36B8A6822F4C4
:1034000080521A438A6090F82810890606D5016810
:10341000036C8A6822F400521A438A6090F82810DC
:10342000490611D50168436C4A6822F480121A4398
:103430004A60416CB1F5801F06D10168836C4A680F
:1034400022F4C0021A434A6090F82810090606D5F3
:103450000168C26C486820F400201043486070473F
:10346000F8B500260446C0F88860FDF711FC054653
:1034700020686FF07E470068000708D500222B46C1
:103480004FF400112046009700F0F2F960B920686F
:10349000006840070AD500222B464FF480012046E1
:1034A000009700F0E5F908B10320F8BD2020C4F82A
:1034B000800084F87C60C4F884000020F8BD00001F
:1034C0002DE9F04304468068D94F87B02268D4E9DB
:1034D0000465E369616E304316681D432843D54B8C
:1034E000002501433E400E4316602068E2684168B3
:1034F00021F44051114341602268A1699A4201D0F0
:10350000206A01439668DFF830C3CC4FCC4806EA06
:103510000C060E4396602168666ACA6A22F00F02A2
:103520003243CA622268BA420ED1006800F0380005
:10353000182873D047DCB8B3082879D010286FD189
:1035400078E028287ED17BE0BE498A4209D1006814
:1035500000F00700062875D2DFE800F0546A6C6EB0
:103560007072B9498A4209D1006800F00700062844
:1035700068D2DFE800F0475D5F616365B3498A4266
:1035800009D1006800F0070006285BD2DFE800F0F0
:103590003A5052545658AE498A420BD1006800F056
:1035A000070006284ED200E010E0DFE800F02B41D3
:1035B00043454749A7498A420AD1006800F03800CC
:1035C000182839D0B7DD2028BBD13CE001203AE0F3
:1035D000A1498A4209D1006800F00700062831D2CB
:1035E000DFE800F01026282A2C2E9C498A420BD1B5
:1035F000006800F00700062824D2DFE800F0031975
:103600001B1D1F2100201EE09A421BD18C48001D6B
:10361000006800F00700062814D202E00CE007E082
:1036200010E0DFE800F0030507090B0D02200AE0B7
:10363000042008E0082006E0102004E0202002E03A
:10364000402000E080208649DFF818829A42864AAE
:103650004FF400434FEA21174FF000064ED11028D7
:103660001AD006DC022809D004280BD008287DD106
:103670000DE020283ED0402878D13DE0FDF7A2FCA7
:10368000014610E06846FDF7AFFC01990BE003A886
:10369000FDF74CFD049906E01068800604D510681B
:1036A000C0F3C100C140C1B3606A676838F8102038
:1036B00007EB4703B1FBF2F0834257D8B0EB073F6B
:1036C00054D8002308461946FCF704FE09020202FA
:1036D00041EA106170084FEA370010183A4671410C
:1036E0000023FCF7F7FD614AA0F5407191423DD8F7
:1036F00021684CE03946D7E71946D5E7D4F81CC015
:103700004FF6EF799C4552D108281AD006DC60B1FB
:1037100001280DD0042829D10EE039E0102815D059
:10372000202840D040287CD13FE0FEF74FFB01E04D
:10373000FEF75EFB014610E06846FDF755FC019977
:103740000BE003A8FDF7F2FC049906E01068800680
:1037500004D51068C0F3C100C140C9B1636A606894
:1037600038F81330B1FBF3F1490000E059E001EB08
:103770005001B1FBF0F080B2A0F11001494550D8E2
:103780004FF6F0732168C0F3420218401043C8603E
:103790000120A4F86A00A4F868002846E6662667B7
:1037A00007B0BDE8F0833946D8E71946D6E70828C0
:1037B00019D005DC58B101280CD0042831D10DE016
:1037C000102815D020282ED040282AD12DE0FEF731
:1037D000FDFA01E0FEF70CFB014610E06846FDF73C
:1037E00003FC01990BE003A8FDF7A0FC049906E097
:1037F0001068800605D51068C0F3C100C1400029DB
:10380000C6D0636A606838F81330B1FBF3F101EB9E
:103810005001B1FBF0F080B2A0F1100149457FF6F4
:1038200067AF0125B4E73946EBE71946E9E7000041
:10383000F369FFCF000C0058FFF4FF1100100140A6
:10384000544402580044004000480040004C0040EE
:10385000005000400014014000780040007C00400F
:103860000090D003323C000800440258FFFC0F00D7
:103870002DE9F0479A4617460E460446089D4FF03C
:1038800000094FF0200839E0681C37D0FDF700FA36
:10389000A0EB0A00A84222D80DB3206801684907AE
:1038A0002CD5C069C043000528D423684FF40061BB
:1038B000196221680B6823F4D0730B6021688B6850
:1038C00023F001038B60C4F88080C4F88480C4F8BE
:1038D000888000BF032084F87C90BDE8F0872168D1
:1038E0000B6823F4D0730B6021688B6823F001030D
:1038F0008B60C4F88080C4F88480EBE72068C069DE
:1039000036EA000004D00020B842BDD00020E4E731
:103910000120F9E770B5044606990A9E049D012925
:103920000D9816D0E06840F04000E060204600F0BE
:103930002DF8A16B26B321F48031A163012D07D1AD
:10394000A16841F00601A160A16841F02001A160D9
:1039500070BDA26B01280C4922F48030A063E0689E
:1039600000EA0100E060E06820F44010E06003D16C
:10397000E06840F48010E060204600F007F8DDE7E2
:1039800041F48031D9E70000BFFFBDFF0C4901229F
:1039900002E0521C8A420BD80369002BF9DA036952
:1039A000012243F00103036104E0521C8A4201D961
:1039B000032070470369DB07F7D100207047000040
:1039C000400D030010B5D0F8041841F00201C0F812
:1039D00004180320FCF7A0FE002010BD2DE9F04FD5
:1039E0000E4604460021DDF824B00D46109F08461F
:1039F000DDF82C2004EB800CCCF80411401C0F28BF
:103A0000F8D32046AFB1806B40F4001CC4F838C036
:103A100088460846C4F8000ED4F80008012A21465A
:103A2000C4F800081BD00846D1F8001841F0030183
:103A30001BE0D0F8040840F0020CC4F804C8A06BE6
:103A400020F4001CC4F838C0206840F0400CC4F8D2
:103A500000C0206840F0800CC4F800C0D8E70846D9
:103A6000D1F800180BB141F00101C0F80018102185
:103A700000F086F800B10125204600F071F800B191
:103A8000012540464FF000694FF67F334FF0904AD2
:103A9000C4F81088C4F81488C4F81C88002114E005
:103AA00004EB4112D2F800C9BCF1000F06DA11B1E3
:103AB000C2F800A904E0C4F8009901E0C2F80009C6
:103AC000C2F81009C2F80839491C8E42E8D8002112
:103AD00015E000BF04EB4112D2F800CBBCF1000F9F
:103AE00006DA11B1C2F800AB04E0C4F8009B01E0B3
:103AF000C2F8000BC2F8100BC2F8083B491C8E42FA
:103B0000E8D8D4F81038BBF1000F6FF0804223F4EE
:103B10008073C4F81038A061626103D1A06940F0DD
:103B20001000A061A069094A0C9940EA0200A06156
:103B300019B1A06940F00800A061012F03D1A0696C
:103B400003490843A0612846BDE8F08F00383C8057
:103B500004000040816821F001018160002070476D
:103B6000064A102101610021491C914201D903201C
:103B700070470369DB06F7D400207047400D03004F
:103B80002023074A43EA811303610021491C914223
:103B900001D90320704703699B06F7D400207047C2
:103BA000400D030010B5C268012922F0C042C26076
:103BB00002D029B1012010BDC16841F0005102E0DE
:103BC000C16841F08041C1603220FCF7A5FD0020B2
:103BD00010BDFEE7090700284FEA116104DB00F180
:103BE000E02080F80014704700F00F0000F1E020A2
:103BF00080F8141D704702E008C8121F08C1002A8F
:103C0000FAD170477047002001E001C1121F002A5D
:103C1000FBD17047FDF74AF8FFF7D6F8FEF786FEAE
:103C2000FEF74EFEFEF768FFFEF78CFFFEF712FF71
:103C3000FEE7010002000400060008000A000C0074
:103C40001000200040008000000100000000010280
:103C50000304010203040607080900007C3C000875
:103C60000000002014000000F63B0008903C000813
:103C70001400002084090000063C00080100000038
:103C800010000000000000000090D0030090D0035E
:040000050800029954
:00000001FF
